{
	"contracts/TokenRegistery.sol": {
		"TokenRegistry": {
			"abi": [
				{
					"anonymous": false,
					"inputs": [
						{
							"indexed": true,
							"internalType": "uint256",
							"name": "tokenId",
							"type": "uint256"
						},
						{
							"indexed": true,
							"internalType": "address",
							"name": "owner",
							"type": "address"
						}
					],
					"name": "TokenDeactivated",
					"type": "event"
				},
				{
					"anonymous": false,
					"inputs": [
						{
							"indexed": true,
							"internalType": "uint256",
							"name": "tokenId",
							"type": "uint256"
						},
						{
							"indexed": false,
							"internalType": "string",
							"name": "name",
							"type": "string"
						},
						{
							"indexed": false,
							"internalType": "string",
							"name": "symbol",
							"type": "string"
						},
						{
							"indexed": true,
							"internalType": "address",
							"name": "owner",
							"type": "address"
						}
					],
					"name": "TokenRegistered",
					"type": "event"
				},
				{
					"inputs": [
						{
							"internalType": "uint256",
							"name": "id",
							"type": "uint256"
						}
					],
					"name": "deactivateToken",
					"outputs": [],
					"stateMutability": "nonpayable",
					"type": "function"
				},
				{
					"inputs": [],
					"name": "getAllTokenIds",
					"outputs": [
						{
							"internalType": "uint256[]",
							"name": "",
							"type": "uint256[]"
						}
					],
					"stateMutability": "view",
					"type": "function"
				},
				{
					"inputs": [
						{
							"internalType": "uint256",
							"name": "id",
							"type": "uint256"
						}
					],
					"name": "getToken",
					"outputs": [
						{
							"components": [
								{
									"internalType": "string",
									"name": "name",
									"type": "string"
								},
								{
									"internalType": "string",
									"name": "symbol",
									"type": "string"
								},
								{
									"internalType": "address",
									"name": "owner",
									"type": "address"
								},
								{
									"internalType": "bool",
									"name": "isActive",
									"type": "bool"
								}
							],
							"internalType": "struct TokenRegistry.Token",
							"name": "",
							"type": "tuple"
						}
					],
					"stateMutability": "view",
					"type": "function"
				},
				{
					"inputs": [],
					"name": "getTokenCount",
					"outputs": [
						{
							"internalType": "uint256",
							"name": "",
							"type": "uint256"
						}
					],
					"stateMutability": "view",
					"type": "function"
				},
				{
					"inputs": [
						{
							"internalType": "uint256",
							"name": "id",
							"type": "uint256"
						}
					],
					"name": "isTokenActive",
					"outputs": [
						{
							"internalType": "bool",
							"name": "",
							"type": "bool"
						}
					],
					"stateMutability": "view",
					"type": "function"
				},
				{
					"inputs": [
						{
							"internalType": "string",
							"name": "name",
							"type": "string"
						},
						{
							"internalType": "string",
							"name": "symbol",
							"type": "string"
						}
					],
					"name": "registerToken",
					"outputs": [],
					"stateMutability": "nonpayable",
					"type": "function"
				},
				{
					"inputs": [
						{
							"internalType": "uint256",
							"name": "",
							"type": "uint256"
						}
					],
					"name": "tokenIds",
					"outputs": [
						{
							"internalType": "uint256",
							"name": "",
							"type": "uint256"
						}
					],
					"stateMutability": "view",
					"type": "function"
				},
				{
					"inputs": [
						{
							"internalType": "uint256",
							"name": "",
							"type": "uint256"
						}
					],
					"name": "tokens",
					"outputs": [
						{
							"internalType": "string",
							"name": "name",
							"type": "string"
						},
						{
							"internalType": "string",
							"name": "symbol",
							"type": "string"
						},
						{
							"internalType": "address",
							"name": "owner",
							"type": "address"
						},
						{
							"internalType": "bool",
							"name": "isActive",
							"type": "bool"
						}
					],
					"stateMutability": "view",
					"type": "function"
				}
			],
			"devdoc": {
				"kind": "dev",
				"methods": {},
				"version": 1
			},
			"evm": {
				"assembly": "    /* \"contracts/TokenRegistery.sol\":61:3054  contract TokenRegistry {... */\n  mstore(0x40, 0x80)\n    /* \"contracts/TokenRegistery.sol\":499:500  1 */\n  0x01\n    /* \"contracts/TokenRegistery.sol\":466:500  uint256 private tokenIdCounter = 1 */\n  0x02\n  sstore\n    /* \"contracts/TokenRegistery.sol\":61:3054  contract TokenRegistry {... */\n  callvalue\n  dup1\n  iszero\n  tag_1\n  jumpi\n  revert(0x00, 0x00)\ntag_1:\n  pop\n  dataSize(sub_0)\n  dup1\n  dataOffset(sub_0)\n  0x00\n  codecopy\n  0x00\n  return\nstop\n\nsub_0: assembly {\n        /* \"contracts/TokenRegistery.sol\":61:3054  contract TokenRegistry {... */\n      mstore(0x40, 0x80)\n      callvalue\n      dup1\n      iszero\n      tag_1\n      jumpi\n      revert(0x00, 0x00)\n    tag_1:\n      pop\n      jumpi(tag_2, lt(calldatasize, 0x04))\n      shr(0xe0, calldataload(0x00))\n      dup1\n      0xce20d4b3\n      gt\n      tag_11\n      jumpi\n      dup1\n      0xce20d4b3\n      eq\n      tag_7\n      jumpi\n      dup1\n      0xd58778d6\n      eq\n      tag_8\n      jumpi\n      dup1\n      0xe4b50cb8\n      eq\n      tag_9\n      jumpi\n      dup1\n      0xec991da9\n      eq\n      tag_10\n      jumpi\n      jump(tag_2)\n    tag_11:\n      dup1\n      0x4f64b2be\n      eq\n      tag_3\n      jumpi\n      dup1\n      0x78a89567\n      eq\n      tag_4\n      jumpi\n      dup1\n      0x9b0b92ef\n      eq\n      tag_5\n      jumpi\n      dup1\n      0xbdbed722\n      eq\n      tag_6\n      jumpi\n    tag_2:\n      revert(0x00, 0x00)\n        /* \"contracts/TokenRegistery.sol\":288:327  mapping(uint256 => Token) public tokens */\n    tag_3:\n      tag_12\n      0x04\n      dup1\n      calldatasize\n      sub\n      dup2\n      add\n      swap1\n      tag_13\n      swap2\n      swap1\n      tag_14\n      jump\t// in\n    tag_13:\n      tag_15\n      jump\t// in\n    tag_12:\n      mload(0x40)\n      tag_16\n      swap5\n      swap4\n      swap3\n      swap2\n      swap1\n      tag_17\n      jump\t// in\n    tag_16:\n      mload(0x40)\n      dup1\n      swap2\n      sub\n      swap1\n      return\n        /* \"contracts/TokenRegistery.sol\":2789:2885  function getTokenCount() public view returns (uint256) {... */\n    tag_4:\n      tag_18\n      tag_19\n      jump\t// in\n    tag_18:\n      mload(0x40)\n      tag_20\n      swap2\n      swap1\n      tag_21\n      jump\t// in\n    tag_20:\n      mload(0x40)\n      dup1\n      swap2\n      sub\n      swap1\n      return\n        /* \"contracts/TokenRegistery.sol\":2928:3051  function isTokenActive(uint256 id) public view tokenExists(id) returns (bool) {... */\n    tag_5:\n      tag_22\n      0x04\n      dup1\n      calldatasize\n      sub\n      dup2\n      add\n      swap1\n      tag_23\n      swap2\n      swap1\n      tag_14\n      jump\t// in\n    tag_23:\n      tag_24\n      jump\t// in\n    tag_22:\n      mload(0x40)\n      tag_25\n      swap2\n      swap1\n      tag_26\n      jump\t// in\n    tag_25:\n      mload(0x40)\n      dup1\n      swap2\n      sub\n      swap1\n      return\n        /* \"contracts/TokenRegistery.sol\":2632:2731  function getAllTokenIds() public view returns (uint256[] memory) {... */\n    tag_6:\n      tag_27\n      tag_28\n      jump\t// in\n    tag_27:\n      mload(0x40)\n      tag_29\n      swap2\n      swap1\n      tag_30\n      jump\t// in\n    tag_29:\n      mload(0x40)\n      dup1\n      swap2\n      sub\n      swap1\n      return\n        /* \"contracts/TokenRegistery.sol\":1262:2019  function registerToken(string memory name, string memory symbol) public {... */\n    tag_7:\n      tag_31\n      0x04\n      dup1\n      calldatasize\n      sub\n      dup2\n      add\n      swap1\n      tag_32\n      swap2\n      swap1\n      tag_33\n      jump\t// in\n    tag_32:\n      tag_34\n      jump\t// in\n    tag_31:\n      stop\n        /* \"contracts/TokenRegistery.sol\":384:409  uint256[] public tokenIds */\n    tag_8:\n      tag_35\n      0x04\n      dup1\n      calldatasize\n      sub\n      dup2\n      add\n      swap1\n      tag_36\n      swap2\n      swap1\n      tag_14\n      jump\t// in\n    tag_36:\n      tag_37\n      jump\t// in\n    tag_35:\n      mload(0x40)\n      tag_38\n      swap2\n      swap1\n      tag_21\n      jump\t// in\n    tag_38:\n      mload(0x40)\n      dup1\n      swap2\n      sub\n      swap1\n      return\n        /* \"contracts/TokenRegistery.sol\":2429:2587  function getToken(uint256 id)... */\n    tag_9:\n      tag_39\n      0x04\n      dup1\n      calldatasize\n      sub\n      dup2\n      add\n      swap1\n      tag_40\n      swap2\n      swap1\n      tag_14\n      jump\t// in\n    tag_40:\n      tag_41\n      jump\t// in\n    tag_39:\n      mload(0x40)\n      tag_42\n      swap2\n      swap1\n      tag_43\n      jump\t// in\n    tag_42:\n      mload(0x40)\n      dup1\n      swap2\n      sub\n      swap1\n      return\n        /* \"contracts/TokenRegistery.sol\":2079:2379  function deactivateToken(uint256 id)... */\n    tag_10:\n      tag_44\n      0x04\n      dup1\n      calldatasize\n      sub\n      dup2\n      add\n      swap1\n      tag_45\n      swap2\n      swap1\n      tag_14\n      jump\t// in\n    tag_45:\n      tag_46\n      jump\t// in\n    tag_44:\n      stop\n        /* \"contracts/TokenRegistery.sol\":288:327  mapping(uint256 => Token) public tokens */\n    tag_15:\n      mstore(0x20, 0x00)\n      dup1\n      0x00\n      mstore\n      keccak256(0x00, 0x40)\n      0x00\n      swap2\n      pop\n      swap1\n      pop\n      dup1\n      0x00\n      add\n      dup1\n      sload\n      tag_47\n      swap1\n      tag_48\n      jump\t// in\n    tag_47:\n      dup1\n      0x1f\n      add\n      0x20\n      dup1\n      swap2\n      div\n      mul\n      0x20\n      add\n      mload(0x40)\n      swap1\n      dup2\n      add\n      0x40\n      mstore\n      dup1\n      swap3\n      swap2\n      swap1\n      dup2\n      dup2\n      mstore\n      0x20\n      add\n      dup3\n      dup1\n      sload\n      tag_49\n      swap1\n      tag_48\n      jump\t// in\n    tag_49:\n      dup1\n      iszero\n      tag_50\n      jumpi\n      dup1\n      0x1f\n      lt\n      tag_51\n      jumpi\n      0x0100\n      dup1\n      dup4\n      sload\n      div\n      mul\n      dup4\n      mstore\n      swap2\n      0x20\n      add\n      swap2\n      jump(tag_50)\n    tag_51:\n      dup3\n      add\n      swap2\n      swap1\n      0x00\n      mstore\n      keccak256(0x00, 0x20)\n      swap1\n    tag_52:\n      dup2\n      sload\n      dup2\n      mstore\n      swap1\n      0x01\n      add\n      swap1\n      0x20\n      add\n      dup1\n      dup4\n      gt\n      tag_52\n      jumpi\n      dup3\n      swap1\n      sub\n      0x1f\n      and\n      dup3\n      add\n      swap2\n    tag_50:\n      pop\n      pop\n      pop\n      pop\n      pop\n      swap1\n      dup1\n      0x01\n      add\n      dup1\n      sload\n      tag_53\n      swap1\n      tag_48\n      jump\t// in\n    tag_53:\n      dup1\n      0x1f\n      add\n      0x20\n      dup1\n      swap2\n      div\n      mul\n      0x20\n      add\n      mload(0x40)\n      swap1\n      dup2\n      add\n      0x40\n      mstore\n      dup1\n      swap3\n      swap2\n      swap1\n      dup2\n      dup2\n      mstore\n      0x20\n      add\n      dup3\n      dup1\n      sload\n      tag_54\n      swap1\n      tag_48\n      jump\t// in\n    tag_54:\n      dup1\n      iszero\n      tag_55\n      jumpi\n      dup1\n      0x1f\n      lt\n      tag_56\n      jumpi\n      0x0100\n      dup1\n      dup4\n      sload\n      div\n      mul\n      dup4\n      mstore\n      swap2\n      0x20\n      add\n      swap2\n      jump(tag_55)\n    tag_56:\n      dup3\n      add\n      swap2\n      swap1\n      0x00\n      mstore\n      keccak256(0x00, 0x20)\n      swap1\n    tag_57:\n      dup2\n      sload\n      dup2\n      mstore\n      swap1\n      0x01\n      add\n      swap1\n      0x20\n      add\n      dup1\n      dup4\n      gt\n      tag_57\n      jumpi\n      dup3\n      swap1\n      sub\n      0x1f\n      and\n      dup3\n      add\n      swap2\n    tag_55:\n      pop\n      pop\n      pop\n      pop\n      pop\n      swap1\n      dup1\n      0x02\n      add\n      0x00\n      swap1\n      sload\n      swap1\n      0x0100\n      exp\n      swap1\n      div\n      0xffffffffffffffffffffffffffffffffffffffff\n      and\n      swap1\n      dup1\n      0x02\n      add\n      0x14\n      swap1\n      sload\n      swap1\n      0x0100\n      exp\n      swap1\n      div\n      0xff\n      and\n      swap1\n      pop\n      dup5\n      jump\t// out\n        /* \"contracts/TokenRegistery.sol\":2789:2885  function getTokenCount() public view returns (uint256) {... */\n    tag_19:\n        /* \"contracts/TokenRegistery.sol\":2835:2842  uint256 */\n      0x00\n        /* \"contracts/TokenRegistery.sol\":2862:2870  tokenIds */\n      0x01\n        /* \"contracts/TokenRegistery.sol\":2862:2877  tokenIds.length */\n      dup1\n      sload\n      swap1\n      pop\n        /* \"contracts/TokenRegistery.sol\":2855:2877  return tokenIds.length */\n      swap1\n      pop\n        /* \"contracts/TokenRegistery.sol\":2789:2885  function getTokenCount() public view returns (uint256) {... */\n      swap1\n      jump\t// out\n        /* \"contracts/TokenRegistery.sol\":2928:3051  function isTokenActive(uint256 id) public view tokenExists(id) returns (bool) {... */\n    tag_24:\n        /* \"contracts/TokenRegistery.sol\":3000:3004  bool */\n      0x00\n        /* \"contracts/TokenRegistery.sol\":2987:2989  id */\n      dup2\n        /* \"contracts/TokenRegistery.sol\":1131:1132  0 */\n      0x00\n        /* \"contracts/TokenRegistery.sol\":1126:1128  id */\n      dup2\n        /* \"contracts/TokenRegistery.sol\":1126:1132  id > 0 */\n      gt\n        /* \"contracts/TokenRegistery.sol\":1126:1155  id > 0 && id < tokenIdCounter */\n      dup1\n      iszero\n      tag_60\n      jumpi\n      pop\n        /* \"contracts/TokenRegistery.sol\":1141:1155  tokenIdCounter */\n      sload(0x02)\n        /* \"contracts/TokenRegistery.sol\":1136:1138  id */\n      dup2\n        /* \"contracts/TokenRegistery.sol\":1136:1155  id < tokenIdCounter */\n      lt\n        /* \"contracts/TokenRegistery.sol\":1126:1155  id > 0 && id < tokenIdCounter */\n    tag_60:\n        /* \"contracts/TokenRegistery.sol\":1118:1180  require(id > 0 && id < tokenIdCounter, \"Token does not exist\") */\n      tag_61\n      jumpi\n      mload(0x40)\n      0x08c379a000000000000000000000000000000000000000000000000000000000\n      dup2\n      mstore\n      0x04\n      add\n      tag_62\n      swap1\n      tag_63\n      jump\t// in\n    tag_62:\n      mload(0x40)\n      dup1\n      swap2\n      sub\n      swap1\n      revert\n    tag_61:\n        /* \"contracts/TokenRegistery.sol\":3024:3030  tokens */\n      0x00\n        /* \"contracts/TokenRegistery.sol\":3024:3034  tokens[id] */\n      0x00\n        /* \"contracts/TokenRegistery.sol\":3031:3033  id */\n      dup5\n        /* \"contracts/TokenRegistery.sol\":3024:3034  tokens[id] */\n      dup2\n      mstore\n      0x20\n      add\n      swap1\n      dup2\n      mstore\n      0x20\n      add\n      0x00\n      keccak256\n        /* \"contracts/TokenRegistery.sol\":3024:3043  tokens[id].isActive */\n      0x02\n      add\n      0x14\n      swap1\n      sload\n      swap1\n      0x0100\n      exp\n      swap1\n      div\n      0xff\n      and\n        /* \"contracts/TokenRegistery.sol\":3017:3043  return tokens[id].isActive */\n      swap2\n      pop\n        /* \"contracts/TokenRegistery.sol\":2928:3051  function isTokenActive(uint256 id) public view tokenExists(id) returns (bool) {... */\n      pop\n      swap2\n      swap1\n      pop\n      jump\t// out\n        /* \"contracts/TokenRegistery.sol\":2632:2731  function getAllTokenIds() public view returns (uint256[] memory) {... */\n    tag_28:\n        /* \"contracts/TokenRegistery.sol\":2679:2695  uint256[] memory */\n      0x60\n        /* \"contracts/TokenRegistery.sol\":2715:2723  tokenIds */\n      0x01\n        /* \"contracts/TokenRegistery.sol\":2708:2723  return tokenIds */\n      dup1\n      sload\n      dup1\n      0x20\n      mul\n      0x20\n      add\n      mload(0x40)\n      swap1\n      dup2\n      add\n      0x40\n      mstore\n      dup1\n      swap3\n      swap2\n      swap1\n      dup2\n      dup2\n      mstore\n      0x20\n      add\n      dup3\n      dup1\n      sload\n      dup1\n      iszero\n      tag_66\n      jumpi\n      0x20\n      mul\n      dup3\n      add\n      swap2\n      swap1\n      0x00\n      mstore\n      keccak256(0x00, 0x20)\n      swap1\n    tag_67:\n      dup2\n      sload\n      dup2\n      mstore\n      0x20\n      add\n      swap1\n      0x01\n      add\n      swap1\n      dup1\n      dup4\n      gt\n      tag_67\n      jumpi\n    tag_66:\n      pop\n      pop\n      pop\n      pop\n      pop\n      swap1\n      pop\n        /* \"contracts/TokenRegistery.sol\":2632:2731  function getAllTokenIds() public view returns (uint256[] memory) {... */\n      swap1\n      jump\t// out\n        /* \"contracts/TokenRegistery.sol\":1262:2019  function registerToken(string memory name, string memory symbol) public {... */\n    tag_34:\n        /* \"contracts/TokenRegistery.sol\":1417:1418  0 */\n      0x00\n        /* \"contracts/TokenRegistery.sol\":1402:1406  name */\n      dup3\n        /* \"contracts/TokenRegistery.sol\":1396:1414  bytes(name).length */\n      mload\n        /* \"contracts/TokenRegistery.sol\":1396:1418  bytes(name).length > 0 */\n      gt\n        /* \"contracts/TokenRegistery.sol\":1388:1449  require(bytes(name).length > 0, \"Token name cannot be empty\") */\n      tag_69\n      jumpi\n      mload(0x40)\n      0x08c379a000000000000000000000000000000000000000000000000000000000\n      dup2\n      mstore\n      0x04\n      add\n      tag_70\n      swap1\n      tag_71\n      jump\t// in\n    tag_70:\n      mload(0x40)\n      dup1\n      swap2\n      sub\n      swap1\n      revert\n    tag_69:\n        /* \"contracts/TokenRegistery.sol\":1491:1492  0 */\n      0x00\n        /* \"contracts/TokenRegistery.sol\":1474:1480  symbol */\n      dup2\n        /* \"contracts/TokenRegistery.sol\":1468:1488  bytes(symbol).length */\n      mload\n        /* \"contracts/TokenRegistery.sol\":1468:1492  bytes(symbol).length > 0 */\n      gt\n        /* \"contracts/TokenRegistery.sol\":1460:1525  require(bytes(symbol).length > 0, \"Token symbol cannot be empty\") */\n      tag_72\n      jumpi\n      mload(0x40)\n      0x08c379a000000000000000000000000000000000000000000000000000000000\n      dup2\n      mstore\n      0x04\n      add\n      tag_73\n      swap1\n      tag_74\n      jump\t// in\n    tag_73:\n      mload(0x40)\n      dup1\n      swap2\n      sub\n      swap1\n      revert\n    tag_72:\n        /* \"contracts/TokenRegistery.sol\":1538:1553  uint256 tokenId */\n      0x00\n        /* \"contracts/TokenRegistery.sol\":1556:1570  tokenIdCounter */\n      sload(0x02)\n        /* \"contracts/TokenRegistery.sol\":1538:1570  uint256 tokenId = tokenIdCounter */\n      swap1\n      pop\n        /* \"contracts/TokenRegistery.sol\":1640:1773  Token({... */\n      mload(0x40)\n      dup1\n      0x80\n      add\n      0x40\n      mstore\n      dup1\n        /* \"contracts/TokenRegistery.sol\":1667:1671  name */\n      dup5\n        /* \"contracts/TokenRegistery.sol\":1640:1773  Token({... */\n      dup2\n      mstore\n      0x20\n      add\n        /* \"contracts/TokenRegistery.sol\":1694:1700  symbol */\n      dup4\n        /* \"contracts/TokenRegistery.sol\":1640:1773  Token({... */\n      dup2\n      mstore\n      0x20\n      add\n        /* \"contracts/TokenRegistery.sol\":1722:1732  msg.sender */\n      caller\n        /* \"contracts/TokenRegistery.sol\":1640:1773  Token({... */\n      0xffffffffffffffffffffffffffffffffffffffff\n      and\n      dup2\n      mstore\n      0x20\n      add\n        /* \"contracts/TokenRegistery.sol\":1757:1761  true */\n      0x01\n        /* \"contracts/TokenRegistery.sol\":1640:1773  Token({... */\n      iszero\n      iszero\n      dup2\n      mstore\n      pop\n        /* \"contracts/TokenRegistery.sol\":1622:1628  tokens */\n      0x00\n        /* \"contracts/TokenRegistery.sol\":1622:1637  tokens[tokenId] */\n      0x00\n        /* \"contracts/TokenRegistery.sol\":1629:1636  tokenId */\n      dup4\n        /* \"contracts/TokenRegistery.sol\":1622:1637  tokens[tokenId] */\n      dup2\n      mstore\n      0x20\n      add\n      swap1\n      dup2\n      mstore\n      0x20\n      add\n      0x00\n      keccak256\n        /* \"contracts/TokenRegistery.sol\":1622:1773  tokens[tokenId] = Token({... */\n      0x00\n      dup3\n      add\n      mload\n      dup2\n      0x00\n      add\n      swap1\n      dup2\n      tag_75\n      swap2\n      swap1\n      tag_76\n      jump\t// in\n    tag_75:\n      pop\n      0x20\n      dup3\n      add\n      mload\n      dup2\n      0x01\n      add\n      swap1\n      dup2\n      tag_77\n      swap2\n      swap1\n      tag_76\n      jump\t// in\n    tag_77:\n      pop\n      0x40\n      dup3\n      add\n      mload\n      dup2\n      0x02\n      add\n      exp(0x0100, 0x00)\n      dup2\n      sload\n      dup2\n      0xffffffffffffffffffffffffffffffffffffffff\n      mul\n      not\n      and\n      swap1\n      dup4\n      0xffffffffffffffffffffffffffffffffffffffff\n      and\n      mul\n      or\n      swap1\n      sstore\n      pop\n      0x60\n      dup3\n      add\n      mload\n      dup2\n      0x02\n      add\n      exp(0x0100, 0x14)\n      dup2\n      sload\n      dup2\n      0xff\n      mul\n      not\n      and\n      swap1\n      dup4\n      iszero\n      iszero\n      mul\n      or\n      swap1\n      sstore\n      pop\n      swap1\n      pop\n      pop\n        /* \"contracts/TokenRegistery.sol\":1824:1832  tokenIds */\n      0x01\n        /* \"contracts/TokenRegistery.sol\":1838:1845  tokenId */\n      dup2\n        /* \"contracts/TokenRegistery.sol\":1824:1846  tokenIds.push(tokenId) */\n      swap1\n      dup1\n      0x01\n      dup2\n      sload\n      add\n      dup1\n      dup3\n      sstore\n      dup1\n      swap2\n      pop\n      pop\n      0x01\n      swap1\n      sub\n      swap1\n      0x00\n      mstore\n      keccak256(0x00, 0x20)\n      add\n      0x00\n      swap1\n      swap2\n      swap1\n      swap2\n      swap1\n      swap2\n      pop\n      sstore\n        /* \"contracts/TokenRegistery.sol\":1926:1936  msg.sender */\n      caller\n        /* \"contracts/TokenRegistery.sol\":1887:1937  TokenRegistered(tokenId, name, symbol, msg.sender) */\n      0xffffffffffffffffffffffffffffffffffffffff\n      and\n        /* \"contracts/TokenRegistery.sol\":1903:1910  tokenId */\n      dup2\n        /* \"contracts/TokenRegistery.sol\":1887:1937  TokenRegistered(tokenId, name, symbol, msg.sender) */\n      0x0a2ed3e4c977f75f5745574412c2a365041206f0cb48e738c5efef51a4373cba\n        /* \"contracts/TokenRegistery.sol\":1912:1916  name */\n      dup6\n        /* \"contracts/TokenRegistery.sol\":1918:1924  symbol */\n      dup6\n        /* \"contracts/TokenRegistery.sol\":1887:1937  TokenRegistered(tokenId, name, symbol, msg.sender) */\n      mload(0x40)\n      tag_79\n      swap3\n      swap2\n      swap1\n      tag_80\n      jump\t// in\n    tag_79:\n      mload(0x40)\n      dup1\n      swap2\n      sub\n      swap1\n      log3\n        /* \"contracts/TokenRegistery.sol\":1995:2009  tokenIdCounter */\n      0x02\n      0x00\n        /* \"contracts/TokenRegistery.sol\":1995:2011  tokenIdCounter++ */\n      dup2\n      sload\n      dup1\n      swap3\n      swap2\n      swap1\n      tag_81\n      swap1\n      tag_82\n      jump\t// in\n    tag_81:\n      swap2\n      swap1\n      pop\n      sstore\n      pop\n        /* \"contracts/TokenRegistery.sol\":1334:2019  {... */\n      pop\n        /* \"contracts/TokenRegistery.sol\":1262:2019  function registerToken(string memory name, string memory symbol) public {... */\n      pop\n      pop\n      jump\t// out\n        /* \"contracts/TokenRegistery.sol\":384:409  uint256[] public tokenIds */\n    tag_37:\n      0x01\n      dup2\n      dup2\n      sload\n      dup2\n      lt\n      tag_83\n      jumpi\n      0x00\n      dup1\n      revert\n    tag_83:\n      swap1\n      0x00\n      mstore\n      keccak256(0x00, 0x20)\n      add\n      0x00\n      swap2\n      pop\n      swap1\n      pop\n      sload\n      dup2\n      jump\t// out\n        /* \"contracts/TokenRegistery.sol\":2429:2587  function getToken(uint256 id)... */\n    tag_41:\n        /* \"contracts/TokenRegistery.sol\":2532:2544  Token memory */\n      tag_85\n      tag_86\n      jump\t// in\n    tag_85:\n        /* \"contracts/TokenRegistery.sol\":2510:2512  id */\n      dup2\n        /* \"contracts/TokenRegistery.sol\":1131:1132  0 */\n      0x00\n        /* \"contracts/TokenRegistery.sol\":1126:1128  id */\n      dup2\n        /* \"contracts/TokenRegistery.sol\":1126:1132  id > 0 */\n      gt\n        /* \"contracts/TokenRegistery.sol\":1126:1155  id > 0 && id < tokenIdCounter */\n      dup1\n      iszero\n      tag_88\n      jumpi\n      pop\n        /* \"contracts/TokenRegistery.sol\":1141:1155  tokenIdCounter */\n      sload(0x02)\n        /* \"contracts/TokenRegistery.sol\":1136:1138  id */\n      dup2\n        /* \"contracts/TokenRegistery.sol\":1136:1155  id < tokenIdCounter */\n      lt\n        /* \"contracts/TokenRegistery.sol\":1126:1155  id > 0 && id < tokenIdCounter */\n    tag_88:\n        /* \"contracts/TokenRegistery.sol\":1118:1180  require(id > 0 && id < tokenIdCounter, \"Token does not exist\") */\n      tag_89\n      jumpi\n      mload(0x40)\n      0x08c379a000000000000000000000000000000000000000000000000000000000\n      dup2\n      mstore\n      0x04\n      add\n      tag_90\n      swap1\n      tag_63\n      jump\t// in\n    tag_90:\n      mload(0x40)\n      dup1\n      swap2\n      sub\n      swap1\n      revert\n    tag_89:\n        /* \"contracts/TokenRegistery.sol\":2569:2575  tokens */\n      0x00\n        /* \"contracts/TokenRegistery.sol\":2569:2579  tokens[id] */\n      0x00\n        /* \"contracts/TokenRegistery.sol\":2576:2578  id */\n      dup5\n        /* \"contracts/TokenRegistery.sol\":2569:2579  tokens[id] */\n      dup2\n      mstore\n      0x20\n      add\n      swap1\n      dup2\n      mstore\n      0x20\n      add\n      0x00\n      keccak256\n        /* \"contracts/TokenRegistery.sol\":2562:2579  return tokens[id] */\n      mload(0x40)\n      dup1\n      0x80\n      add\n      0x40\n      mstore\n      swap1\n      dup2\n      0x00\n      dup3\n      add\n      dup1\n      sload\n      tag_92\n      swap1\n      tag_48\n      jump\t// in\n    tag_92:\n      dup1\n      0x1f\n      add\n      0x20\n      dup1\n      swap2\n      div\n      mul\n      0x20\n      add\n      mload(0x40)\n      swap1\n      dup2\n      add\n      0x40\n      mstore\n      dup1\n      swap3\n      swap2\n      swap1\n      dup2\n      dup2\n      mstore\n      0x20\n      add\n      dup3\n      dup1\n      sload\n      tag_93\n      swap1\n      tag_48\n      jump\t// in\n    tag_93:\n      dup1\n      iszero\n      tag_94\n      jumpi\n      dup1\n      0x1f\n      lt\n      tag_95\n      jumpi\n      0x0100\n      dup1\n      dup4\n      sload\n      div\n      mul\n      dup4\n      mstore\n      swap2\n      0x20\n      add\n      swap2\n      jump(tag_94)\n    tag_95:\n      dup3\n      add\n      swap2\n      swap1\n      0x00\n      mstore\n      keccak256(0x00, 0x20)\n      swap1\n    tag_96:\n      dup2\n      sload\n      dup2\n      mstore\n      swap1\n      0x01\n      add\n      swap1\n      0x20\n      add\n      dup1\n      dup4\n      gt\n      tag_96\n      jumpi\n      dup3\n      swap1\n      sub\n      0x1f\n      and\n      dup3\n      add\n      swap2\n    tag_94:\n      pop\n      pop\n      pop\n      pop\n      pop\n      dup2\n      mstore\n      0x20\n      add\n      0x01\n      dup3\n      add\n      dup1\n      sload\n      tag_97\n      swap1\n      tag_48\n      jump\t// in\n    tag_97:\n      dup1\n      0x1f\n      add\n      0x20\n      dup1\n      swap2\n      div\n      mul\n      0x20\n      add\n      mload(0x40)\n      swap1\n      dup2\n      add\n      0x40\n      mstore\n      dup1\n      swap3\n      swap2\n      swap1\n      dup2\n      dup2\n      mstore\n      0x20\n      add\n      dup3\n      dup1\n      sload\n      tag_98\n      swap1\n      tag_48\n      jump\t// in\n    tag_98:\n      dup1\n      iszero\n      tag_99\n      jumpi\n      dup1\n      0x1f\n      lt\n      tag_100\n      jumpi\n      0x0100\n      dup1\n      dup4\n      sload\n      div\n      mul\n      dup4\n      mstore\n      swap2\n      0x20\n      add\n      swap2\n      jump(tag_99)\n    tag_100:\n      dup3\n      add\n      swap2\n      swap1\n      0x00\n      mstore\n      keccak256(0x00, 0x20)\n      swap1\n    tag_101:\n      dup2\n      sload\n      dup2\n      mstore\n      swap1\n      0x01\n      add\n      swap1\n      0x20\n      add\n      dup1\n      dup4\n      gt\n      tag_101\n      jumpi\n      dup3\n      swap1\n      sub\n      0x1f\n      and\n      dup3\n      add\n      swap2\n    tag_99:\n      pop\n      pop\n      pop\n      pop\n      pop\n      dup2\n      mstore\n      0x20\n      add\n      0x02\n      dup3\n      add\n      0x00\n      swap1\n      sload\n      swap1\n      0x0100\n      exp\n      swap1\n      div\n      0xffffffffffffffffffffffffffffffffffffffff\n      and\n      0xffffffffffffffffffffffffffffffffffffffff\n      and\n      0xffffffffffffffffffffffffffffffffffffffff\n      and\n      dup2\n      mstore\n      0x20\n      add\n      0x02\n      dup3\n      add\n      0x14\n      swap1\n      sload\n      swap1\n      0x0100\n      exp\n      swap1\n      div\n      0xff\n      and\n      iszero\n      iszero\n      iszero\n      iszero\n      dup2\n      mstore\n      pop\n      pop\n      swap2\n      pop\n        /* \"contracts/TokenRegistery.sol\":2429:2587  function getToken(uint256 id)... */\n      pop\n      swap2\n      swap1\n      pop\n      jump\t// out\n        /* \"contracts/TokenRegistery.sol\":2079:2379  function deactivateToken(uint256 id)... */\n    tag_46:\n        /* \"contracts/TokenRegistery.sol\":2153:2155  id */\n      dup1\n        /* \"contracts/TokenRegistery.sol\":1131:1132  0 */\n      0x00\n        /* \"contracts/TokenRegistery.sol\":1126:1128  id */\n      dup2\n        /* \"contracts/TokenRegistery.sol\":1126:1132  id > 0 */\n      gt\n        /* \"contracts/TokenRegistery.sol\":1126:1155  id > 0 && id < tokenIdCounter */\n      dup1\n      iszero\n      tag_103\n      jumpi\n      pop\n        /* \"contracts/TokenRegistery.sol\":1141:1155  tokenIdCounter */\n      sload(0x02)\n        /* \"contracts/TokenRegistery.sol\":1136:1138  id */\n      dup2\n        /* \"contracts/TokenRegistery.sol\":1136:1155  id < tokenIdCounter */\n      lt\n        /* \"contracts/TokenRegistery.sol\":1126:1155  id > 0 && id < tokenIdCounter */\n    tag_103:\n        /* \"contracts/TokenRegistery.sol\":1118:1180  require(id > 0 && id < tokenIdCounter, \"Token does not exist\") */\n      tag_104\n      jumpi\n      mload(0x40)\n      0x08c379a000000000000000000000000000000000000000000000000000000000\n      dup2\n      mstore\n      0x04\n      add\n      tag_105\n      swap1\n      tag_63\n      jump\t// in\n    tag_105:\n      mload(0x40)\n      dup1\n      swap2\n      sub\n      swap1\n      revert\n    tag_104:\n        /* \"contracts/TokenRegistery.sol\":2181:2183  id */\n      dup2\n        /* \"contracts/TokenRegistery.sol\":958:968  msg.sender */\n      caller\n        /* \"contracts/TokenRegistery.sol\":938:968  tokens[id].owner == msg.sender */\n      0xffffffffffffffffffffffffffffffffffffffff\n      and\n        /* \"contracts/TokenRegistery.sol\":938:944  tokens */\n      0x00\n        /* \"contracts/TokenRegistery.sol\":938:948  tokens[id] */\n      0x00\n        /* \"contracts/TokenRegistery.sol\":945:947  id */\n      dup4\n        /* \"contracts/TokenRegistery.sol\":938:948  tokens[id] */\n      dup2\n      mstore\n      0x20\n      add\n      swap1\n      dup2\n      mstore\n      0x20\n      add\n      0x00\n      keccak256\n        /* \"contracts/TokenRegistery.sol\":938:954  tokens[id].owner */\n      0x02\n      add\n      0x00\n      swap1\n      sload\n      swap1\n      0x0100\n      exp\n      swap1\n      div\n      0xffffffffffffffffffffffffffffffffffffffff\n      and\n        /* \"contracts/TokenRegistery.sol\":938:968  tokens[id].owner == msg.sender */\n      0xffffffffffffffffffffffffffffffffffffffff\n      and\n      eq\n        /* \"contracts/TokenRegistery.sol\":930:1004  require(tokens[id].owner == msg.sender, \"Only token owner can deactivate\") */\n      tag_107\n      jumpi\n      mload(0x40)\n      0x08c379a000000000000000000000000000000000000000000000000000000000\n      dup2\n      mstore\n      0x04\n      add\n      tag_108\n      swap1\n      tag_109\n      jump\t// in\n    tag_108:\n      mload(0x40)\n      dup1\n      swap2\n      sub\n      swap1\n      revert\n    tag_107:\n        /* \"contracts/TokenRegistery.sol\":2209:2215  tokens */\n      0x00\n        /* \"contracts/TokenRegistery.sol\":2209:2219  tokens[id] */\n      0x00\n        /* \"contracts/TokenRegistery.sol\":2216:2218  id */\n      dup5\n        /* \"contracts/TokenRegistery.sol\":2209:2219  tokens[id] */\n      dup2\n      mstore\n      0x20\n      add\n      swap1\n      dup2\n      mstore\n      0x20\n      add\n      0x00\n      keccak256\n        /* \"contracts/TokenRegistery.sol\":2209:2228  tokens[id].isActive */\n      0x02\n      add\n      0x14\n      swap1\n      sload\n      swap1\n      0x0100\n      exp\n      swap1\n      div\n      0xff\n      and\n        /* \"contracts/TokenRegistery.sol\":2201:2258  require(tokens[id].isActive, \"Token is already inactive\") */\n      tag_111\n      jumpi\n      mload(0x40)\n      0x08c379a000000000000000000000000000000000000000000000000000000000\n      dup2\n      mstore\n      0x04\n      add\n      tag_112\n      swap1\n      tag_113\n      jump\t// in\n    tag_112:\n      mload(0x40)\n      dup1\n      swap2\n      sub\n      swap1\n      revert\n    tag_111:\n        /* \"contracts/TokenRegistery.sol\":2293:2298  false */\n      0x00\n        /* \"contracts/TokenRegistery.sol\":2271:2277  tokens */\n      0x00\n        /* \"contracts/TokenRegistery.sol\":2271:2281  tokens[id] */\n      0x00\n        /* \"contracts/TokenRegistery.sol\":2278:2280  id */\n      dup6\n        /* \"contracts/TokenRegistery.sol\":2271:2281  tokens[id] */\n      dup2\n      mstore\n      0x20\n      add\n      swap1\n      dup2\n      mstore\n      0x20\n      add\n      0x00\n      keccak256\n        /* \"contracts/TokenRegistery.sol\":2271:2290  tokens[id].isActive */\n      0x02\n      add\n      0x14\n        /* \"contracts/TokenRegistery.sol\":2271:2298  tokens[id].isActive = false */\n      0x0100\n      exp\n      dup2\n      sload\n      dup2\n      0xff\n      mul\n      not\n      and\n      swap1\n      dup4\n      iszero\n      iszero\n      mul\n      or\n      swap1\n      sstore\n      pop\n        /* \"contracts/TokenRegistery.sol\":2360:2370  msg.sender */\n      caller\n        /* \"contracts/TokenRegistery.sol\":2339:2371  TokenDeactivated(id, msg.sender) */\n      0xffffffffffffffffffffffffffffffffffffffff\n      and\n        /* \"contracts/TokenRegistery.sol\":2356:2358  id */\n      dup4\n        /* \"contracts/TokenRegistery.sol\":2339:2371  TokenDeactivated(id, msg.sender) */\n      0xc5bc70dcbaa7453c88acb052849608a31643ca7b9865b086176cfc8fa995720b\n      mload(0x40)\n      mload(0x40)\n      dup1\n      swap2\n      sub\n      swap1\n      log3\n        /* \"contracts/TokenRegistery.sol\":1191:1192  _ */\n      pop\n        /* \"contracts/TokenRegistery.sol\":2079:2379  function deactivateToken(uint256 id)... */\n      pop\n      pop\n      jump\t// out\n    tag_86:\n      mload(0x40)\n      dup1\n      0x80\n      add\n      0x40\n      mstore\n      dup1\n      0x60\n      dup2\n      mstore\n      0x20\n      add\n      0x60\n      dup2\n      mstore\n      0x20\n      add\n      and(0xffffffffffffffffffffffffffffffffffffffff, 0x00)\n      dup2\n      mstore\n      0x20\n      add\n      iszero(iszero(0x00))\n      dup2\n      mstore\n      pop\n      swap1\n      jump\t// out\n        /* \"#utility.yul\":7:82   */\n    tag_114:\n        /* \"#utility.yul\":40:46   */\n      0x00\n        /* \"#utility.yul\":73:75   */\n      0x40\n        /* \"#utility.yul\":67:76   */\n      mload\n        /* \"#utility.yul\":57:76   */\n      swap1\n      pop\n        /* \"#utility.yul\":7:82   */\n      swap1\n      jump\t// out\n        /* \"#utility.yul\":88:205   */\n    tag_115:\n        /* \"#utility.yul\":197:198   */\n      0x00\n        /* \"#utility.yul\":194:195   */\n      0x00\n        /* \"#utility.yul\":187:199   */\n      revert\n        /* \"#utility.yul\":211:328   */\n    tag_116:\n        /* \"#utility.yul\":320:321   */\n      0x00\n        /* \"#utility.yul\":317:318   */\n      0x00\n        /* \"#utility.yul\":310:322   */\n      revert\n        /* \"#utility.yul\":334:411   */\n    tag_117:\n        /* \"#utility.yul\":371:378   */\n      0x00\n        /* \"#utility.yul\":400:405   */\n      dup2\n        /* \"#utility.yul\":389:405   */\n      swap1\n      pop\n        /* \"#utility.yul\":334:411   */\n      swap2\n      swap1\n      pop\n      jump\t// out\n        /* \"#utility.yul\":417:539   */\n    tag_118:\n        /* \"#utility.yul\":490:514   */\n      tag_185\n        /* \"#utility.yul\":508:513   */\n      dup2\n        /* \"#utility.yul\":490:514   */\n      tag_117\n      jump\t// in\n    tag_185:\n        /* \"#utility.yul\":483:488   */\n      dup2\n        /* \"#utility.yul\":480:515   */\n      eq\n        /* \"#utility.yul\":470:533   */\n      tag_186\n      jumpi\n        /* \"#utility.yul\":529:530   */\n      0x00\n        /* \"#utility.yul\":526:527   */\n      0x00\n        /* \"#utility.yul\":519:531   */\n      revert\n        /* \"#utility.yul\":470:533   */\n    tag_186:\n        /* \"#utility.yul\":417:539   */\n      pop\n      jump\t// out\n        /* \"#utility.yul\":545:684   */\n    tag_119:\n        /* \"#utility.yul\":591:596   */\n      0x00\n        /* \"#utility.yul\":629:635   */\n      dup2\n        /* \"#utility.yul\":616:636   */\n      calldataload\n        /* \"#utility.yul\":607:636   */\n      swap1\n      pop\n        /* \"#utility.yul\":645:678   */\n      tag_188\n        /* \"#utility.yul\":672:677   */\n      dup2\n        /* \"#utility.yul\":645:678   */\n      tag_118\n      jump\t// in\n    tag_188:\n        /* \"#utility.yul\":545:684   */\n      swap3\n      swap2\n      pop\n      pop\n      jump\t// out\n        /* \"#utility.yul\":690:1019   */\n    tag_14:\n        /* \"#utility.yul\":749:755   */\n      0x00\n        /* \"#utility.yul\":798:800   */\n      0x20\n        /* \"#utility.yul\":786:795   */\n      dup3\n        /* \"#utility.yul\":777:784   */\n      dup5\n        /* \"#utility.yul\":773:796   */\n      sub\n        /* \"#utility.yul\":769:801   */\n      slt\n        /* \"#utility.yul\":766:885   */\n      iszero\n      tag_190\n      jumpi\n        /* \"#utility.yul\":804:883   */\n      tag_191\n      tag_115\n      jump\t// in\n    tag_191:\n        /* \"#utility.yul\":766:885   */\n    tag_190:\n        /* \"#utility.yul\":924:925   */\n      0x00\n        /* \"#utility.yul\":949:1002   */\n      tag_192\n        /* \"#utility.yul\":994:1001   */\n      dup5\n        /* \"#utility.yul\":985:991   */\n      dup3\n        /* \"#utility.yul\":974:983   */\n      dup6\n        /* \"#utility.yul\":970:992   */\n      add\n        /* \"#utility.yul\":949:1002   */\n      tag_119\n      jump\t// in\n    tag_192:\n        /* \"#utility.yul\":939:1002   */\n      swap2\n      pop\n        /* \"#utility.yul\":895:1012   */\n      pop\n        /* \"#utility.yul\":690:1019   */\n      swap3\n      swap2\n      pop\n      pop\n      jump\t// out\n        /* \"#utility.yul\":1025:1124   */\n    tag_120:\n        /* \"#utility.yul\":1077:1083   */\n      0x00\n        /* \"#utility.yul\":1111:1116   */\n      dup2\n        /* \"#utility.yul\":1105:1117   */\n      mload\n        /* \"#utility.yul\":1095:1117   */\n      swap1\n      pop\n        /* \"#utility.yul\":1025:1124   */\n      swap2\n      swap1\n      pop\n      jump\t// out\n        /* \"#utility.yul\":1130:1299   */\n    tag_121:\n        /* \"#utility.yul\":1214:1225   */\n      0x00\n        /* \"#utility.yul\":1248:1254   */\n      dup3\n        /* \"#utility.yul\":1243:1246   */\n      dup3\n        /* \"#utility.yul\":1236:1255   */\n      mstore\n        /* \"#utility.yul\":1288:1292   */\n      0x20\n        /* \"#utility.yul\":1283:1286   */\n      dup3\n        /* \"#utility.yul\":1279:1293   */\n      add\n        /* \"#utility.yul\":1264:1293   */\n      swap1\n      pop\n        /* \"#utility.yul\":1130:1299   */\n      swap3\n      swap2\n      pop\n      pop\n      jump\t// out\n        /* \"#utility.yul\":1305:1444   */\n    tag_122:\n        /* \"#utility.yul\":1394:1400   */\n      dup3\n        /* \"#utility.yul\":1389:1392   */\n      dup2\n        /* \"#utility.yul\":1384:1387   */\n      dup4\n        /* \"#utility.yul\":1378:1401   */\n      mcopy\n        /* \"#utility.yul\":1435:1436   */\n      0x00\n        /* \"#utility.yul\":1426:1432   */\n      dup4\n        /* \"#utility.yul\":1421:1424   */\n      dup4\n        /* \"#utility.yul\":1417:1433   */\n      add\n        /* \"#utility.yul\":1410:1437   */\n      mstore\n        /* \"#utility.yul\":1305:1444   */\n      pop\n      pop\n      pop\n      jump\t// out\n        /* \"#utility.yul\":1450:1552   */\n    tag_123:\n        /* \"#utility.yul\":1491:1497   */\n      0x00\n        /* \"#utility.yul\":1542:1544   */\n      0x1f\n        /* \"#utility.yul\":1538:1545   */\n      not\n        /* \"#utility.yul\":1533:1535   */\n      0x1f\n        /* \"#utility.yul\":1526:1531   */\n      dup4\n        /* \"#utility.yul\":1522:1536   */\n      add\n        /* \"#utility.yul\":1518:1546   */\n      and\n        /* \"#utility.yul\":1508:1546   */\n      swap1\n      pop\n        /* \"#utility.yul\":1450:1552   */\n      swap2\n      swap1\n      pop\n      jump\t// out\n        /* \"#utility.yul\":1558:1935   */\n    tag_124:\n        /* \"#utility.yul\":1646:1649   */\n      0x00\n        /* \"#utility.yul\":1674:1713   */\n      tag_198\n        /* \"#utility.yul\":1707:1712   */\n      dup3\n        /* \"#utility.yul\":1674:1713   */\n      tag_120\n      jump\t// in\n    tag_198:\n        /* \"#utility.yul\":1729:1800   */\n      tag_199\n        /* \"#utility.yul\":1793:1799   */\n      dup2\n        /* \"#utility.yul\":1788:1791   */\n      dup6\n        /* \"#utility.yul\":1729:1800   */\n      tag_121\n      jump\t// in\n    tag_199:\n        /* \"#utility.yul\":1722:1800   */\n      swap4\n      pop\n        /* \"#utility.yul\":1809:1874   */\n      tag_200\n        /* \"#utility.yul\":1867:1873   */\n      dup2\n        /* \"#utility.yul\":1862:1865   */\n      dup6\n        /* \"#utility.yul\":1855:1859   */\n      0x20\n        /* \"#utility.yul\":1848:1853   */\n      dup7\n        /* \"#utility.yul\":1844:1860   */\n      add\n        /* \"#utility.yul\":1809:1874   */\n      tag_122\n      jump\t// in\n    tag_200:\n        /* \"#utility.yul\":1899:1928   */\n      tag_201\n        /* \"#utility.yul\":1921:1927   */\n      dup2\n        /* \"#utility.yul\":1899:1928   */\n      tag_123\n      jump\t// in\n    tag_201:\n        /* \"#utility.yul\":1894:1897   */\n      dup5\n        /* \"#utility.yul\":1890:1929   */\n      add\n        /* \"#utility.yul\":1883:1929   */\n      swap2\n      pop\n        /* \"#utility.yul\":1650:1935   */\n      pop\n        /* \"#utility.yul\":1558:1935   */\n      swap3\n      swap2\n      pop\n      pop\n      jump\t// out\n        /* \"#utility.yul\":1941:2067   */\n    tag_125:\n        /* \"#utility.yul\":1978:1985   */\n      0x00\n        /* \"#utility.yul\":2018:2060   */\n      0xffffffffffffffffffffffffffffffffffffffff\n        /* \"#utility.yul\":2011:2016   */\n      dup3\n        /* \"#utility.yul\":2007:2061   */\n      and\n        /* \"#utility.yul\":1996:2061   */\n      swap1\n      pop\n        /* \"#utility.yul\":1941:2067   */\n      swap2\n      swap1\n      pop\n      jump\t// out\n        /* \"#utility.yul\":2073:2169   */\n    tag_126:\n        /* \"#utility.yul\":2110:2117   */\n      0x00\n        /* \"#utility.yul\":2139:2163   */\n      tag_204\n        /* \"#utility.yul\":2157:2162   */\n      dup3\n        /* \"#utility.yul\":2139:2163   */\n      tag_125\n      jump\t// in\n    tag_204:\n        /* \"#utility.yul\":2128:2163   */\n      swap1\n      pop\n        /* \"#utility.yul\":2073:2169   */\n      swap2\n      swap1\n      pop\n      jump\t// out\n        /* \"#utility.yul\":2175:2293   */\n    tag_127:\n        /* \"#utility.yul\":2262:2286   */\n      tag_206\n        /* \"#utility.yul\":2280:2285   */\n      dup2\n        /* \"#utility.yul\":2262:2286   */\n      tag_126\n      jump\t// in\n    tag_206:\n        /* \"#utility.yul\":2257:2260   */\n      dup3\n        /* \"#utility.yul\":2250:2287   */\n      mstore\n        /* \"#utility.yul\":2175:2293   */\n      pop\n      pop\n      jump\t// out\n        /* \"#utility.yul\":2299:2389   */\n    tag_128:\n        /* \"#utility.yul\":2333:2340   */\n      0x00\n        /* \"#utility.yul\":2376:2381   */\n      dup2\n        /* \"#utility.yul\":2369:2382   */\n      iszero\n        /* \"#utility.yul\":2362:2383   */\n      iszero\n        /* \"#utility.yul\":2351:2383   */\n      swap1\n      pop\n        /* \"#utility.yul\":2299:2389   */\n      swap2\n      swap1\n      pop\n      jump\t// out\n        /* \"#utility.yul\":2395:2504   */\n    tag_129:\n        /* \"#utility.yul\":2476:2497   */\n      tag_209\n        /* \"#utility.yul\":2491:2496   */\n      dup2\n        /* \"#utility.yul\":2476:2497   */\n      tag_128\n      jump\t// in\n    tag_209:\n        /* \"#utility.yul\":2471:2474   */\n      dup3\n        /* \"#utility.yul\":2464:2498   */\n      mstore\n        /* \"#utility.yul\":2395:2504   */\n      pop\n      pop\n      jump\t// out\n        /* \"#utility.yul\":2510:3233   */\n    tag_17:\n        /* \"#utility.yul\":2721:2725   */\n      0x00\n        /* \"#utility.yul\":2759:2762   */\n      0x80\n        /* \"#utility.yul\":2748:2757   */\n      dup3\n        /* \"#utility.yul\":2744:2763   */\n      add\n        /* \"#utility.yul\":2736:2763   */\n      swap1\n      pop\n        /* \"#utility.yul\":2809:2818   */\n      dup2\n        /* \"#utility.yul\":2803:2807   */\n      dup2\n        /* \"#utility.yul\":2799:2819   */\n      sub\n        /* \"#utility.yul\":2795:2796   */\n      0x00\n        /* \"#utility.yul\":2784:2793   */\n      dup4\n        /* \"#utility.yul\":2780:2797   */\n      add\n        /* \"#utility.yul\":2773:2820   */\n      mstore\n        /* \"#utility.yul\":2837:2915   */\n      tag_211\n        /* \"#utility.yul\":2910:2914   */\n      dup2\n        /* \"#utility.yul\":2901:2907   */\n      dup8\n        /* \"#utility.yul\":2837:2915   */\n      tag_124\n      jump\t// in\n    tag_211:\n        /* \"#utility.yul\":2829:2915   */\n      swap1\n      pop\n        /* \"#utility.yul\":2962:2971   */\n      dup2\n        /* \"#utility.yul\":2956:2960   */\n      dup2\n        /* \"#utility.yul\":2952:2972   */\n      sub\n        /* \"#utility.yul\":2947:2949   */\n      0x20\n        /* \"#utility.yul\":2936:2945   */\n      dup4\n        /* \"#utility.yul\":2932:2950   */\n      add\n        /* \"#utility.yul\":2925:2973   */\n      mstore\n        /* \"#utility.yul\":2990:3068   */\n      tag_212\n        /* \"#utility.yul\":3063:3067   */\n      dup2\n        /* \"#utility.yul\":3054:3060   */\n      dup7\n        /* \"#utility.yul\":2990:3068   */\n      tag_124\n      jump\t// in\n    tag_212:\n        /* \"#utility.yul\":2982:3068   */\n      swap1\n      pop\n        /* \"#utility.yul\":3078:3150   */\n      tag_213\n        /* \"#utility.yul\":3146:3148   */\n      0x40\n        /* \"#utility.yul\":3135:3144   */\n      dup4\n        /* \"#utility.yul\":3131:3149   */\n      add\n        /* \"#utility.yul\":3122:3128   */\n      dup6\n        /* \"#utility.yul\":3078:3150   */\n      tag_127\n      jump\t// in\n    tag_213:\n        /* \"#utility.yul\":3160:3226   */\n      tag_214\n        /* \"#utility.yul\":3222:3224   */\n      0x60\n        /* \"#utility.yul\":3211:3220   */\n      dup4\n        /* \"#utility.yul\":3207:3225   */\n      add\n        /* \"#utility.yul\":3198:3204   */\n      dup5\n        /* \"#utility.yul\":3160:3226   */\n      tag_129\n      jump\t// in\n    tag_214:\n        /* \"#utility.yul\":2510:3233   */\n      swap6\n      swap5\n      pop\n      pop\n      pop\n      pop\n      pop\n      jump\t// out\n        /* \"#utility.yul\":3239:3357   */\n    tag_130:\n        /* \"#utility.yul\":3326:3350   */\n      tag_216\n        /* \"#utility.yul\":3344:3349   */\n      dup2\n        /* \"#utility.yul\":3326:3350   */\n      tag_117\n      jump\t// in\n    tag_216:\n        /* \"#utility.yul\":3321:3324   */\n      dup3\n        /* \"#utility.yul\":3314:3351   */\n      mstore\n        /* \"#utility.yul\":3239:3357   */\n      pop\n      pop\n      jump\t// out\n        /* \"#utility.yul\":3363:3585   */\n    tag_21:\n        /* \"#utility.yul\":3456:3460   */\n      0x00\n        /* \"#utility.yul\":3494:3496   */\n      0x20\n        /* \"#utility.yul\":3483:3492   */\n      dup3\n        /* \"#utility.yul\":3479:3497   */\n      add\n        /* \"#utility.yul\":3471:3497   */\n      swap1\n      pop\n        /* \"#utility.yul\":3507:3578   */\n      tag_218\n        /* \"#utility.yul\":3575:3576   */\n      0x00\n        /* \"#utility.yul\":3564:3573   */\n      dup4\n        /* \"#utility.yul\":3560:3577   */\n      add\n        /* \"#utility.yul\":3551:3557   */\n      dup5\n        /* \"#utility.yul\":3507:3578   */\n      tag_130\n      jump\t// in\n    tag_218:\n        /* \"#utility.yul\":3363:3585   */\n      swap3\n      swap2\n      pop\n      pop\n      jump\t// out\n        /* \"#utility.yul\":3591:3801   */\n    tag_26:\n        /* \"#utility.yul\":3678:3682   */\n      0x00\n        /* \"#utility.yul\":3716:3718   */\n      0x20\n        /* \"#utility.yul\":3705:3714   */\n      dup3\n        /* \"#utility.yul\":3701:3719   */\n      add\n        /* \"#utility.yul\":3693:3719   */\n      swap1\n      pop\n        /* \"#utility.yul\":3729:3794   */\n      tag_220\n        /* \"#utility.yul\":3791:3792   */\n      0x00\n        /* \"#utility.yul\":3780:3789   */\n      dup4\n        /* \"#utility.yul\":3776:3793   */\n      add\n        /* \"#utility.yul\":3767:3773   */\n      dup5\n        /* \"#utility.yul\":3729:3794   */\n      tag_129\n      jump\t// in\n    tag_220:\n        /* \"#utility.yul\":3591:3801   */\n      swap3\n      swap2\n      pop\n      pop\n      jump\t// out\n        /* \"#utility.yul\":3807:3921   */\n    tag_131:\n        /* \"#utility.yul\":3874:3880   */\n      0x00\n        /* \"#utility.yul\":3908:3913   */\n      dup2\n        /* \"#utility.yul\":3902:3914   */\n      mload\n        /* \"#utility.yul\":3892:3914   */\n      swap1\n      pop\n        /* \"#utility.yul\":3807:3921   */\n      swap2\n      swap1\n      pop\n      jump\t// out\n        /* \"#utility.yul\":3927:4111   */\n    tag_132:\n        /* \"#utility.yul\":4026:4037   */\n      0x00\n        /* \"#utility.yul\":4060:4066   */\n      dup3\n        /* \"#utility.yul\":4055:4058   */\n      dup3\n        /* \"#utility.yul\":4048:4067   */\n      mstore\n        /* \"#utility.yul\":4100:4104   */\n      0x20\n        /* \"#utility.yul\":4095:4098   */\n      dup3\n        /* \"#utility.yul\":4091:4105   */\n      add\n        /* \"#utility.yul\":4076:4105   */\n      swap1\n      pop\n        /* \"#utility.yul\":3927:4111   */\n      swap3\n      swap2\n      pop\n      pop\n      jump\t// out\n        /* \"#utility.yul\":4117:4249   */\n    tag_133:\n        /* \"#utility.yul\":4184:4188   */\n      0x00\n        /* \"#utility.yul\":4207:4210   */\n      dup2\n        /* \"#utility.yul\":4199:4210   */\n      swap1\n      pop\n        /* \"#utility.yul\":4237:4241   */\n      0x20\n        /* \"#utility.yul\":4232:4235   */\n      dup3\n        /* \"#utility.yul\":4228:4242   */\n      add\n        /* \"#utility.yul\":4220:4242   */\n      swap1\n      pop\n        /* \"#utility.yul\":4117:4249   */\n      swap2\n      swap1\n      pop\n      jump\t// out\n        /* \"#utility.yul\":4255:4363   */\n    tag_134:\n        /* \"#utility.yul\":4332:4356   */\n      tag_225\n        /* \"#utility.yul\":4350:4355   */\n      dup2\n        /* \"#utility.yul\":4332:4356   */\n      tag_117\n      jump\t// in\n    tag_225:\n        /* \"#utility.yul\":4327:4330   */\n      dup3\n        /* \"#utility.yul\":4320:4357   */\n      mstore\n        /* \"#utility.yul\":4255:4363   */\n      pop\n      pop\n      jump\t// out\n        /* \"#utility.yul\":4369:4548   */\n    tag_135:\n        /* \"#utility.yul\":4438:4448   */\n      0x00\n        /* \"#utility.yul\":4459:4505   */\n      tag_227\n        /* \"#utility.yul\":4501:4504   */\n      dup4\n        /* \"#utility.yul\":4493:4499   */\n      dup4\n        /* \"#utility.yul\":4459:4505   */\n      tag_134\n      jump\t// in\n    tag_227:\n        /* \"#utility.yul\":4537:4541   */\n      0x20\n        /* \"#utility.yul\":4532:4535   */\n      dup4\n        /* \"#utility.yul\":4528:4542   */\n      add\n        /* \"#utility.yul\":4514:4542   */\n      swap1\n      pop\n        /* \"#utility.yul\":4369:4548   */\n      swap3\n      swap2\n      pop\n      pop\n      jump\t// out\n        /* \"#utility.yul\":4554:4667   */\n    tag_136:\n        /* \"#utility.yul\":4624:4628   */\n      0x00\n        /* \"#utility.yul\":4656:4660   */\n      0x20\n        /* \"#utility.yul\":4651:4654   */\n      dup3\n        /* \"#utility.yul\":4647:4661   */\n      add\n        /* \"#utility.yul\":4639:4661   */\n      swap1\n      pop\n        /* \"#utility.yul\":4554:4667   */\n      swap2\n      swap1\n      pop\n      jump\t// out\n        /* \"#utility.yul\":4703:5435   */\n    tag_137:\n        /* \"#utility.yul\":4822:4825   */\n      0x00\n        /* \"#utility.yul\":4851:4905   */\n      tag_230\n        /* \"#utility.yul\":4899:4904   */\n      dup3\n        /* \"#utility.yul\":4851:4905   */\n      tag_131\n      jump\t// in\n    tag_230:\n        /* \"#utility.yul\":4921:5007   */\n      tag_231\n        /* \"#utility.yul\":5000:5006   */\n      dup2\n        /* \"#utility.yul\":4995:4998   */\n      dup6\n        /* \"#utility.yul\":4921:5007   */\n      tag_132\n      jump\t// in\n    tag_231:\n        /* \"#utility.yul\":4914:5007   */\n      swap4\n      pop\n        /* \"#utility.yul\":5031:5087   */\n      tag_232\n        /* \"#utility.yul\":5081:5086   */\n      dup4\n        /* \"#utility.yul\":5031:5087   */\n      tag_133\n      jump\t// in\n    tag_232:\n        /* \"#utility.yul\":5110:5117   */\n      dup1\n        /* \"#utility.yul\":5141:5142   */\n      0x00\n        /* \"#utility.yul\":5126:5410   */\n    tag_233:\n        /* \"#utility.yul\":5151:5157   */\n      dup4\n        /* \"#utility.yul\":5148:5149   */\n      dup2\n        /* \"#utility.yul\":5145:5158   */\n      lt\n        /* \"#utility.yul\":5126:5410   */\n      iszero\n      tag_235\n      jumpi\n        /* \"#utility.yul\":5227:5233   */\n      dup2\n        /* \"#utility.yul\":5221:5234   */\n      mload\n        /* \"#utility.yul\":5254:5317   */\n      tag_236\n        /* \"#utility.yul\":5313:5316   */\n      dup9\n        /* \"#utility.yul\":5298:5311   */\n      dup3\n        /* \"#utility.yul\":5254:5317   */\n      tag_135\n      jump\t// in\n    tag_236:\n        /* \"#utility.yul\":5247:5317   */\n      swap8\n      pop\n        /* \"#utility.yul\":5340:5400   */\n      tag_237\n        /* \"#utility.yul\":5393:5399   */\n      dup4\n        /* \"#utility.yul\":5340:5400   */\n      tag_136\n      jump\t// in\n    tag_237:\n        /* \"#utility.yul\":5330:5400   */\n      swap3\n      pop\n        /* \"#utility.yul\":5186:5410   */\n      pop\n        /* \"#utility.yul\":5173:5174   */\n      0x01\n        /* \"#utility.yul\":5170:5171   */\n      dup2\n        /* \"#utility.yul\":5166:5175   */\n      add\n        /* \"#utility.yul\":5161:5175   */\n      swap1\n      pop\n        /* \"#utility.yul\":5126:5410   */\n      jump(tag_233)\n    tag_235:\n        /* \"#utility.yul\":5130:5144   */\n      pop\n        /* \"#utility.yul\":5426:5429   */\n      dup6\n        /* \"#utility.yul\":5419:5429   */\n      swap4\n      pop\n        /* \"#utility.yul\":4827:5435   */\n      pop\n      pop\n      pop\n        /* \"#utility.yul\":4703:5435   */\n      swap3\n      swap2\n      pop\n      pop\n      jump\t// out\n        /* \"#utility.yul\":5441:5814   */\n    tag_30:\n        /* \"#utility.yul\":5584:5588   */\n      0x00\n        /* \"#utility.yul\":5622:5624   */\n      0x20\n        /* \"#utility.yul\":5611:5620   */\n      dup3\n        /* \"#utility.yul\":5607:5625   */\n      add\n        /* \"#utility.yul\":5599:5625   */\n      swap1\n      pop\n        /* \"#utility.yul\":5671:5680   */\n      dup2\n        /* \"#utility.yul\":5665:5669   */\n      dup2\n        /* \"#utility.yul\":5661:5681   */\n      sub\n        /* \"#utility.yul\":5657:5658   */\n      0x00\n        /* \"#utility.yul\":5646:5655   */\n      dup4\n        /* \"#utility.yul\":5642:5659   */\n      add\n        /* \"#utility.yul\":5635:5682   */\n      mstore\n        /* \"#utility.yul\":5699:5807   */\n      tag_239\n        /* \"#utility.yul\":5802:5806   */\n      dup2\n        /* \"#utility.yul\":5793:5799   */\n      dup5\n        /* \"#utility.yul\":5699:5807   */\n      tag_137\n      jump\t// in\n    tag_239:\n        /* \"#utility.yul\":5691:5807   */\n      swap1\n      pop\n        /* \"#utility.yul\":5441:5814   */\n      swap3\n      swap2\n      pop\n      pop\n      jump\t// out\n        /* \"#utility.yul\":5820:5937   */\n    tag_138:\n        /* \"#utility.yul\":5929:5930   */\n      0x00\n        /* \"#utility.yul\":5926:5927   */\n      0x00\n        /* \"#utility.yul\":5919:5931   */\n      revert\n        /* \"#utility.yul\":5943:6060   */\n    tag_139:\n        /* \"#utility.yul\":6052:6053   */\n      0x00\n        /* \"#utility.yul\":6049:6050   */\n      0x00\n        /* \"#utility.yul\":6042:6054   */\n      revert\n        /* \"#utility.yul\":6066:6246   */\n    tag_140:\n        /* \"#utility.yul\":6114:6191   */\n      0x4e487b7100000000000000000000000000000000000000000000000000000000\n        /* \"#utility.yul\":6111:6112   */\n      0x00\n        /* \"#utility.yul\":6104:6192   */\n      mstore\n        /* \"#utility.yul\":6211:6215   */\n      0x41\n        /* \"#utility.yul\":6208:6209   */\n      0x04\n        /* \"#utility.yul\":6201:6216   */\n      mstore\n        /* \"#utility.yul\":6235:6239   */\n      0x24\n        /* \"#utility.yul\":6232:6233   */\n      0x00\n        /* \"#utility.yul\":6225:6240   */\n      revert\n        /* \"#utility.yul\":6252:6533   */\n    tag_141:\n        /* \"#utility.yul\":6335:6362   */\n      tag_244\n        /* \"#utility.yul\":6357:6361   */\n      dup3\n        /* \"#utility.yul\":6335:6362   */\n      tag_123\n      jump\t// in\n    tag_244:\n        /* \"#utility.yul\":6327:6333   */\n      dup2\n        /* \"#utility.yul\":6323:6363   */\n      add\n        /* \"#utility.yul\":6465:6471   */\n      dup2\n        /* \"#utility.yul\":6453:6463   */\n      dup2\n        /* \"#utility.yul\":6450:6472   */\n      lt\n        /* \"#utility.yul\":6429:6447   */\n      0xffffffffffffffff\n        /* \"#utility.yul\":6417:6427   */\n      dup3\n        /* \"#utility.yul\":6414:6448   */\n      gt\n        /* \"#utility.yul\":6411:6473   */\n      or\n        /* \"#utility.yul\":6408:6496   */\n      iszero\n      tag_245\n      jumpi\n        /* \"#utility.yul\":6476:6494   */\n      tag_246\n      tag_140\n      jump\t// in\n    tag_246:\n        /* \"#utility.yul\":6408:6496   */\n    tag_245:\n        /* \"#utility.yul\":6516:6526   */\n      dup1\n        /* \"#utility.yul\":6512:6514   */\n      0x40\n        /* \"#utility.yul\":6505:6527   */\n      mstore\n        /* \"#utility.yul\":6295:6533   */\n      pop\n        /* \"#utility.yul\":6252:6533   */\n      pop\n      pop\n      jump\t// out\n        /* \"#utility.yul\":6539:6668   */\n    tag_142:\n        /* \"#utility.yul\":6573:6579   */\n      0x00\n        /* \"#utility.yul\":6600:6620   */\n      tag_248\n      tag_114\n      jump\t// in\n    tag_248:\n        /* \"#utility.yul\":6590:6620   */\n      swap1\n      pop\n        /* \"#utility.yul\":6629:6662   */\n      tag_249\n        /* \"#utility.yul\":6657:6661   */\n      dup3\n        /* \"#utility.yul\":6649:6655   */\n      dup3\n        /* \"#utility.yul\":6629:6662   */\n      tag_141\n      jump\t// in\n    tag_249:\n        /* \"#utility.yul\":6539:6668   */\n      swap2\n      swap1\n      pop\n      jump\t// out\n        /* \"#utility.yul\":6674:6982   */\n    tag_143:\n        /* \"#utility.yul\":6736:6740   */\n      0x00\n        /* \"#utility.yul\":6826:6844   */\n      0xffffffffffffffff\n        /* \"#utility.yul\":6818:6824   */\n      dup3\n        /* \"#utility.yul\":6815:6845   */\n      gt\n        /* \"#utility.yul\":6812:6868   */\n      iszero\n      tag_251\n      jumpi\n        /* \"#utility.yul\":6848:6866   */\n      tag_252\n      tag_140\n      jump\t// in\n    tag_252:\n        /* \"#utility.yul\":6812:6868   */\n    tag_251:\n        /* \"#utility.yul\":6886:6915   */\n      tag_253\n        /* \"#utility.yul\":6908:6914   */\n      dup3\n        /* \"#utility.yul\":6886:6915   */\n      tag_123\n      jump\t// in\n    tag_253:\n        /* \"#utility.yul\":6878:6915   */\n      swap1\n      pop\n        /* \"#utility.yul\":6970:6974   */\n      0x20\n        /* \"#utility.yul\":6964:6968   */\n      dup2\n        /* \"#utility.yul\":6960:6975   */\n      add\n        /* \"#utility.yul\":6952:6975   */\n      swap1\n      pop\n        /* \"#utility.yul\":6674:6982   */\n      swap2\n      swap1\n      pop\n      jump\t// out\n        /* \"#utility.yul\":6988:7136   */\n    tag_144:\n        /* \"#utility.yul\":7086:7092   */\n      dup3\n        /* \"#utility.yul\":7081:7084   */\n      dup2\n        /* \"#utility.yul\":7076:7079   */\n      dup4\n        /* \"#utility.yul\":7063:7093   */\n      calldatacopy\n        /* \"#utility.yul\":7127:7128   */\n      0x00\n        /* \"#utility.yul\":7118:7124   */\n      dup4\n        /* \"#utility.yul\":7113:7116   */\n      dup4\n        /* \"#utility.yul\":7109:7125   */\n      add\n        /* \"#utility.yul\":7102:7129   */\n      mstore\n        /* \"#utility.yul\":6988:7136   */\n      pop\n      pop\n      pop\n      jump\t// out\n        /* \"#utility.yul\":7142:7567   */\n    tag_145:\n        /* \"#utility.yul\":7220:7225   */\n      0x00\n        /* \"#utility.yul\":7245:7311   */\n      tag_256\n        /* \"#utility.yul\":7261:7310   */\n      tag_257\n        /* \"#utility.yul\":7303:7309   */\n      dup5\n        /* \"#utility.yul\":7261:7310   */\n      tag_143\n      jump\t// in\n    tag_257:\n        /* \"#utility.yul\":7245:7311   */\n      tag_142\n      jump\t// in\n    tag_256:\n        /* \"#utility.yul\":7236:7311   */\n      swap1\n      pop\n        /* \"#utility.yul\":7334:7340   */\n      dup3\n        /* \"#utility.yul\":7327:7332   */\n      dup2\n        /* \"#utility.yul\":7320:7341   */\n      mstore\n        /* \"#utility.yul\":7372:7376   */\n      0x20\n        /* \"#utility.yul\":7365:7370   */\n      dup2\n        /* \"#utility.yul\":7361:7377   */\n      add\n        /* \"#utility.yul\":7410:7413   */\n      dup5\n        /* \"#utility.yul\":7401:7407   */\n      dup5\n        /* \"#utility.yul\":7396:7399   */\n      dup5\n        /* \"#utility.yul\":7392:7408   */\n      add\n        /* \"#utility.yul\":7389:7414   */\n      gt\n        /* \"#utility.yul\":7386:7498   */\n      iszero\n      tag_258\n      jumpi\n        /* \"#utility.yul\":7417:7496   */\n      tag_259\n      tag_139\n      jump\t// in\n    tag_259:\n        /* \"#utility.yul\":7386:7498   */\n    tag_258:\n        /* \"#utility.yul\":7507:7561   */\n      tag_260\n        /* \"#utility.yul\":7554:7560   */\n      dup5\n        /* \"#utility.yul\":7549:7552   */\n      dup3\n        /* \"#utility.yul\":7544:7547   */\n      dup6\n        /* \"#utility.yul\":7507:7561   */\n      tag_144\n      jump\t// in\n    tag_260:\n        /* \"#utility.yul\":7226:7567   */\n      pop\n        /* \"#utility.yul\":7142:7567   */\n      swap4\n      swap3\n      pop\n      pop\n      pop\n      jump\t// out\n        /* \"#utility.yul\":7587:7927   */\n    tag_146:\n        /* \"#utility.yul\":7643:7648   */\n      0x00\n        /* \"#utility.yul\":7692:7695   */\n      dup3\n        /* \"#utility.yul\":7685:7689   */\n      0x1f\n        /* \"#utility.yul\":7677:7683   */\n      dup4\n        /* \"#utility.yul\":7673:7690   */\n      add\n        /* \"#utility.yul\":7669:7696   */\n      slt\n        /* \"#utility.yul\":7659:7781   */\n      tag_262\n      jumpi\n        /* \"#utility.yul\":7700:7779   */\n      tag_263\n      tag_138\n      jump\t// in\n    tag_263:\n        /* \"#utility.yul\":7659:7781   */\n    tag_262:\n        /* \"#utility.yul\":7817:7823   */\n      dup2\n        /* \"#utility.yul\":7804:7824   */\n      calldataload\n        /* \"#utility.yul\":7842:7921   */\n      tag_264\n        /* \"#utility.yul\":7917:7920   */\n      dup5\n        /* \"#utility.yul\":7909:7915   */\n      dup3\n        /* \"#utility.yul\":7902:7906   */\n      0x20\n        /* \"#utility.yul\":7894:7900   */\n      dup7\n        /* \"#utility.yul\":7890:7907   */\n      add\n        /* \"#utility.yul\":7842:7921   */\n      tag_145\n      jump\t// in\n    tag_264:\n        /* \"#utility.yul\":7833:7921   */\n      swap2\n      pop\n        /* \"#utility.yul\":7649:7927   */\n      pop\n        /* \"#utility.yul\":7587:7927   */\n      swap3\n      swap2\n      pop\n      pop\n      jump\t// out\n        /* \"#utility.yul\":7933:8767   */\n    tag_33:\n        /* \"#utility.yul\":8021:8027   */\n      0x00\n        /* \"#utility.yul\":8029:8035   */\n      0x00\n        /* \"#utility.yul\":8078:8080   */\n      0x40\n        /* \"#utility.yul\":8066:8075   */\n      dup4\n        /* \"#utility.yul\":8057:8064   */\n      dup6\n        /* \"#utility.yul\":8053:8076   */\n      sub\n        /* \"#utility.yul\":8049:8081   */\n      slt\n        /* \"#utility.yul\":8046:8165   */\n      iszero\n      tag_266\n      jumpi\n        /* \"#utility.yul\":8084:8163   */\n      tag_267\n      tag_115\n      jump\t// in\n    tag_267:\n        /* \"#utility.yul\":8046:8165   */\n    tag_266:\n        /* \"#utility.yul\":8232:8233   */\n      0x00\n        /* \"#utility.yul\":8221:8230   */\n      dup4\n        /* \"#utility.yul\":8217:8234   */\n      add\n        /* \"#utility.yul\":8204:8235   */\n      calldataload\n        /* \"#utility.yul\":8262:8280   */\n      0xffffffffffffffff\n        /* \"#utility.yul\":8254:8260   */\n      dup2\n        /* \"#utility.yul\":8251:8281   */\n      gt\n        /* \"#utility.yul\":8248:8365   */\n      iszero\n      tag_268\n      jumpi\n        /* \"#utility.yul\":8284:8363   */\n      tag_269\n      tag_116\n      jump\t// in\n    tag_269:\n        /* \"#utility.yul\":8248:8365   */\n    tag_268:\n        /* \"#utility.yul\":8389:8452   */\n      tag_270\n        /* \"#utility.yul\":8444:8451   */\n      dup6\n        /* \"#utility.yul\":8435:8441   */\n      dup3\n        /* \"#utility.yul\":8424:8433   */\n      dup7\n        /* \"#utility.yul\":8420:8442   */\n      add\n        /* \"#utility.yul\":8389:8452   */\n      tag_146\n      jump\t// in\n    tag_270:\n        /* \"#utility.yul\":8379:8452   */\n      swap3\n      pop\n        /* \"#utility.yul\":8175:8462   */\n      pop\n        /* \"#utility.yul\":8529:8531   */\n      0x20\n        /* \"#utility.yul\":8518:8527   */\n      dup4\n        /* \"#utility.yul\":8514:8532   */\n      add\n        /* \"#utility.yul\":8501:8533   */\n      calldataload\n        /* \"#utility.yul\":8560:8578   */\n      0xffffffffffffffff\n        /* \"#utility.yul\":8552:8558   */\n      dup2\n        /* \"#utility.yul\":8549:8579   */\n      gt\n        /* \"#utility.yul\":8546:8663   */\n      iszero\n      tag_271\n      jumpi\n        /* \"#utility.yul\":8582:8661   */\n      tag_272\n      tag_116\n      jump\t// in\n    tag_272:\n        /* \"#utility.yul\":8546:8663   */\n    tag_271:\n        /* \"#utility.yul\":8687:8750   */\n      tag_273\n        /* \"#utility.yul\":8742:8749   */\n      dup6\n        /* \"#utility.yul\":8733:8739   */\n      dup3\n        /* \"#utility.yul\":8722:8731   */\n      dup7\n        /* \"#utility.yul\":8718:8740   */\n      add\n        /* \"#utility.yul\":8687:8750   */\n      tag_146\n      jump\t// in\n    tag_273:\n        /* \"#utility.yul\":8677:8750   */\n      swap2\n      pop\n        /* \"#utility.yul\":8472:8760   */\n      pop\n        /* \"#utility.yul\":7933:8767   */\n      swap3\n      pop\n      swap3\n      swap1\n      pop\n      jump\t// out\n        /* \"#utility.yul\":8773:8932   */\n    tag_147:\n        /* \"#utility.yul\":8847:8858   */\n      0x00\n        /* \"#utility.yul\":8881:8887   */\n      dup3\n        /* \"#utility.yul\":8876:8879   */\n      dup3\n        /* \"#utility.yul\":8869:8888   */\n      mstore\n        /* \"#utility.yul\":8921:8925   */\n      0x20\n        /* \"#utility.yul\":8916:8919   */\n      dup3\n        /* \"#utility.yul\":8912:8926   */\n      add\n        /* \"#utility.yul\":8897:8926   */\n      swap1\n      pop\n        /* \"#utility.yul\":8773:8932   */\n      swap3\n      swap2\n      pop\n      pop\n      jump\t// out\n        /* \"#utility.yul\":8938:9295   */\n    tag_148:\n        /* \"#utility.yul\":9016:9019   */\n      0x00\n        /* \"#utility.yul\":9044:9083   */\n      tag_276\n        /* \"#utility.yul\":9077:9082   */\n      dup3\n        /* \"#utility.yul\":9044:9083   */\n      tag_120\n      jump\t// in\n    tag_276:\n        /* \"#utility.yul\":9099:9160   */\n      tag_277\n        /* \"#utility.yul\":9153:9159   */\n      dup2\n        /* \"#utility.yul\":9148:9151   */\n      dup6\n        /* \"#utility.yul\":9099:9160   */\n      tag_147\n      jump\t// in\n    tag_277:\n        /* \"#utility.yul\":9092:9160   */\n      swap4\n      pop\n        /* \"#utility.yul\":9169:9234   */\n      tag_278\n        /* \"#utility.yul\":9227:9233   */\n      dup2\n        /* \"#utility.yul\":9222:9225   */\n      dup6\n        /* \"#utility.yul\":9215:9219   */\n      0x20\n        /* \"#utility.yul\":9208:9213   */\n      dup7\n        /* \"#utility.yul\":9204:9220   */\n      add\n        /* \"#utility.yul\":9169:9234   */\n      tag_122\n      jump\t// in\n    tag_278:\n        /* \"#utility.yul\":9259:9288   */\n      tag_279\n        /* \"#utility.yul\":9281:9287   */\n      dup2\n        /* \"#utility.yul\":9259:9288   */\n      tag_123\n      jump\t// in\n    tag_279:\n        /* \"#utility.yul\":9254:9257   */\n      dup5\n        /* \"#utility.yul\":9250:9289   */\n      add\n        /* \"#utility.yul\":9243:9289   */\n      swap2\n      pop\n        /* \"#utility.yul\":9020:9295   */\n      pop\n        /* \"#utility.yul\":8938:9295   */\n      swap3\n      swap2\n      pop\n      pop\n      jump\t// out\n        /* \"#utility.yul\":9301:9409   */\n    tag_149:\n        /* \"#utility.yul\":9378:9402   */\n      tag_281\n        /* \"#utility.yul\":9396:9401   */\n      dup2\n        /* \"#utility.yul\":9378:9402   */\n      tag_126\n      jump\t// in\n    tag_281:\n        /* \"#utility.yul\":9373:9376   */\n      dup3\n        /* \"#utility.yul\":9366:9403   */\n      mstore\n        /* \"#utility.yul\":9301:9409   */\n      pop\n      pop\n      jump\t// out\n        /* \"#utility.yul\":9415:9514   */\n    tag_150:\n        /* \"#utility.yul\":9486:9507   */\n      tag_283\n        /* \"#utility.yul\":9501:9506   */\n      dup2\n        /* \"#utility.yul\":9486:9507   */\n      tag_128\n      jump\t// in\n    tag_283:\n        /* \"#utility.yul\":9481:9484   */\n      dup3\n        /* \"#utility.yul\":9474:9508   */\n      mstore\n        /* \"#utility.yul\":9415:9514   */\n      pop\n      pop\n      jump\t// out\n        /* \"#utility.yul\":9584:10602   */\n    tag_151:\n        /* \"#utility.yul\":9695:9698   */\n      0x00\n        /* \"#utility.yul\":9731:9735   */\n      0x80\n        /* \"#utility.yul\":9726:9729   */\n      dup4\n        /* \"#utility.yul\":9722:9736   */\n      add\n        /* \"#utility.yul\":9818:9822   */\n      0x00\n        /* \"#utility.yul\":9811:9816   */\n      dup4\n        /* \"#utility.yul\":9807:9823   */\n      add\n        /* \"#utility.yul\":9801:9824   */\n      mload\n        /* \"#utility.yul\":9871:9874   */\n      dup5\n        /* \"#utility.yul\":9865:9869   */\n      dup3\n        /* \"#utility.yul\":9861:9875   */\n      sub\n        /* \"#utility.yul\":9854:9858   */\n      0x00\n        /* \"#utility.yul\":9849:9852   */\n      dup7\n        /* \"#utility.yul\":9845:9859   */\n      add\n        /* \"#utility.yul\":9838:9876   */\n      mstore\n        /* \"#utility.yul\":9897:9970   */\n      tag_285\n        /* \"#utility.yul\":9965:9969   */\n      dup3\n        /* \"#utility.yul\":9951:9963   */\n      dup3\n        /* \"#utility.yul\":9897:9970   */\n      tag_148\n      jump\t// in\n    tag_285:\n        /* \"#utility.yul\":9889:9970   */\n      swap2\n      pop\n        /* \"#utility.yul\":9746:9981   */\n      pop\n        /* \"#utility.yul\":10065:10069   */\n      0x20\n        /* \"#utility.yul\":10058:10063   */\n      dup4\n        /* \"#utility.yul\":10054:10070   */\n      add\n        /* \"#utility.yul\":10048:10071   */\n      mload\n        /* \"#utility.yul\":10118:10121   */\n      dup5\n        /* \"#utility.yul\":10112:10116   */\n      dup3\n        /* \"#utility.yul\":10108:10122   */\n      sub\n        /* \"#utility.yul\":10101:10105   */\n      0x20\n        /* \"#utility.yul\":10096:10099   */\n      dup7\n        /* \"#utility.yul\":10092:10106   */\n      add\n        /* \"#utility.yul\":10085:10123   */\n      mstore\n        /* \"#utility.yul\":10144:10217   */\n      tag_286\n        /* \"#utility.yul\":10212:10216   */\n      dup3\n        /* \"#utility.yul\":10198:10210   */\n      dup3\n        /* \"#utility.yul\":10144:10217   */\n      tag_148\n      jump\t// in\n    tag_286:\n        /* \"#utility.yul\":10136:10217   */\n      swap2\n      pop\n        /* \"#utility.yul\":9991:10228   */\n      pop\n        /* \"#utility.yul\":10311:10315   */\n      0x40\n        /* \"#utility.yul\":10304:10309   */\n      dup4\n        /* \"#utility.yul\":10300:10316   */\n      add\n        /* \"#utility.yul\":10294:10317   */\n      mload\n        /* \"#utility.yul\":10330:10393   */\n      tag_287\n        /* \"#utility.yul\":10387:10391   */\n      0x40\n        /* \"#utility.yul\":10382:10385   */\n      dup7\n        /* \"#utility.yul\":10378:10392   */\n      add\n        /* \"#utility.yul\":10364:10376   */\n      dup3\n        /* \"#utility.yul\":10330:10393   */\n      tag_149\n      jump\t// in\n    tag_287:\n        /* \"#utility.yul\":10238:10403   */\n      pop\n        /* \"#utility.yul\":10489:10493   */\n      0x60\n        /* \"#utility.yul\":10482:10487   */\n      dup4\n        /* \"#utility.yul\":10478:10494   */\n      add\n        /* \"#utility.yul\":10472:10495   */\n      mload\n        /* \"#utility.yul\":10508:10565   */\n      tag_288\n        /* \"#utility.yul\":10559:10563   */\n      0x60\n        /* \"#utility.yul\":10554:10557   */\n      dup7\n        /* \"#utility.yul\":10550:10564   */\n      add\n        /* \"#utility.yul\":10536:10548   */\n      dup3\n        /* \"#utility.yul\":10508:10565   */\n      tag_150\n      jump\t// in\n    tag_288:\n        /* \"#utility.yul\":10413:10575   */\n      pop\n        /* \"#utility.yul\":10592:10596   */\n      dup1\n        /* \"#utility.yul\":10585:10596   */\n      swap2\n      pop\n        /* \"#utility.yul\":9700:10602   */\n      pop\n        /* \"#utility.yul\":9584:10602   */\n      swap3\n      swap2\n      pop\n      pop\n      jump\t// out\n        /* \"#utility.yul\":10608:10965   */\n    tag_43:\n        /* \"#utility.yul\":10743:10747   */\n      0x00\n        /* \"#utility.yul\":10781:10783   */\n      0x20\n        /* \"#utility.yul\":10770:10779   */\n      dup3\n        /* \"#utility.yul\":10766:10784   */\n      add\n        /* \"#utility.yul\":10758:10784   */\n      swap1\n      pop\n        /* \"#utility.yul\":10830:10839   */\n      dup2\n        /* \"#utility.yul\":10824:10828   */\n      dup2\n        /* \"#utility.yul\":10820:10840   */\n      sub\n        /* \"#utility.yul\":10816:10817   */\n      0x00\n        /* \"#utility.yul\":10805:10814   */\n      dup4\n        /* \"#utility.yul\":10801:10818   */\n      add\n        /* \"#utility.yul\":10794:10841   */\n      mstore\n        /* \"#utility.yul\":10858:10958   */\n      tag_290\n        /* \"#utility.yul\":10953:10957   */\n      dup2\n        /* \"#utility.yul\":10944:10950   */\n      dup5\n        /* \"#utility.yul\":10858:10958   */\n      tag_151\n      jump\t// in\n    tag_290:\n        /* \"#utility.yul\":10850:10958   */\n      swap1\n      pop\n        /* \"#utility.yul\":10608:10965   */\n      swap3\n      swap2\n      pop\n      pop\n      jump\t// out\n        /* \"#utility.yul\":10971:11151   */\n    tag_152:\n        /* \"#utility.yul\":11019:11096   */\n      0x4e487b7100000000000000000000000000000000000000000000000000000000\n        /* \"#utility.yul\":11016:11017   */\n      0x00\n        /* \"#utility.yul\":11009:11097   */\n      mstore\n        /* \"#utility.yul\":11116:11120   */\n      0x22\n        /* \"#utility.yul\":11113:11114   */\n      0x04\n        /* \"#utility.yul\":11106:11121   */\n      mstore\n        /* \"#utility.yul\":11140:11144   */\n      0x24\n        /* \"#utility.yul\":11137:11138   */\n      0x00\n        /* \"#utility.yul\":11130:11145   */\n      revert\n        /* \"#utility.yul\":11157:11477   */\n    tag_48:\n        /* \"#utility.yul\":11201:11207   */\n      0x00\n        /* \"#utility.yul\":11238:11239   */\n      0x02\n        /* \"#utility.yul\":11232:11236   */\n      dup3\n        /* \"#utility.yul\":11228:11240   */\n      div\n        /* \"#utility.yul\":11218:11240   */\n      swap1\n      pop\n        /* \"#utility.yul\":11285:11286   */\n      0x01\n        /* \"#utility.yul\":11279:11283   */\n      dup3\n        /* \"#utility.yul\":11275:11287   */\n      and\n        /* \"#utility.yul\":11306:11324   */\n      dup1\n        /* \"#utility.yul\":11296:11377   */\n      tag_293\n      jumpi\n        /* \"#utility.yul\":11362:11366   */\n      0x7f\n        /* \"#utility.yul\":11354:11360   */\n      dup3\n        /* \"#utility.yul\":11350:11367   */\n      and\n        /* \"#utility.yul\":11340:11367   */\n      swap2\n      pop\n        /* \"#utility.yul\":11296:11377   */\n    tag_293:\n        /* \"#utility.yul\":11424:11426   */\n      0x20\n        /* \"#utility.yul\":11416:11422   */\n      dup3\n        /* \"#utility.yul\":11413:11427   */\n      lt\n        /* \"#utility.yul\":11393:11411   */\n      dup2\n        /* \"#utility.yul\":11390:11428   */\n      sub\n        /* \"#utility.yul\":11387:11471   */\n      tag_294\n      jumpi\n        /* \"#utility.yul\":11443:11461   */\n      tag_295\n      tag_152\n      jump\t// in\n    tag_295:\n        /* \"#utility.yul\":11387:11471   */\n    tag_294:\n        /* \"#utility.yul\":11208:11477   */\n      pop\n        /* \"#utility.yul\":11157:11477   */\n      swap2\n      swap1\n      pop\n      jump\t// out\n        /* \"#utility.yul\":11483:11653   */\n    tag_153:\n        /* \"#utility.yul\":11623:11645   */\n      0x546f6b656e20646f6573206e6f74206578697374000000000000000000000000\n        /* \"#utility.yul\":11619:11620   */\n      0x00\n        /* \"#utility.yul\":11611:11617   */\n      dup3\n        /* \"#utility.yul\":11607:11621   */\n      add\n        /* \"#utility.yul\":11600:11646   */\n      mstore\n        /* \"#utility.yul\":11483:11653   */\n      pop\n      jump\t// out\n        /* \"#utility.yul\":11659:12025   */\n    tag_154:\n        /* \"#utility.yul\":11801:11804   */\n      0x00\n        /* \"#utility.yul\":11822:11889   */\n      tag_298\n        /* \"#utility.yul\":11886:11888   */\n      0x14\n        /* \"#utility.yul\":11881:11884   */\n      dup4\n        /* \"#utility.yul\":11822:11889   */\n      tag_121\n      jump\t// in\n    tag_298:\n        /* \"#utility.yul\":11815:11889   */\n      swap2\n      pop\n        /* \"#utility.yul\":11898:11991   */\n      tag_299\n        /* \"#utility.yul\":11987:11990   */\n      dup3\n        /* \"#utility.yul\":11898:11991   */\n      tag_153\n      jump\t// in\n    tag_299:\n        /* \"#utility.yul\":12016:12018   */\n      0x20\n        /* \"#utility.yul\":12011:12014   */\n      dup3\n        /* \"#utility.yul\":12007:12019   */\n      add\n        /* \"#utility.yul\":12000:12019   */\n      swap1\n      pop\n        /* \"#utility.yul\":11659:12025   */\n      swap2\n      swap1\n      pop\n      jump\t// out\n        /* \"#utility.yul\":12031:12450   */\n    tag_63:\n        /* \"#utility.yul\":12197:12201   */\n      0x00\n        /* \"#utility.yul\":12235:12237   */\n      0x20\n        /* \"#utility.yul\":12224:12233   */\n      dup3\n        /* \"#utility.yul\":12220:12238   */\n      add\n        /* \"#utility.yul\":12212:12238   */\n      swap1\n      pop\n        /* \"#utility.yul\":12284:12293   */\n      dup2\n        /* \"#utility.yul\":12278:12282   */\n      dup2\n        /* \"#utility.yul\":12274:12294   */\n      sub\n        /* \"#utility.yul\":12270:12271   */\n      0x00\n        /* \"#utility.yul\":12259:12268   */\n      dup4\n        /* \"#utility.yul\":12255:12272   */\n      add\n        /* \"#utility.yul\":12248:12295   */\n      mstore\n        /* \"#utility.yul\":12312:12443   */\n      tag_301\n        /* \"#utility.yul\":12438:12442   */\n      dup2\n        /* \"#utility.yul\":12312:12443   */\n      tag_154\n      jump\t// in\n    tag_301:\n        /* \"#utility.yul\":12304:12443   */\n      swap1\n      pop\n        /* \"#utility.yul\":12031:12450   */\n      swap2\n      swap1\n      pop\n      jump\t// out\n        /* \"#utility.yul\":12456:12632   */\n    tag_155:\n        /* \"#utility.yul\":12596:12624   */\n      0x546f6b656e206e616d652063616e6e6f7420626520656d707479000000000000\n        /* \"#utility.yul\":12592:12593   */\n      0x00\n        /* \"#utility.yul\":12584:12590   */\n      dup3\n        /* \"#utility.yul\":12580:12594   */\n      add\n        /* \"#utility.yul\":12573:12625   */\n      mstore\n        /* \"#utility.yul\":12456:12632   */\n      pop\n      jump\t// out\n        /* \"#utility.yul\":12638:13004   */\n    tag_156:\n        /* \"#utility.yul\":12780:12783   */\n      0x00\n        /* \"#utility.yul\":12801:12868   */\n      tag_304\n        /* \"#utility.yul\":12865:12867   */\n      0x1a\n        /* \"#utility.yul\":12860:12863   */\n      dup4\n        /* \"#utility.yul\":12801:12868   */\n      tag_121\n      jump\t// in\n    tag_304:\n        /* \"#utility.yul\":12794:12868   */\n      swap2\n      pop\n        /* \"#utility.yul\":12877:12970   */\n      tag_305\n        /* \"#utility.yul\":12966:12969   */\n      dup3\n        /* \"#utility.yul\":12877:12970   */\n      tag_155\n      jump\t// in\n    tag_305:\n        /* \"#utility.yul\":12995:12997   */\n      0x20\n        /* \"#utility.yul\":12990:12993   */\n      dup3\n        /* \"#utility.yul\":12986:12998   */\n      add\n        /* \"#utility.yul\":12979:12998   */\n      swap1\n      pop\n        /* \"#utility.yul\":12638:13004   */\n      swap2\n      swap1\n      pop\n      jump\t// out\n        /* \"#utility.yul\":13010:13429   */\n    tag_71:\n        /* \"#utility.yul\":13176:13180   */\n      0x00\n        /* \"#utility.yul\":13214:13216   */\n      0x20\n        /* \"#utility.yul\":13203:13212   */\n      dup3\n        /* \"#utility.yul\":13199:13217   */\n      add\n        /* \"#utility.yul\":13191:13217   */\n      swap1\n      pop\n        /* \"#utility.yul\":13263:13272   */\n      dup2\n        /* \"#utility.yul\":13257:13261   */\n      dup2\n        /* \"#utility.yul\":13253:13273   */\n      sub\n        /* \"#utility.yul\":13249:13250   */\n      0x00\n        /* \"#utility.yul\":13238:13247   */\n      dup4\n        /* \"#utility.yul\":13234:13251   */\n      add\n        /* \"#utility.yul\":13227:13274   */\n      mstore\n        /* \"#utility.yul\":13291:13422   */\n      tag_307\n        /* \"#utility.yul\":13417:13421   */\n      dup2\n        /* \"#utility.yul\":13291:13422   */\n      tag_156\n      jump\t// in\n    tag_307:\n        /* \"#utility.yul\":13283:13422   */\n      swap1\n      pop\n        /* \"#utility.yul\":13010:13429   */\n      swap2\n      swap1\n      pop\n      jump\t// out\n        /* \"#utility.yul\":13435:13613   */\n    tag_157:\n        /* \"#utility.yul\":13575:13605   */\n      0x546f6b656e2073796d626f6c2063616e6e6f7420626520656d70747900000000\n        /* \"#utility.yul\":13571:13572   */\n      0x00\n        /* \"#utility.yul\":13563:13569   */\n      dup3\n        /* \"#utility.yul\":13559:13573   */\n      add\n        /* \"#utility.yul\":13552:13606   */\n      mstore\n        /* \"#utility.yul\":13435:13613   */\n      pop\n      jump\t// out\n        /* \"#utility.yul\":13619:13985   */\n    tag_158:\n        /* \"#utility.yul\":13761:13764   */\n      0x00\n        /* \"#utility.yul\":13782:13849   */\n      tag_310\n        /* \"#utility.yul\":13846:13848   */\n      0x1c\n        /* \"#utility.yul\":13841:13844   */\n      dup4\n        /* \"#utility.yul\":13782:13849   */\n      tag_121\n      jump\t// in\n    tag_310:\n        /* \"#utility.yul\":13775:13849   */\n      swap2\n      pop\n        /* \"#utility.yul\":13858:13951   */\n      tag_311\n        /* \"#utility.yul\":13947:13950   */\n      dup3\n        /* \"#utility.yul\":13858:13951   */\n      tag_157\n      jump\t// in\n    tag_311:\n        /* \"#utility.yul\":13976:13978   */\n      0x20\n        /* \"#utility.yul\":13971:13974   */\n      dup3\n        /* \"#utility.yul\":13967:13979   */\n      add\n        /* \"#utility.yul\":13960:13979   */\n      swap1\n      pop\n        /* \"#utility.yul\":13619:13985   */\n      swap2\n      swap1\n      pop\n      jump\t// out\n        /* \"#utility.yul\":13991:14410   */\n    tag_74:\n        /* \"#utility.yul\":14157:14161   */\n      0x00\n        /* \"#utility.yul\":14195:14197   */\n      0x20\n        /* \"#utility.yul\":14184:14193   */\n      dup3\n        /* \"#utility.yul\":14180:14198   */\n      add\n        /* \"#utility.yul\":14172:14198   */\n      swap1\n      pop\n        /* \"#utility.yul\":14244:14253   */\n      dup2\n        /* \"#utility.yul\":14238:14242   */\n      dup2\n        /* \"#utility.yul\":14234:14254   */\n      sub\n        /* \"#utility.yul\":14230:14231   */\n      0x00\n        /* \"#utility.yul\":14219:14228   */\n      dup4\n        /* \"#utility.yul\":14215:14232   */\n      add\n        /* \"#utility.yul\":14208:14255   */\n      mstore\n        /* \"#utility.yul\":14272:14403   */\n      tag_313\n        /* \"#utility.yul\":14398:14402   */\n      dup2\n        /* \"#utility.yul\":14272:14403   */\n      tag_158\n      jump\t// in\n    tag_313:\n        /* \"#utility.yul\":14264:14403   */\n      swap1\n      pop\n        /* \"#utility.yul\":13991:14410   */\n      swap2\n      swap1\n      pop\n      jump\t// out\n        /* \"#utility.yul\":14416:14557   */\n    tag_159:\n        /* \"#utility.yul\":14465:14469   */\n      0x00\n        /* \"#utility.yul\":14488:14491   */\n      dup2\n        /* \"#utility.yul\":14480:14491   */\n      swap1\n      pop\n        /* \"#utility.yul\":14511:14514   */\n      dup2\n        /* \"#utility.yul\":14508:14509   */\n      0x00\n        /* \"#utility.yul\":14501:14515   */\n      mstore\n        /* \"#utility.yul\":14545:14549   */\n      0x20\n        /* \"#utility.yul\":14542:14543   */\n      0x00\n        /* \"#utility.yul\":14532:14550   */\n      keccak256\n        /* \"#utility.yul\":14524:14550   */\n      swap1\n      pop\n        /* \"#utility.yul\":14416:14557   */\n      swap2\n      swap1\n      pop\n      jump\t// out\n        /* \"#utility.yul\":14563:14656   */\n    tag_160:\n        /* \"#utility.yul\":14600:14606   */\n      0x00\n        /* \"#utility.yul\":14647:14649   */\n      0x20\n        /* \"#utility.yul\":14642:14644   */\n      0x1f\n        /* \"#utility.yul\":14635:14640   */\n      dup4\n        /* \"#utility.yul\":14631:14645   */\n      add\n        /* \"#utility.yul\":14627:14650   */\n      div\n        /* \"#utility.yul\":14617:14650   */\n      swap1\n      pop\n        /* \"#utility.yul\":14563:14656   */\n      swap2\n      swap1\n      pop\n      jump\t// out\n        /* \"#utility.yul\":14662:14769   */\n    tag_161:\n        /* \"#utility.yul\":14706:14714   */\n      0x00\n        /* \"#utility.yul\":14756:14761   */\n      dup3\n        /* \"#utility.yul\":14750:14754   */\n      dup3\n        /* \"#utility.yul\":14746:14762   */\n      shl\n        /* \"#utility.yul\":14725:14762   */\n      swap1\n      pop\n        /* \"#utility.yul\":14662:14769   */\n      swap3\n      swap2\n      pop\n      pop\n      jump\t// out\n        /* \"#utility.yul\":14775:15168   */\n    tag_162:\n        /* \"#utility.yul\":14844:14850   */\n      0x00\n        /* \"#utility.yul\":14894:14895   */\n      0x08\n        /* \"#utility.yul\":14882:14892   */\n      dup4\n        /* \"#utility.yul\":14878:14896   */\n      mul\n        /* \"#utility.yul\":14917:15014   */\n      tag_318\n        /* \"#utility.yul\":14947:15013   */\n      0xffffffffffffffffffffffffffffffffffffffffffffffffffffffffffffffff\n        /* \"#utility.yul\":14936:14945   */\n      dup3\n        /* \"#utility.yul\":14917:15014   */\n      tag_161\n      jump\t// in\n    tag_318:\n        /* \"#utility.yul\":15035:15074   */\n      tag_319\n        /* \"#utility.yul\":15065:15073   */\n      dup7\n        /* \"#utility.yul\":15054:15063   */\n      dup4\n        /* \"#utility.yul\":15035:15074   */\n      tag_161\n      jump\t// in\n    tag_319:\n        /* \"#utility.yul\":15023:15074   */\n      swap6\n      pop\n        /* \"#utility.yul\":15107:15111   */\n      dup1\n        /* \"#utility.yul\":15103:15112   */\n      not\n        /* \"#utility.yul\":15096:15101   */\n      dup5\n        /* \"#utility.yul\":15092:15113   */\n      and\n        /* \"#utility.yul\":15083:15113   */\n      swap4\n      pop\n        /* \"#utility.yul\":15156:15160   */\n      dup1\n        /* \"#utility.yul\":15146:15154   */\n      dup7\n        /* \"#utility.yul\":15142:15161   */\n      and\n        /* \"#utility.yul\":15135:15140   */\n      dup5\n        /* \"#utility.yul\":15132:15162   */\n      or\n        /* \"#utility.yul\":15122:15162   */\n      swap3\n      pop\n        /* \"#utility.yul\":14851:15168   */\n      pop\n      pop\n        /* \"#utility.yul\":14775:15168   */\n      swap4\n      swap3\n      pop\n      pop\n      pop\n      jump\t// out\n        /* \"#utility.yul\":15174:15234   */\n    tag_163:\n        /* \"#utility.yul\":15202:15205   */\n      0x00\n        /* \"#utility.yul\":15223:15228   */\n      dup2\n        /* \"#utility.yul\":15216:15228   */\n      swap1\n      pop\n        /* \"#utility.yul\":15174:15234   */\n      swap2\n      swap1\n      pop\n      jump\t// out\n        /* \"#utility.yul\":15240:15382   */\n    tag_164:\n        /* \"#utility.yul\":15290:15299   */\n      0x00\n        /* \"#utility.yul\":15323:15376   */\n      tag_322\n        /* \"#utility.yul\":15341:15375   */\n      tag_323\n        /* \"#utility.yul\":15350:15374   */\n      tag_324\n        /* \"#utility.yul\":15368:15373   */\n      dup5\n        /* \"#utility.yul\":15350:15374   */\n      tag_117\n      jump\t// in\n    tag_324:\n        /* \"#utility.yul\":15341:15375   */\n      tag_163\n      jump\t// in\n    tag_323:\n        /* \"#utility.yul\":15323:15376   */\n      tag_117\n      jump\t// in\n    tag_322:\n        /* \"#utility.yul\":15310:15376   */\n      swap1\n      pop\n        /* \"#utility.yul\":15240:15382   */\n      swap2\n      swap1\n      pop\n      jump\t// out\n        /* \"#utility.yul\":15388:15463   */\n    tag_165:\n        /* \"#utility.yul\":15431:15434   */\n      0x00\n        /* \"#utility.yul\":15452:15457   */\n      dup2\n        /* \"#utility.yul\":15445:15457   */\n      swap1\n      pop\n        /* \"#utility.yul\":15388:15463   */\n      swap2\n      swap1\n      pop\n      jump\t// out\n        /* \"#utility.yul\":15469:15738   */\n    tag_166:\n        /* \"#utility.yul\":15579:15618   */\n      tag_327\n        /* \"#utility.yul\":15610:15617   */\n      dup4\n        /* \"#utility.yul\":15579:15618   */\n      tag_164\n      jump\t// in\n    tag_327:\n        /* \"#utility.yul\":15640:15731   */\n      tag_328\n        /* \"#utility.yul\":15689:15730   */\n      tag_329\n        /* \"#utility.yul\":15713:15729   */\n      dup3\n        /* \"#utility.yul\":15689:15730   */\n      tag_165\n      jump\t// in\n    tag_329:\n        /* \"#utility.yul\":15681:15687   */\n      dup5\n        /* \"#utility.yul\":15674:15678   */\n      dup5\n        /* \"#utility.yul\":15668:15679   */\n      sload\n        /* \"#utility.yul\":15640:15731   */\n      tag_162\n      jump\t// in\n    tag_328:\n        /* \"#utility.yul\":15634:15638   */\n      dup3\n        /* \"#utility.yul\":15627:15732   */\n      sstore\n        /* \"#utility.yul\":15545:15738   */\n      pop\n        /* \"#utility.yul\":15469:15738   */\n      pop\n      pop\n      pop\n      jump\t// out\n        /* \"#utility.yul\":15744:15817   */\n    tag_167:\n        /* \"#utility.yul\":15789:15792   */\n      0x00\n        /* \"#utility.yul\":15810:15811   */\n      0x00\n        /* \"#utility.yul\":15803:15811   */\n      swap1\n      pop\n        /* \"#utility.yul\":15744:15817   */\n      swap1\n      jump\t// out\n        /* \"#utility.yul\":15823:16012   */\n    tag_168:\n        /* \"#utility.yul\":15900:15932   */\n      tag_332\n      tag_167\n      jump\t// in\n    tag_332:\n        /* \"#utility.yul\":15941:16006   */\n      tag_333\n        /* \"#utility.yul\":15999:16005   */\n      dup2\n        /* \"#utility.yul\":15991:15997   */\n      dup5\n        /* \"#utility.yul\":15985:15989   */\n      dup5\n        /* \"#utility.yul\":15941:16006   */\n      tag_166\n      jump\t// in\n    tag_333:\n        /* \"#utility.yul\":15876:16012   */\n      pop\n        /* \"#utility.yul\":15823:16012   */\n      pop\n      pop\n      jump\t// out\n        /* \"#utility.yul\":16018:16232   */\n    tag_169:\n        /* \"#utility.yul\":16103:16104   */\n      0x00\n        /* \"#utility.yul\":16088:16226   */\n    tag_335:\n        /* \"#utility.yul\":16113:16122   */\n      dup3\n        /* \"#utility.yul\":16110:16111   */\n      dup2\n        /* \"#utility.yul\":16107:16123   */\n      lt\n        /* \"#utility.yul\":16088:16226   */\n      iszero\n      tag_337\n      jumpi\n        /* \"#utility.yul\":16165:16216   */\n      tag_338\n        /* \"#utility.yul\":16214:16215   */\n      0x00\n        /* \"#utility.yul\":16210:16211   */\n      dup3\n        /* \"#utility.yul\":16199:16208   */\n      dup5\n        /* \"#utility.yul\":16195:16212   */\n      add\n        /* \"#utility.yul\":16165:16216   */\n      tag_168\n      jump\t// in\n    tag_338:\n        /* \"#utility.yul\":16138:16139   */\n      0x01\n        /* \"#utility.yul\":16135:16136   */\n      dup2\n        /* \"#utility.yul\":16131:16140   */\n      add\n        /* \"#utility.yul\":16126:16140   */\n      swap1\n      pop\n        /* \"#utility.yul\":16088:16226   */\n      jump(tag_335)\n    tag_337:\n        /* \"#utility.yul\":16092:16106   */\n      pop\n        /* \"#utility.yul\":16018:16232   */\n      pop\n      pop\n      jump\t// out\n        /* \"#utility.yul\":16238:16984   */\n    tag_170:\n        /* \"#utility.yul\":16339:16341   */\n      0x1f\n        /* \"#utility.yul\":16334:16337   */\n      dup3\n        /* \"#utility.yul\":16331:16342   */\n      gt\n        /* \"#utility.yul\":16328:16977   */\n      iszero\n      tag_340\n      jumpi\n        /* \"#utility.yul\":16368:16378   */\n      dup3\n        /* \"#utility.yul\":16363:16366   */\n      dup3\n        /* \"#utility.yul\":16360:16379   */\n      gt\n        /* \"#utility.yul\":16357:16967   */\n      iszero\n      tag_341\n      jumpi\n        /* \"#utility.yul\":16414:16452   */\n      tag_342\n        /* \"#utility.yul\":16446:16451   */\n      dup2\n        /* \"#utility.yul\":16414:16452   */\n      tag_159\n      jump\t// in\n    tag_342:\n        /* \"#utility.yul\":16489:16511   */\n      tag_343\n        /* \"#utility.yul\":16507:16510   */\n      dup4\n        /* \"#utility.yul\":16489:16511   */\n      tag_160\n      jump\t// in\n    tag_343:\n        /* \"#utility.yul\":16548:16577   */\n      tag_344\n        /* \"#utility.yul\":16566:16576   */\n      dup6\n        /* \"#utility.yul\":16548:16577   */\n      tag_160\n      jump\t// in\n    tag_344:\n        /* \"#utility.yul\":16738:16740   */\n      0x20\n        /* \"#utility.yul\":16726:16736   */\n      dup7\n        /* \"#utility.yul\":16723:16741   */\n      lt\n        /* \"#utility.yul\":16720:16799   */\n      iszero\n      tag_345\n      jumpi\n        /* \"#utility.yul\":16780:16781   */\n      0x00\n        /* \"#utility.yul\":16764:16781   */\n      swap1\n      pop\n        /* \"#utility.yul\":16720:16799   */\n    tag_345:\n        /* \"#utility.yul\":16849:16861   */\n      dup1\n        /* \"#utility.yul\":16839:16847   */\n      dup4\n        /* \"#utility.yul\":16835:16862   */\n      add\n        /* \"#utility.yul\":16879:16953   */\n      tag_346\n        /* \"#utility.yul\":16939:16951   */\n      dup3\n        /* \"#utility.yul\":16925:16937   */\n      dup5\n        /* \"#utility.yul\":16921:16952   */\n      sub\n        /* \"#utility.yul\":16908:16919   */\n      dup3\n        /* \"#utility.yul\":16879:16953   */\n      tag_169\n      jump\t// in\n    tag_346:\n        /* \"#utility.yul\":16380:16967   */\n      pop\n      pop\n      pop\n      pop\n        /* \"#utility.yul\":16357:16967   */\n    tag_341:\n        /* \"#utility.yul\":16328:16977   */\n    tag_340:\n        /* \"#utility.yul\":16238:16984   */\n      pop\n      pop\n      pop\n      jump\t// out\n        /* \"#utility.yul\":16990:17107   */\n    tag_171:\n        /* \"#utility.yul\":17044:17052   */\n      0x00\n        /* \"#utility.yul\":17094:17099   */\n      dup3\n        /* \"#utility.yul\":17088:17092   */\n      dup3\n        /* \"#utility.yul\":17084:17100   */\n      shr\n        /* \"#utility.yul\":17063:17100   */\n      swap1\n      pop\n        /* \"#utility.yul\":16990:17107   */\n      swap3\n      swap2\n      pop\n      pop\n      jump\t// out\n        /* \"#utility.yul\":17113:17282   */\n    tag_172:\n        /* \"#utility.yul\":17157:17163   */\n      0x00\n        /* \"#utility.yul\":17190:17241   */\n      tag_349\n        /* \"#utility.yul\":17238:17239   */\n      0x00\n        /* \"#utility.yul\":17234:17240   */\n      not\n        /* \"#utility.yul\":17226:17231   */\n      dup5\n        /* \"#utility.yul\":17223:17224   */\n      0x08\n        /* \"#utility.yul\":17219:17232   */\n      mul\n        /* \"#utility.yul\":17190:17241   */\n      tag_171\n      jump\t// in\n    tag_349:\n        /* \"#utility.yul\":17186:17242   */\n      not\n        /* \"#utility.yul\":17271:17275   */\n      dup1\n        /* \"#utility.yul\":17265:17269   */\n      dup4\n        /* \"#utility.yul\":17261:17276   */\n      and\n        /* \"#utility.yul\":17251:17276   */\n      swap2\n      pop\n        /* \"#utility.yul\":17164:17282   */\n      pop\n        /* \"#utility.yul\":17113:17282   */\n      swap3\n      swap2\n      pop\n      pop\n      jump\t// out\n        /* \"#utility.yul\":17287:17582   */\n    tag_173:\n        /* \"#utility.yul\":17363:17367   */\n      0x00\n        /* \"#utility.yul\":17509:17538   */\n      tag_351\n        /* \"#utility.yul\":17534:17537   */\n      dup4\n        /* \"#utility.yul\":17528:17532   */\n      dup4\n        /* \"#utility.yul\":17509:17538   */\n      tag_172\n      jump\t// in\n    tag_351:\n        /* \"#utility.yul\":17501:17538   */\n      swap2\n      pop\n        /* \"#utility.yul\":17571:17574   */\n      dup3\n        /* \"#utility.yul\":17568:17569   */\n      0x02\n        /* \"#utility.yul\":17564:17575   */\n      mul\n        /* \"#utility.yul\":17558:17562   */\n      dup3\n        /* \"#utility.yul\":17555:17576   */\n      or\n        /* \"#utility.yul\":17547:17576   */\n      swap1\n      pop\n        /* \"#utility.yul\":17287:17582   */\n      swap3\n      swap2\n      pop\n      pop\n      jump\t// out\n        /* \"#utility.yul\":17587:18982   */\n    tag_76:\n        /* \"#utility.yul\":17704:17741   */\n      tag_353\n        /* \"#utility.yul\":17737:17740   */\n      dup3\n        /* \"#utility.yul\":17704:17741   */\n      tag_120\n      jump\t// in\n    tag_353:\n        /* \"#utility.yul\":17806:17824   */\n      0xffffffffffffffff\n        /* \"#utility.yul\":17798:17804   */\n      dup2\n        /* \"#utility.yul\":17795:17825   */\n      gt\n        /* \"#utility.yul\":17792:17848   */\n      iszero\n      tag_354\n      jumpi\n        /* \"#utility.yul\":17828:17846   */\n      tag_355\n      tag_140\n      jump\t// in\n    tag_355:\n        /* \"#utility.yul\":17792:17848   */\n    tag_354:\n        /* \"#utility.yul\":17872:17910   */\n      tag_356\n        /* \"#utility.yul\":17904:17908   */\n      dup3\n        /* \"#utility.yul\":17898:17909   */\n      sload\n        /* \"#utility.yul\":17872:17910   */\n      tag_48\n      jump\t// in\n    tag_356:\n        /* \"#utility.yul\":17957:18024   */\n      tag_357\n        /* \"#utility.yul\":18017:18023   */\n      dup3\n        /* \"#utility.yul\":18009:18015   */\n      dup3\n        /* \"#utility.yul\":18003:18007   */\n      dup6\n        /* \"#utility.yul\":17957:18024   */\n      tag_170\n      jump\t// in\n    tag_357:\n        /* \"#utility.yul\":18051:18052   */\n      0x00\n        /* \"#utility.yul\":18075:18079   */\n      0x20\n        /* \"#utility.yul\":18062:18079   */\n      swap1\n      pop\n        /* \"#utility.yul\":18107:18109   */\n      0x1f\n        /* \"#utility.yul\":18099:18105   */\n      dup4\n        /* \"#utility.yul\":18096:18110   */\n      gt\n        /* \"#utility.yul\":18124:18125   */\n      0x01\n        /* \"#utility.yul\":18119:18737   */\n      dup2\n      eq\n      tag_359\n      jumpi\n        /* \"#utility.yul\":18781:18782   */\n      0x00\n        /* \"#utility.yul\":18798:18804   */\n      dup5\n        /* \"#utility.yul\":18795:18872   */\n      iszero\n      tag_360\n      jumpi\n        /* \"#utility.yul\":18847:18856   */\n      dup3\n        /* \"#utility.yul\":18842:18845   */\n      dup8\n        /* \"#utility.yul\":18838:18857   */\n      add\n        /* \"#utility.yul\":18832:18858   */\n      mload\n        /* \"#utility.yul\":18823:18858   */\n      swap1\n      pop\n        /* \"#utility.yul\":18795:18872   */\n    tag_360:\n        /* \"#utility.yul\":18898:18965   */\n      tag_361\n        /* \"#utility.yul\":18958:18964   */\n      dup6\n        /* \"#utility.yul\":18951:18956   */\n      dup3\n        /* \"#utility.yul\":18898:18965   */\n      tag_173\n      jump\t// in\n    tag_361:\n        /* \"#utility.yul\":18892:18896   */\n      dup7\n        /* \"#utility.yul\":18885:18966   */\n      sstore\n        /* \"#utility.yul\":18754:18976   */\n      pop\n        /* \"#utility.yul\":18089:18976   */\n      jump(tag_358)\n        /* \"#utility.yul\":18119:18737   */\n    tag_359:\n        /* \"#utility.yul\":18171:18175   */\n      0x1f\n        /* \"#utility.yul\":18167:18176   */\n      not\n        /* \"#utility.yul\":18159:18165   */\n      dup5\n        /* \"#utility.yul\":18155:18177   */\n      and\n        /* \"#utility.yul\":18205:18242   */\n      tag_362\n        /* \"#utility.yul\":18237:18241   */\n      dup7\n        /* \"#utility.yul\":18205:18242   */\n      tag_159\n      jump\t// in\n    tag_362:\n        /* \"#utility.yul\":18264:18265   */\n      0x00\n        /* \"#utility.yul\":18278:18486   */\n    tag_363:\n        /* \"#utility.yul\":18292:18299   */\n      dup3\n        /* \"#utility.yul\":18289:18290   */\n      dup2\n        /* \"#utility.yul\":18286:18300   */\n      lt\n        /* \"#utility.yul\":18278:18486   */\n      iszero\n      tag_365\n      jumpi\n        /* \"#utility.yul\":18371:18380   */\n      dup5\n        /* \"#utility.yul\":18366:18369   */\n      dup10\n        /* \"#utility.yul\":18362:18381   */\n      add\n        /* \"#utility.yul\":18356:18382   */\n      mload\n        /* \"#utility.yul\":18348:18354   */\n      dup3\n        /* \"#utility.yul\":18341:18383   */\n      sstore\n        /* \"#utility.yul\":18422:18423   */\n      0x01\n        /* \"#utility.yul\":18414:18420   */\n      dup3\n        /* \"#utility.yul\":18410:18424   */\n      add\n        /* \"#utility.yul\":18400:18424   */\n      swap2\n      pop\n        /* \"#utility.yul\":18469:18471   */\n      0x20\n        /* \"#utility.yul\":18458:18467   */\n      dup6\n        /* \"#utility.yul\":18454:18472   */\n      add\n        /* \"#utility.yul\":18441:18472   */\n      swap5\n      pop\n        /* \"#utility.yul\":18315:18319   */\n      0x20\n        /* \"#utility.yul\":18312:18313   */\n      dup2\n        /* \"#utility.yul\":18308:18320   */\n      add\n        /* \"#utility.yul\":18303:18320   */\n      swap1\n      pop\n        /* \"#utility.yul\":18278:18486   */\n      jump(tag_363)\n    tag_365:\n        /* \"#utility.yul\":18514:18520   */\n      dup7\n        /* \"#utility.yul\":18505:18512   */\n      dup4\n        /* \"#utility.yul\":18502:18521   */\n      lt\n        /* \"#utility.yul\":18499:18678   */\n      iszero\n      tag_366\n      jumpi\n        /* \"#utility.yul\":18572:18581   */\n      dup5\n        /* \"#utility.yul\":18567:18570   */\n      dup10\n        /* \"#utility.yul\":18563:18582   */\n      add\n        /* \"#utility.yul\":18557:18583   */\n      mload\n        /* \"#utility.yul\":18615:18663   */\n      tag_367\n        /* \"#utility.yul\":18657:18661   */\n      0x1f\n        /* \"#utility.yul\":18649:18655   */\n      dup10\n        /* \"#utility.yul\":18645:18662   */\n      and\n        /* \"#utility.yul\":18634:18643   */\n      dup3\n        /* \"#utility.yul\":18615:18663   */\n      tag_172\n      jump\t// in\n    tag_367:\n        /* \"#utility.yul\":18607:18613   */\n      dup4\n        /* \"#utility.yul\":18600:18664   */\n      sstore\n        /* \"#utility.yul\":18522:18678   */\n      pop\n        /* \"#utility.yul\":18499:18678   */\n    tag_366:\n        /* \"#utility.yul\":18724:18725   */\n      0x01\n        /* \"#utility.yul\":18720:18721   */\n      0x02\n        /* \"#utility.yul\":18712:18718   */\n      dup9\n        /* \"#utility.yul\":18708:18722   */\n      mul\n        /* \"#utility.yul\":18704:18726   */\n      add\n        /* \"#utility.yul\":18698:18702   */\n      dup9\n        /* \"#utility.yul\":18691:18727   */\n      sstore\n        /* \"#utility.yul\":18126:18737   */\n      pop\n      pop\n      pop\n        /* \"#utility.yul\":18089:18976   */\n    tag_358:\n      pop\n        /* \"#utility.yul\":17679:18982   */\n      pop\n      pop\n      pop\n        /* \"#utility.yul\":17587:18982   */\n      pop\n      pop\n      jump\t// out\n        /* \"#utility.yul\":18988:19502   */\n    tag_80:\n        /* \"#utility.yul\":19149:19153   */\n      0x00\n        /* \"#utility.yul\":19187:19189   */\n      0x40\n        /* \"#utility.yul\":19176:19185   */\n      dup3\n        /* \"#utility.yul\":19172:19190   */\n      add\n        /* \"#utility.yul\":19164:19190   */\n      swap1\n      pop\n        /* \"#utility.yul\":19236:19245   */\n      dup2\n        /* \"#utility.yul\":19230:19234   */\n      dup2\n        /* \"#utility.yul\":19226:19246   */\n      sub\n        /* \"#utility.yul\":19222:19223   */\n      0x00\n        /* \"#utility.yul\":19211:19220   */\n      dup4\n        /* \"#utility.yul\":19207:19224   */\n      add\n        /* \"#utility.yul\":19200:19247   */\n      mstore\n        /* \"#utility.yul\":19264:19342   */\n      tag_369\n        /* \"#utility.yul\":19337:19341   */\n      dup2\n        /* \"#utility.yul\":19328:19334   */\n      dup6\n        /* \"#utility.yul\":19264:19342   */\n      tag_124\n      jump\t// in\n    tag_369:\n        /* \"#utility.yul\":19256:19342   */\n      swap1\n      pop\n        /* \"#utility.yul\":19389:19398   */\n      dup2\n        /* \"#utility.yul\":19383:19387   */\n      dup2\n        /* \"#utility.yul\":19379:19399   */\n      sub\n        /* \"#utility.yul\":19374:19376   */\n      0x20\n        /* \"#utility.yul\":19363:19372   */\n      dup4\n        /* \"#utility.yul\":19359:19377   */\n      add\n        /* \"#utility.yul\":19352:19400   */\n      mstore\n        /* \"#utility.yul\":19417:19495   */\n      tag_370\n        /* \"#utility.yul\":19490:19494   */\n      dup2\n        /* \"#utility.yul\":19481:19487   */\n      dup5\n        /* \"#utility.yul\":19417:19495   */\n      tag_124\n      jump\t// in\n    tag_370:\n        /* \"#utility.yul\":19409:19495   */\n      swap1\n      pop\n        /* \"#utility.yul\":18988:19502   */\n      swap4\n      swap3\n      pop\n      pop\n      pop\n      jump\t// out\n        /* \"#utility.yul\":19508:19688   */\n    tag_174:\n        /* \"#utility.yul\":19556:19633   */\n      0x4e487b7100000000000000000000000000000000000000000000000000000000\n        /* \"#utility.yul\":19553:19554   */\n      0x00\n        /* \"#utility.yul\":19546:19634   */\n      mstore\n        /* \"#utility.yul\":19653:19657   */\n      0x11\n        /* \"#utility.yul\":19650:19651   */\n      0x04\n        /* \"#utility.yul\":19643:19658   */\n      mstore\n        /* \"#utility.yul\":19677:19681   */\n      0x24\n        /* \"#utility.yul\":19674:19675   */\n      0x00\n        /* \"#utility.yul\":19667:19682   */\n      revert\n        /* \"#utility.yul\":19694:19927   */\n    tag_82:\n        /* \"#utility.yul\":19733:19736   */\n      0x00\n        /* \"#utility.yul\":19756:19780   */\n      tag_373\n        /* \"#utility.yul\":19774:19779   */\n      dup3\n        /* \"#utility.yul\":19756:19780   */\n      tag_117\n      jump\t// in\n    tag_373:\n        /* \"#utility.yul\":19747:19780   */\n      swap2\n      pop\n        /* \"#utility.yul\":19802:19868   */\n      0xffffffffffffffffffffffffffffffffffffffffffffffffffffffffffffffff\n        /* \"#utility.yul\":19795:19800   */\n      dup3\n        /* \"#utility.yul\":19792:19869   */\n      sub\n        /* \"#utility.yul\":19789:19892   */\n      tag_374\n      jumpi\n        /* \"#utility.yul\":19872:19890   */\n      tag_375\n      tag_174\n      jump\t// in\n    tag_375:\n        /* \"#utility.yul\":19789:19892   */\n    tag_374:\n        /* \"#utility.yul\":19919:19920   */\n      0x01\n        /* \"#utility.yul\":19912:19917   */\n      dup3\n        /* \"#utility.yul\":19908:19921   */\n      add\n        /* \"#utility.yul\":19901:19921   */\n      swap1\n      pop\n        /* \"#utility.yul\":19694:19927   */\n      swap2\n      swap1\n      pop\n      jump\t// out\n        /* \"#utility.yul\":19933:20114   */\n    tag_175:\n        /* \"#utility.yul\":20073:20106   */\n      0x4f6e6c7920746f6b656e206f776e65722063616e206465616374697661746500\n        /* \"#utility.yul\":20069:20070   */\n      0x00\n        /* \"#utility.yul\":20061:20067   */\n      dup3\n        /* \"#utility.yul\":20057:20071   */\n      add\n        /* \"#utility.yul\":20050:20107   */\n      mstore\n        /* \"#utility.yul\":19933:20114   */\n      pop\n      jump\t// out\n        /* \"#utility.yul\":20120:20486   */\n    tag_176:\n        /* \"#utility.yul\":20262:20265   */\n      0x00\n        /* \"#utility.yul\":20283:20350   */\n      tag_378\n        /* \"#utility.yul\":20347:20349   */\n      0x1f\n        /* \"#utility.yul\":20342:20345   */\n      dup4\n        /* \"#utility.yul\":20283:20350   */\n      tag_121\n      jump\t// in\n    tag_378:\n        /* \"#utility.yul\":20276:20350   */\n      swap2\n      pop\n        /* \"#utility.yul\":20359:20452   */\n      tag_379\n        /* \"#utility.yul\":20448:20451   */\n      dup3\n        /* \"#utility.yul\":20359:20452   */\n      tag_175\n      jump\t// in\n    tag_379:\n        /* \"#utility.yul\":20477:20479   */\n      0x20\n        /* \"#utility.yul\":20472:20475   */\n      dup3\n        /* \"#utility.yul\":20468:20480   */\n      add\n        /* \"#utility.yul\":20461:20480   */\n      swap1\n      pop\n        /* \"#utility.yul\":20120:20486   */\n      swap2\n      swap1\n      pop\n      jump\t// out\n        /* \"#utility.yul\":20492:20911   */\n    tag_109:\n        /* \"#utility.yul\":20658:20662   */\n      0x00\n        /* \"#utility.yul\":20696:20698   */\n      0x20\n        /* \"#utility.yul\":20685:20694   */\n      dup3\n        /* \"#utility.yul\":20681:20699   */\n      add\n        /* \"#utility.yul\":20673:20699   */\n      swap1\n      pop\n        /* \"#utility.yul\":20745:20754   */\n      dup2\n        /* \"#utility.yul\":20739:20743   */\n      dup2\n        /* \"#utility.yul\":20735:20755   */\n      sub\n        /* \"#utility.yul\":20731:20732   */\n      0x00\n        /* \"#utility.yul\":20720:20729   */\n      dup4\n        /* \"#utility.yul\":20716:20733   */\n      add\n        /* \"#utility.yul\":20709:20756   */\n      mstore\n        /* \"#utility.yul\":20773:20904   */\n      tag_381\n        /* \"#utility.yul\":20899:20903   */\n      dup2\n        /* \"#utility.yul\":20773:20904   */\n      tag_176\n      jump\t// in\n    tag_381:\n        /* \"#utility.yul\":20765:20904   */\n      swap1\n      pop\n        /* \"#utility.yul\":20492:20911   */\n      swap2\n      swap1\n      pop\n      jump\t// out\n        /* \"#utility.yul\":20917:21092   */\n    tag_177:\n        /* \"#utility.yul\":21057:21084   */\n      0x546f6b656e20697320616c726561647920696e61637469766500000000000000\n        /* \"#utility.yul\":21053:21054   */\n      0x00\n        /* \"#utility.yul\":21045:21051   */\n      dup3\n        /* \"#utility.yul\":21041:21055   */\n      add\n        /* \"#utility.yul\":21034:21085   */\n      mstore\n        /* \"#utility.yul\":20917:21092   */\n      pop\n      jump\t// out\n        /* \"#utility.yul\":21098:21464   */\n    tag_178:\n        /* \"#utility.yul\":21240:21243   */\n      0x00\n        /* \"#utility.yul\":21261:21328   */\n      tag_384\n        /* \"#utility.yul\":21325:21327   */\n      0x19\n        /* \"#utility.yul\":21320:21323   */\n      dup4\n        /* \"#utility.yul\":21261:21328   */\n      tag_121\n      jump\t// in\n    tag_384:\n        /* \"#utility.yul\":21254:21328   */\n      swap2\n      pop\n        /* \"#utility.yul\":21337:21430   */\n      tag_385\n        /* \"#utility.yul\":21426:21429   */\n      dup3\n        /* \"#utility.yul\":21337:21430   */\n      tag_177\n      jump\t// in\n    tag_385:\n        /* \"#utility.yul\":21455:21457   */\n      0x20\n        /* \"#utility.yul\":21450:21453   */\n      dup3\n        /* \"#utility.yul\":21446:21458   */\n      add\n        /* \"#utility.yul\":21439:21458   */\n      swap1\n      pop\n        /* \"#utility.yul\":21098:21464   */\n      swap2\n      swap1\n      pop\n      jump\t// out\n        /* \"#utility.yul\":21470:21889   */\n    tag_113:\n        /* \"#utility.yul\":21636:21640   */\n      0x00\n        /* \"#utility.yul\":21674:21676   */\n      0x20\n        /* \"#utility.yul\":21663:21672   */\n      dup3\n        /* \"#utility.yul\":21659:21677   */\n      add\n        /* \"#utility.yul\":21651:21677   */\n      swap1\n      pop\n        /* \"#utility.yul\":21723:21732   */\n      dup2\n        /* \"#utility.yul\":21717:21721   */\n      dup2\n        /* \"#utility.yul\":21713:21733   */\n      sub\n        /* \"#utility.yul\":21709:21710   */\n      0x00\n        /* \"#utility.yul\":21698:21707   */\n      dup4\n        /* \"#utility.yul\":21694:21711   */\n      add\n        /* \"#utility.yul\":21687:21734   */\n      mstore\n        /* \"#utility.yul\":21751:21882   */\n      tag_387\n        /* \"#utility.yul\":21877:21881   */\n      dup2\n        /* \"#utility.yul\":21751:21882   */\n      tag_178\n      jump\t// in\n    tag_387:\n        /* \"#utility.yul\":21743:21882   */\n      swap1\n      pop\n        /* \"#utility.yul\":21470:21889   */\n      swap2\n      swap1\n      pop\n      jump\t// out\n\n    auxdata: 0xa26469706673582212203ee558154fae4ac52c843f66efed769d0b3f971b0df355f613fd7df1f44595cd64736f6c63430008220033\n}\n",
				"bytecode": {
					"linkReferences": {},
					"object": "608060405260016002553480156013575f5ffd5b5061151d806100215f395ff3fe608060405234801561000f575f5ffd5b5060043610610086575f3560e01c8063ce20d4b311610059578063ce20d4b314610129578063d58778d614610145578063e4b50cb814610175578063ec991da9146101a557610086565b80634f64b2be1461008a57806378a89567146100bd5780639b0b92ef146100db578063bdbed7221461010b575b5f5ffd5b6100a4600480360381019061009f9190610a6d565b6101c1565b6040516100b49493929190610b61565b60405180910390f35b6100c5610324565b6040516100d29190610bc1565b60405180910390f35b6100f560048036038101906100f09190610a6d565b610330565b6040516101029190610bda565b60405180910390f35b6101136103aa565b6040516101209190610caa565b60405180910390f35b610143600480360381019061013e9190610df6565b610400565b005b61015f600480360381019061015a9190610a6d565b6105fc565b60405161016c9190610bc1565b60405180910390f35b61018f600480360381019061018a9190610a6d565b61061c565b60405161019c9190610f39565b60405180910390f35b6101bf60048036038101906101ba9190610a6d565b610826565b005b5f602052805f5260405f205f91509050805f0180546101df90610f86565b80601f016020809104026020016040519081016040528092919081815260200182805461020b90610f86565b80156102565780601f1061022d57610100808354040283529160200191610256565b820191905f5260205f20905b81548152906001019060200180831161023957829003601f168201915b50505050509080600101805461026b90610f86565b80601f016020809104026020016040519081016040528092919081815260200182805461029790610f86565b80156102e25780601f106102b9576101008083540402835291602001916102e2565b820191905f5260205f20905b8154815290600101906020018083116102c557829003601f168201915b505050505090806002015f9054906101000a900473ffffffffffffffffffffffffffffffffffffffff16908060020160149054906101000a900460ff16905084565b5f600180549050905090565b5f815f81118015610342575060025481105b610381576040517f08c379a000000000000000000000000000000000000000000000000000000000815260040161037890611000565b60405180910390fd5b5f5f8481526020019081526020015f2060020160149054906101000a900460ff16915050919050565b606060018054806020026020016040519081016040528092919081815260200182805480156103f657602002820191905f5260205f20905b8154815260200190600101908083116103e2575b5050505050905090565b5f825111610443576040517f08c379a000000000000000000000000000000000000000000000000000000000815260040161043a90611068565b60405180910390fd5b5f815111610486576040517f08c379a000000000000000000000000000000000000000000000000000000000815260040161047d906110d0565b60405180910390fd5b5f600254905060405180608001604052808481526020018381526020013373ffffffffffffffffffffffffffffffffffffffff168152602001600115158152505f5f8381526020019081526020015f205f820151815f0190816104e9919061129f565b5060208201518160010190816104ff919061129f565b506040820151816002015f6101000a81548173ffffffffffffffffffffffffffffffffffffffff021916908373ffffffffffffffffffffffffffffffffffffffff16021790555060608201518160020160146101000a81548160ff021916908315150217905550905050600181908060018154018082558091505060019003905f5260205f20015f90919091909150553373ffffffffffffffffffffffffffffffffffffffff16817f0a2ed3e4c977f75f5745574412c2a365041206f0cb48e738c5efef51a4373cba85856040516105d892919061136e565b60405180910390a360025f8154809291906105f2906113d0565b9190505550505050565b6001818154811061060b575f80fd5b905f5260205f20015f915090505481565b6106246109eb565b815f81118015610635575060025481105b610674576040517f08c379a000000000000000000000000000000000000000000000000000000000815260040161066b90611000565b60405180910390fd5b5f5f8481526020019081526020015f206040518060800160405290815f8201805461069e90610f86565b80601f01602080910402602001604051908101604052809291908181526020018280546106ca90610f86565b80156107155780601f106106ec57610100808354040283529160200191610715565b820191905f5260205f20905b8154815290600101906020018083116106f857829003601f168201915b5050505050815260200160018201805461072e90610f86565b80601f016020809104026020016040519081016040528092919081815260200182805461075a90610f86565b80156107a55780601f1061077c576101008083540402835291602001916107a5565b820191905f5260205f20905b81548152906001019060200180831161078857829003601f168201915b50505050508152602001600282015f9054906101000a900473ffffffffffffffffffffffffffffffffffffffff1673ffffffffffffffffffffffffffffffffffffffff1673ffffffffffffffffffffffffffffffffffffffff1681526020016002820160149054906101000a900460ff161515151581525050915050919050565b805f81118015610837575060025481105b610876576040517f08c379a000000000000000000000000000000000000000000000000000000000815260040161086d90611000565b60405180910390fd5b813373ffffffffffffffffffffffffffffffffffffffff165f5f8381526020019081526020015f206002015f9054906101000a900473ffffffffffffffffffffffffffffffffffffffff1673ffffffffffffffffffffffffffffffffffffffff1614610917576040517f08c379a000000000000000000000000000000000000000000000000000000000815260040161090e90611461565b60405180910390fd5b5f5f8481526020019081526020015f2060020160149054906101000a900460ff16610977576040517f08c379a000000000000000000000000000000000000000000000000000000000815260040161096e906114c9565b60405180910390fd5b5f5f5f8581526020019081526020015f2060020160146101000a81548160ff0219169083151502179055503373ffffffffffffffffffffffffffffffffffffffff16837fc5bc70dcbaa7453c88acb052849608a31643ca7b9865b086176cfc8fa995720b60405160405180910390a3505050565b604051806080016040528060608152602001606081526020015f73ffffffffffffffffffffffffffffffffffffffff1681526020015f151581525090565b5f604051905090565b5f5ffd5b5f5ffd5b5f819050919050565b610a4c81610a3a565b8114610a56575f5ffd5b50565b5f81359050610a6781610a43565b92915050565b5f60208284031215610a8257610a81610a32565b5b5f610a8f84828501610a59565b91505092915050565b5f81519050919050565b5f82825260208201905092915050565b8281835e5f83830152505050565b5f601f19601f8301169050919050565b5f610ada82610a98565b610ae48185610aa2565b9350610af4818560208601610ab2565b610afd81610ac0565b840191505092915050565b5f73ffffffffffffffffffffffffffffffffffffffff82169050919050565b5f610b3182610b08565b9050919050565b610b4181610b27565b82525050565b5f8115159050919050565b610b5b81610b47565b82525050565b5f6080820190508181035f830152610b798187610ad0565b90508181036020830152610b8d8186610ad0565b9050610b9c6040830185610b38565b610ba96060830184610b52565b95945050505050565b610bbb81610a3a565b82525050565b5f602082019050610bd45f830184610bb2565b92915050565b5f602082019050610bed5f830184610b52565b92915050565b5f81519050919050565b5f82825260208201905092915050565b5f819050602082019050919050565b610c2581610a3a565b82525050565b5f610c368383610c1c565b60208301905092915050565b5f602082019050919050565b5f610c5882610bf3565b610c628185610bfd565b9350610c6d83610c0d565b805f5b83811015610c9d578151610c848882610c2b565b9750610c8f83610c42565b925050600181019050610c70565b5085935050505092915050565b5f6020820190508181035f830152610cc28184610c4e565b905092915050565b5f5ffd5b5f5ffd5b7f4e487b71000000000000000000000000000000000000000000000000000000005f52604160045260245ffd5b610d0882610ac0565b810181811067ffffffffffffffff82111715610d2757610d26610cd2565b5b80604052505050565b5f610d39610a29565b9050610d458282610cff565b919050565b5f67ffffffffffffffff821115610d6457610d63610cd2565b5b610d6d82610ac0565b9050602081019050919050565b828183375f83830152505050565b5f610d9a610d9584610d4a565b610d30565b905082815260208101848484011115610db657610db5610cce565b5b610dc1848285610d7a565b509392505050565b5f82601f830112610ddd57610ddc610cca565b5b8135610ded848260208601610d88565b91505092915050565b5f5f60408385031215610e0c57610e0b610a32565b5b5f83013567ffffffffffffffff811115610e2957610e28610a36565b5b610e3585828601610dc9565b925050602083013567ffffffffffffffff811115610e5657610e55610a36565b5b610e6285828601610dc9565b9150509250929050565b5f82825260208201905092915050565b5f610e8682610a98565b610e908185610e6c565b9350610ea0818560208601610ab2565b610ea981610ac0565b840191505092915050565b610ebd81610b27565b82525050565b610ecc81610b47565b82525050565b5f608083015f8301518482035f860152610eec8282610e7c565b91505060208301518482036020860152610f068282610e7c565b9150506040830151610f1b6040860182610eb4565b506060830151610f2e6060860182610ec3565b508091505092915050565b5f6020820190508181035f830152610f518184610ed2565b905092915050565b7f4e487b71000000000000000000000000000000000000000000000000000000005f52602260045260245ffd5b5f6002820490506001821680610f9d57607f821691505b602082108103610fb057610faf610f59565b5b50919050565b7f546f6b656e20646f6573206e6f742065786973740000000000000000000000005f82015250565b5f610fea601483610aa2565b9150610ff582610fb6565b602082019050919050565b5f6020820190508181035f83015261101781610fde565b9050919050565b7f546f6b656e206e616d652063616e6e6f7420626520656d7074790000000000005f82015250565b5f611052601a83610aa2565b915061105d8261101e565b602082019050919050565b5f6020820190508181035f83015261107f81611046565b9050919050565b7f546f6b656e2073796d626f6c2063616e6e6f7420626520656d707479000000005f82015250565b5f6110ba601c83610aa2565b91506110c582611086565b602082019050919050565b5f6020820190508181035f8301526110e7816110ae565b9050919050565b5f819050815f5260205f209050919050565b5f6020601f8301049050919050565b5f82821b905092915050565b5f6008830261114a7fffffffffffffffffffffffffffffffffffffffffffffffffffffffffffffffff8261110f565b611154868361110f565b95508019841693508086168417925050509392505050565b5f819050919050565b5f61118f61118a61118584610a3a565b61116c565b610a3a565b9050919050565b5f819050919050565b6111a883611175565b6111bc6111b482611196565b84845461111b565b825550505050565b5f5f905090565b6111d36111c4565b6111de81848461119f565b505050565b5f5b82811015611204576111f95f8284016111cb565b6001810190506111e5565b505050565b601f821115611257578282111561125657611223816110ee565b61122c83611100565b61123585611100565b6020861015611242575f90505b808301611251828403826111e3565b505050505b5b505050565b5f82821c905092915050565b5f6112775f198460080261125c565b1980831691505092915050565b5f61128f8383611268565b9150826002028217905092915050565b6112a882610a98565b67ffffffffffffffff8111156112c1576112c0610cd2565b5b6112cb8254610f86565b6112d6828285611209565b5f60209050601f831160018114611307575f84156112f5578287015190505b6112ff8582611284565b865550611366565b601f198416611315866110ee565b5f5b8281101561133c57848901518255600182019150602085019450602081019050611317565b868310156113595784890151611355601f891682611268565b8355505b6001600288020188555050505b505050505050565b5f6040820190508181035f8301526113868185610ad0565b9050818103602083015261139a8184610ad0565b90509392505050565b7f4e487b71000000000000000000000000000000000000000000000000000000005f52601160045260245ffd5b5f6113da82610a3a565b91507fffffffffffffffffffffffffffffffffffffffffffffffffffffffffffffffff820361140c5761140b6113a3565b5b600182019050919050565b7f4f6e6c7920746f6b656e206f776e65722063616e2064656163746976617465005f82015250565b5f61144b601f83610aa2565b915061145682611417565b602082019050919050565b5f6020820190508181035f8301526114788161143f565b9050919050565b7f546f6b656e20697320616c726561647920696e616374697665000000000000005f82015250565b5f6114b3601983610aa2565b91506114be8261147f565b602082019050919050565b5f6020820190508181035f8301526114e0816114a7565b905091905056fea26469706673582212203ee558154fae4ac52c843f66efed769d0b3f971b0df355f613fd7df1f44595cd64736f6c63430008220033",
					"opcodes": "PUSH1 0x80 PUSH1 0x40 MSTORE PUSH1 0x1 PUSH1 0x2 SSTORE CALLVALUE DUP1 ISZERO PUSH1 0x13 JUMPI PUSH0 PUSH0 REVERT JUMPDEST POP PUSH2 0x151D DUP1 PUSH2 0x21 PUSH0 CODECOPY PUSH0 RETURN INVALID PUSH1 0x80 PUSH1 0x40 MSTORE CALLVALUE DUP1 ISZERO PUSH2 0xF JUMPI PUSH0 PUSH0 REVERT JUMPDEST POP PUSH1 0x4 CALLDATASIZE LT PUSH2 0x86 JUMPI PUSH0 CALLDATALOAD PUSH1 0xE0 SHR DUP1 PUSH4 0xCE20D4B3 GT PUSH2 0x59 JUMPI DUP1 PUSH4 0xCE20D4B3 EQ PUSH2 0x129 JUMPI DUP1 PUSH4 0xD58778D6 EQ PUSH2 0x145 JUMPI DUP1 PUSH4 0xE4B50CB8 EQ PUSH2 0x175 JUMPI DUP1 PUSH4 0xEC991DA9 EQ PUSH2 0x1A5 JUMPI PUSH2 0x86 JUMP JUMPDEST DUP1 PUSH4 0x4F64B2BE EQ PUSH2 0x8A JUMPI DUP1 PUSH4 0x78A89567 EQ PUSH2 0xBD JUMPI DUP1 PUSH4 0x9B0B92EF EQ PUSH2 0xDB JUMPI DUP1 PUSH4 0xBDBED722 EQ PUSH2 0x10B JUMPI JUMPDEST PUSH0 PUSH0 REVERT JUMPDEST PUSH2 0xA4 PUSH1 0x4 DUP1 CALLDATASIZE SUB DUP2 ADD SWAP1 PUSH2 0x9F SWAP2 SWAP1 PUSH2 0xA6D JUMP JUMPDEST PUSH2 0x1C1 JUMP JUMPDEST PUSH1 0x40 MLOAD PUSH2 0xB4 SWAP5 SWAP4 SWAP3 SWAP2 SWAP1 PUSH2 0xB61 JUMP JUMPDEST PUSH1 0x40 MLOAD DUP1 SWAP2 SUB SWAP1 RETURN JUMPDEST PUSH2 0xC5 PUSH2 0x324 JUMP JUMPDEST PUSH1 0x40 MLOAD PUSH2 0xD2 SWAP2 SWAP1 PUSH2 0xBC1 JUMP JUMPDEST PUSH1 0x40 MLOAD DUP1 SWAP2 SUB SWAP1 RETURN JUMPDEST PUSH2 0xF5 PUSH1 0x4 DUP1 CALLDATASIZE SUB DUP2 ADD SWAP1 PUSH2 0xF0 SWAP2 SWAP1 PUSH2 0xA6D JUMP JUMPDEST PUSH2 0x330 JUMP JUMPDEST PUSH1 0x40 MLOAD PUSH2 0x102 SWAP2 SWAP1 PUSH2 0xBDA JUMP JUMPDEST PUSH1 0x40 MLOAD DUP1 SWAP2 SUB SWAP1 RETURN JUMPDEST PUSH2 0x113 PUSH2 0x3AA JUMP JUMPDEST PUSH1 0x40 MLOAD PUSH2 0x120 SWAP2 SWAP1 PUSH2 0xCAA JUMP JUMPDEST PUSH1 0x40 MLOAD DUP1 SWAP2 SUB SWAP1 RETURN JUMPDEST PUSH2 0x143 PUSH1 0x4 DUP1 CALLDATASIZE SUB DUP2 ADD SWAP1 PUSH2 0x13E SWAP2 SWAP1 PUSH2 0xDF6 JUMP JUMPDEST PUSH2 0x400 JUMP JUMPDEST STOP JUMPDEST PUSH2 0x15F PUSH1 0x4 DUP1 CALLDATASIZE SUB DUP2 ADD SWAP1 PUSH2 0x15A SWAP2 SWAP1 PUSH2 0xA6D JUMP JUMPDEST PUSH2 0x5FC JUMP JUMPDEST PUSH1 0x40 MLOAD PUSH2 0x16C SWAP2 SWAP1 PUSH2 0xBC1 JUMP JUMPDEST PUSH1 0x40 MLOAD DUP1 SWAP2 SUB SWAP1 RETURN JUMPDEST PUSH2 0x18F PUSH1 0x4 DUP1 CALLDATASIZE SUB DUP2 ADD SWAP1 PUSH2 0x18A SWAP2 SWAP1 PUSH2 0xA6D JUMP JUMPDEST PUSH2 0x61C JUMP JUMPDEST PUSH1 0x40 MLOAD PUSH2 0x19C SWAP2 SWAP1 PUSH2 0xF39 JUMP JUMPDEST PUSH1 0x40 MLOAD DUP1 SWAP2 SUB SWAP1 RETURN JUMPDEST PUSH2 0x1BF PUSH1 0x4 DUP1 CALLDATASIZE SUB DUP2 ADD SWAP1 PUSH2 0x1BA SWAP2 SWAP1 PUSH2 0xA6D JUMP JUMPDEST PUSH2 0x826 JUMP JUMPDEST STOP JUMPDEST PUSH0 PUSH1 0x20 MSTORE DUP1 PUSH0 MSTORE PUSH1 0x40 PUSH0 KECCAK256 PUSH0 SWAP2 POP SWAP1 POP DUP1 PUSH0 ADD DUP1 SLOAD PUSH2 0x1DF SWAP1 PUSH2 0xF86 JUMP JUMPDEST DUP1 PUSH1 0x1F ADD PUSH1 0x20 DUP1 SWAP2 DIV MUL PUSH1 0x20 ADD PUSH1 0x40 MLOAD SWAP1 DUP2 ADD PUSH1 0x40 MSTORE DUP1 SWAP3 SWAP2 SWAP1 DUP2 DUP2 MSTORE PUSH1 0x20 ADD DUP3 DUP1 SLOAD PUSH2 0x20B SWAP1 PUSH2 0xF86 JUMP JUMPDEST DUP1 ISZERO PUSH2 0x256 JUMPI DUP1 PUSH1 0x1F LT PUSH2 0x22D JUMPI PUSH2 0x100 DUP1 DUP4 SLOAD DIV MUL DUP4 MSTORE SWAP2 PUSH1 0x20 ADD SWAP2 PUSH2 0x256 JUMP JUMPDEST DUP3 ADD SWAP2 SWAP1 PUSH0 MSTORE PUSH1 0x20 PUSH0 KECCAK256 SWAP1 JUMPDEST DUP2 SLOAD DUP2 MSTORE SWAP1 PUSH1 0x1 ADD SWAP1 PUSH1 0x20 ADD DUP1 DUP4 GT PUSH2 0x239 JUMPI DUP3 SWAP1 SUB PUSH1 0x1F AND DUP3 ADD SWAP2 JUMPDEST POP POP POP POP POP SWAP1 DUP1 PUSH1 0x1 ADD DUP1 SLOAD PUSH2 0x26B SWAP1 PUSH2 0xF86 JUMP JUMPDEST DUP1 PUSH1 0x1F ADD PUSH1 0x20 DUP1 SWAP2 DIV MUL PUSH1 0x20 ADD PUSH1 0x40 MLOAD SWAP1 DUP2 ADD PUSH1 0x40 MSTORE DUP1 SWAP3 SWAP2 SWAP1 DUP2 DUP2 MSTORE PUSH1 0x20 ADD DUP3 DUP1 SLOAD PUSH2 0x297 SWAP1 PUSH2 0xF86 JUMP JUMPDEST DUP1 ISZERO PUSH2 0x2E2 JUMPI DUP1 PUSH1 0x1F LT PUSH2 0x2B9 JUMPI PUSH2 0x100 DUP1 DUP4 SLOAD DIV MUL DUP4 MSTORE SWAP2 PUSH1 0x20 ADD SWAP2 PUSH2 0x2E2 JUMP JUMPDEST DUP3 ADD SWAP2 SWAP1 PUSH0 MSTORE PUSH1 0x20 PUSH0 KECCAK256 SWAP1 JUMPDEST DUP2 SLOAD DUP2 MSTORE SWAP1 PUSH1 0x1 ADD SWAP1 PUSH1 0x20 ADD DUP1 DUP4 GT PUSH2 0x2C5 JUMPI DUP3 SWAP1 SUB PUSH1 0x1F AND DUP3 ADD SWAP2 JUMPDEST POP POP POP POP POP SWAP1 DUP1 PUSH1 0x2 ADD PUSH0 SWAP1 SLOAD SWAP1 PUSH2 0x100 EXP SWAP1 DIV PUSH20 0xFFFFFFFFFFFFFFFFFFFFFFFFFFFFFFFFFFFFFFFF AND SWAP1 DUP1 PUSH1 0x2 ADD PUSH1 0x14 SWAP1 SLOAD SWAP1 PUSH2 0x100 EXP SWAP1 DIV PUSH1 0xFF AND SWAP1 POP DUP5 JUMP JUMPDEST PUSH0 PUSH1 0x1 DUP1 SLOAD SWAP1 POP SWAP1 POP SWAP1 JUMP JUMPDEST PUSH0 DUP2 PUSH0 DUP2 GT DUP1 ISZERO PUSH2 0x342 JUMPI POP PUSH1 0x2 SLOAD DUP2 LT JUMPDEST PUSH2 0x381 JUMPI PUSH1 0x40 MLOAD PUSH32 0x8C379A000000000000000000000000000000000000000000000000000000000 DUP2 MSTORE PUSH1 0x4 ADD PUSH2 0x378 SWAP1 PUSH2 0x1000 JUMP JUMPDEST PUSH1 0x40 MLOAD DUP1 SWAP2 SUB SWAP1 REVERT JUMPDEST PUSH0 PUSH0 DUP5 DUP2 MSTORE PUSH1 0x20 ADD SWAP1 DUP2 MSTORE PUSH1 0x20 ADD PUSH0 KECCAK256 PUSH1 0x2 ADD PUSH1 0x14 SWAP1 SLOAD SWAP1 PUSH2 0x100 EXP SWAP1 DIV PUSH1 0xFF AND SWAP2 POP POP SWAP2 SWAP1 POP JUMP JUMPDEST PUSH1 0x60 PUSH1 0x1 DUP1 SLOAD DUP1 PUSH1 0x20 MUL PUSH1 0x20 ADD PUSH1 0x40 MLOAD SWAP1 DUP2 ADD PUSH1 0x40 MSTORE DUP1 SWAP3 SWAP2 SWAP1 DUP2 DUP2 MSTORE PUSH1 0x20 ADD DUP3 DUP1 SLOAD DUP1 ISZERO PUSH2 0x3F6 JUMPI PUSH1 0x20 MUL DUP3 ADD SWAP2 SWAP1 PUSH0 MSTORE PUSH1 0x20 PUSH0 KECCAK256 SWAP1 JUMPDEST DUP2 SLOAD DUP2 MSTORE PUSH1 0x20 ADD SWAP1 PUSH1 0x1 ADD SWAP1 DUP1 DUP4 GT PUSH2 0x3E2 JUMPI JUMPDEST POP POP POP POP POP SWAP1 POP SWAP1 JUMP JUMPDEST PUSH0 DUP3 MLOAD GT PUSH2 0x443 JUMPI PUSH1 0x40 MLOAD PUSH32 0x8C379A000000000000000000000000000000000000000000000000000000000 DUP2 MSTORE PUSH1 0x4 ADD PUSH2 0x43A SWAP1 PUSH2 0x1068 JUMP JUMPDEST PUSH1 0x40 MLOAD DUP1 SWAP2 SUB SWAP1 REVERT JUMPDEST PUSH0 DUP2 MLOAD GT PUSH2 0x486 JUMPI PUSH1 0x40 MLOAD PUSH32 0x8C379A000000000000000000000000000000000000000000000000000000000 DUP2 MSTORE PUSH1 0x4 ADD PUSH2 0x47D SWAP1 PUSH2 0x10D0 JUMP JUMPDEST PUSH1 0x40 MLOAD DUP1 SWAP2 SUB SWAP1 REVERT JUMPDEST PUSH0 PUSH1 0x2 SLOAD SWAP1 POP PUSH1 0x40 MLOAD DUP1 PUSH1 0x80 ADD PUSH1 0x40 MSTORE DUP1 DUP5 DUP2 MSTORE PUSH1 0x20 ADD DUP4 DUP2 MSTORE PUSH1 0x20 ADD CALLER PUSH20 0xFFFFFFFFFFFFFFFFFFFFFFFFFFFFFFFFFFFFFFFF AND DUP2 MSTORE PUSH1 0x20 ADD PUSH1 0x1 ISZERO ISZERO DUP2 MSTORE POP PUSH0 PUSH0 DUP4 DUP2 MSTORE PUSH1 0x20 ADD SWAP1 DUP2 MSTORE PUSH1 0x20 ADD PUSH0 KECCAK256 PUSH0 DUP3 ADD MLOAD DUP2 PUSH0 ADD SWAP1 DUP2 PUSH2 0x4E9 SWAP2 SWAP1 PUSH2 0x129F JUMP JUMPDEST POP PUSH1 0x20 DUP3 ADD MLOAD DUP2 PUSH1 0x1 ADD SWAP1 DUP2 PUSH2 0x4FF SWAP2 SWAP1 PUSH2 0x129F JUMP JUMPDEST POP PUSH1 0x40 DUP3 ADD MLOAD DUP2 PUSH1 0x2 ADD PUSH0 PUSH2 0x100 EXP DUP2 SLOAD DUP2 PUSH20 0xFFFFFFFFFFFFFFFFFFFFFFFFFFFFFFFFFFFFFFFF MUL NOT AND SWAP1 DUP4 PUSH20 0xFFFFFFFFFFFFFFFFFFFFFFFFFFFFFFFFFFFFFFFF AND MUL OR SWAP1 SSTORE POP PUSH1 0x60 DUP3 ADD MLOAD DUP2 PUSH1 0x2 ADD PUSH1 0x14 PUSH2 0x100 EXP DUP2 SLOAD DUP2 PUSH1 0xFF MUL NOT AND SWAP1 DUP4 ISZERO ISZERO MUL OR SWAP1 SSTORE POP SWAP1 POP POP PUSH1 0x1 DUP2 SWAP1 DUP1 PUSH1 0x1 DUP2 SLOAD ADD DUP1 DUP3 SSTORE DUP1 SWAP2 POP POP PUSH1 0x1 SWAP1 SUB SWAP1 PUSH0 MSTORE PUSH1 0x20 PUSH0 KECCAK256 ADD PUSH0 SWAP1 SWAP2 SWAP1 SWAP2 SWAP1 SWAP2 POP SSTORE CALLER PUSH20 0xFFFFFFFFFFFFFFFFFFFFFFFFFFFFFFFFFFFFFFFF AND DUP2 PUSH32 0xA2ED3E4C977F75F5745574412C2A365041206F0CB48E738C5EFEF51A4373CBA DUP6 DUP6 PUSH1 0x40 MLOAD PUSH2 0x5D8 SWAP3 SWAP2 SWAP1 PUSH2 0x136E JUMP JUMPDEST PUSH1 0x40 MLOAD DUP1 SWAP2 SUB SWAP1 LOG3 PUSH1 0x2 PUSH0 DUP2 SLOAD DUP1 SWAP3 SWAP2 SWAP1 PUSH2 0x5F2 SWAP1 PUSH2 0x13D0 JUMP JUMPDEST SWAP2 SWAP1 POP SSTORE POP POP POP POP JUMP JUMPDEST PUSH1 0x1 DUP2 DUP2 SLOAD DUP2 LT PUSH2 0x60B JUMPI PUSH0 DUP1 REVERT JUMPDEST SWAP1 PUSH0 MSTORE PUSH1 0x20 PUSH0 KECCAK256 ADD PUSH0 SWAP2 POP SWAP1 POP SLOAD DUP2 JUMP JUMPDEST PUSH2 0x624 PUSH2 0x9EB JUMP JUMPDEST DUP2 PUSH0 DUP2 GT DUP1 ISZERO PUSH2 0x635 JUMPI POP PUSH1 0x2 SLOAD DUP2 LT JUMPDEST PUSH2 0x674 JUMPI PUSH1 0x40 MLOAD PUSH32 0x8C379A000000000000000000000000000000000000000000000000000000000 DUP2 MSTORE PUSH1 0x4 ADD PUSH2 0x66B SWAP1 PUSH2 0x1000 JUMP JUMPDEST PUSH1 0x40 MLOAD DUP1 SWAP2 SUB SWAP1 REVERT JUMPDEST PUSH0 PUSH0 DUP5 DUP2 MSTORE PUSH1 0x20 ADD SWAP1 DUP2 MSTORE PUSH1 0x20 ADD PUSH0 KECCAK256 PUSH1 0x40 MLOAD DUP1 PUSH1 0x80 ADD PUSH1 0x40 MSTORE SWAP1 DUP2 PUSH0 DUP3 ADD DUP1 SLOAD PUSH2 0x69E SWAP1 PUSH2 0xF86 JUMP JUMPDEST DUP1 PUSH1 0x1F ADD PUSH1 0x20 DUP1 SWAP2 DIV MUL PUSH1 0x20 ADD PUSH1 0x40 MLOAD SWAP1 DUP2 ADD PUSH1 0x40 MSTORE DUP1 SWAP3 SWAP2 SWAP1 DUP2 DUP2 MSTORE PUSH1 0x20 ADD DUP3 DUP1 SLOAD PUSH2 0x6CA SWAP1 PUSH2 0xF86 JUMP JUMPDEST DUP1 ISZERO PUSH2 0x715 JUMPI DUP1 PUSH1 0x1F LT PUSH2 0x6EC JUMPI PUSH2 0x100 DUP1 DUP4 SLOAD DIV MUL DUP4 MSTORE SWAP2 PUSH1 0x20 ADD SWAP2 PUSH2 0x715 JUMP JUMPDEST DUP3 ADD SWAP2 SWAP1 PUSH0 MSTORE PUSH1 0x20 PUSH0 KECCAK256 SWAP1 JUMPDEST DUP2 SLOAD DUP2 MSTORE SWAP1 PUSH1 0x1 ADD SWAP1 PUSH1 0x20 ADD DUP1 DUP4 GT PUSH2 0x6F8 JUMPI DUP3 SWAP1 SUB PUSH1 0x1F AND DUP3 ADD SWAP2 JUMPDEST POP POP POP POP POP DUP2 MSTORE PUSH1 0x20 ADD PUSH1 0x1 DUP3 ADD DUP1 SLOAD PUSH2 0x72E SWAP1 PUSH2 0xF86 JUMP JUMPDEST DUP1 PUSH1 0x1F ADD PUSH1 0x20 DUP1 SWAP2 DIV MUL PUSH1 0x20 ADD PUSH1 0x40 MLOAD SWAP1 DUP2 ADD PUSH1 0x40 MSTORE DUP1 SWAP3 SWAP2 SWAP1 DUP2 DUP2 MSTORE PUSH1 0x20 ADD DUP3 DUP1 SLOAD PUSH2 0x75A SWAP1 PUSH2 0xF86 JUMP JUMPDEST DUP1 ISZERO PUSH2 0x7A5 JUMPI DUP1 PUSH1 0x1F LT PUSH2 0x77C JUMPI PUSH2 0x100 DUP1 DUP4 SLOAD DIV MUL DUP4 MSTORE SWAP2 PUSH1 0x20 ADD SWAP2 PUSH2 0x7A5 JUMP JUMPDEST DUP3 ADD SWAP2 SWAP1 PUSH0 MSTORE PUSH1 0x20 PUSH0 KECCAK256 SWAP1 JUMPDEST DUP2 SLOAD DUP2 MSTORE SWAP1 PUSH1 0x1 ADD SWAP1 PUSH1 0x20 ADD DUP1 DUP4 GT PUSH2 0x788 JUMPI DUP3 SWAP1 SUB PUSH1 0x1F AND DUP3 ADD SWAP2 JUMPDEST POP POP POP POP POP DUP2 MSTORE PUSH1 0x20 ADD PUSH1 0x2 DUP3 ADD PUSH0 SWAP1 SLOAD SWAP1 PUSH2 0x100 EXP SWAP1 DIV PUSH20 0xFFFFFFFFFFFFFFFFFFFFFFFFFFFFFFFFFFFFFFFF AND PUSH20 0xFFFFFFFFFFFFFFFFFFFFFFFFFFFFFFFFFFFFFFFF AND PUSH20 0xFFFFFFFFFFFFFFFFFFFFFFFFFFFFFFFFFFFFFFFF AND DUP2 MSTORE PUSH1 0x20 ADD PUSH1 0x2 DUP3 ADD PUSH1 0x14 SWAP1 SLOAD SWAP1 PUSH2 0x100 EXP SWAP1 DIV PUSH1 0xFF AND ISZERO ISZERO ISZERO ISZERO DUP2 MSTORE POP POP SWAP2 POP POP SWAP2 SWAP1 POP JUMP JUMPDEST DUP1 PUSH0 DUP2 GT DUP1 ISZERO PUSH2 0x837 JUMPI POP PUSH1 0x2 SLOAD DUP2 LT JUMPDEST PUSH2 0x876 JUMPI PUSH1 0x40 MLOAD PUSH32 0x8C379A000000000000000000000000000000000000000000000000000000000 DUP2 MSTORE PUSH1 0x4 ADD PUSH2 0x86D SWAP1 PUSH2 0x1000 JUMP JUMPDEST PUSH1 0x40 MLOAD DUP1 SWAP2 SUB SWAP1 REVERT JUMPDEST DUP2 CALLER PUSH20 0xFFFFFFFFFFFFFFFFFFFFFFFFFFFFFFFFFFFFFFFF AND PUSH0 PUSH0 DUP4 DUP2 MSTORE PUSH1 0x20 ADD SWAP1 DUP2 MSTORE PUSH1 0x20 ADD PUSH0 KECCAK256 PUSH1 0x2 ADD PUSH0 SWAP1 SLOAD SWAP1 PUSH2 0x100 EXP SWAP1 DIV PUSH20 0xFFFFFFFFFFFFFFFFFFFFFFFFFFFFFFFFFFFFFFFF AND PUSH20 0xFFFFFFFFFFFFFFFFFFFFFFFFFFFFFFFFFFFFFFFF AND EQ PUSH2 0x917 JUMPI PUSH1 0x40 MLOAD PUSH32 0x8C379A000000000000000000000000000000000000000000000000000000000 DUP2 MSTORE PUSH1 0x4 ADD PUSH2 0x90E SWAP1 PUSH2 0x1461 JUMP JUMPDEST PUSH1 0x40 MLOAD DUP1 SWAP2 SUB SWAP1 REVERT JUMPDEST PUSH0 PUSH0 DUP5 DUP2 MSTORE PUSH1 0x20 ADD SWAP1 DUP2 MSTORE PUSH1 0x20 ADD PUSH0 KECCAK256 PUSH1 0x2 ADD PUSH1 0x14 SWAP1 SLOAD SWAP1 PUSH2 0x100 EXP SWAP1 DIV PUSH1 0xFF AND PUSH2 0x977 JUMPI PUSH1 0x40 MLOAD PUSH32 0x8C379A000000000000000000000000000000000000000000000000000000000 DUP2 MSTORE PUSH1 0x4 ADD PUSH2 0x96E SWAP1 PUSH2 0x14C9 JUMP JUMPDEST PUSH1 0x40 MLOAD DUP1 SWAP2 SUB SWAP1 REVERT JUMPDEST PUSH0 PUSH0 PUSH0 DUP6 DUP2 MSTORE PUSH1 0x20 ADD SWAP1 DUP2 MSTORE PUSH1 0x20 ADD PUSH0 KECCAK256 PUSH1 0x2 ADD PUSH1 0x14 PUSH2 0x100 EXP DUP2 SLOAD DUP2 PUSH1 0xFF MUL NOT AND SWAP1 DUP4 ISZERO ISZERO MUL OR SWAP1 SSTORE POP CALLER PUSH20 0xFFFFFFFFFFFFFFFFFFFFFFFFFFFFFFFFFFFFFFFF AND DUP4 PUSH32 0xC5BC70DCBAA7453C88ACB052849608A31643CA7B9865B086176CFC8FA995720B PUSH1 0x40 MLOAD PUSH1 0x40 MLOAD DUP1 SWAP2 SUB SWAP1 LOG3 POP POP POP JUMP JUMPDEST PUSH1 0x40 MLOAD DUP1 PUSH1 0x80 ADD PUSH1 0x40 MSTORE DUP1 PUSH1 0x60 DUP2 MSTORE PUSH1 0x20 ADD PUSH1 0x60 DUP2 MSTORE PUSH1 0x20 ADD PUSH0 PUSH20 0xFFFFFFFFFFFFFFFFFFFFFFFFFFFFFFFFFFFFFFFF AND DUP2 MSTORE PUSH1 0x20 ADD PUSH0 ISZERO ISZERO DUP2 MSTORE POP SWAP1 JUMP JUMPDEST PUSH0 PUSH1 0x40 MLOAD SWAP1 POP SWAP1 JUMP JUMPDEST PUSH0 PUSH0 REVERT JUMPDEST PUSH0 PUSH0 REVERT JUMPDEST PUSH0 DUP2 SWAP1 POP SWAP2 SWAP1 POP JUMP JUMPDEST PUSH2 0xA4C DUP2 PUSH2 0xA3A JUMP JUMPDEST DUP2 EQ PUSH2 0xA56 JUMPI PUSH0 PUSH0 REVERT JUMPDEST POP JUMP JUMPDEST PUSH0 DUP2 CALLDATALOAD SWAP1 POP PUSH2 0xA67 DUP2 PUSH2 0xA43 JUMP JUMPDEST SWAP3 SWAP2 POP POP JUMP JUMPDEST PUSH0 PUSH1 0x20 DUP3 DUP5 SUB SLT ISZERO PUSH2 0xA82 JUMPI PUSH2 0xA81 PUSH2 0xA32 JUMP JUMPDEST JUMPDEST PUSH0 PUSH2 0xA8F DUP5 DUP3 DUP6 ADD PUSH2 0xA59 JUMP JUMPDEST SWAP2 POP POP SWAP3 SWAP2 POP POP JUMP JUMPDEST PUSH0 DUP2 MLOAD SWAP1 POP SWAP2 SWAP1 POP JUMP JUMPDEST PUSH0 DUP3 DUP3 MSTORE PUSH1 0x20 DUP3 ADD SWAP1 POP SWAP3 SWAP2 POP POP JUMP JUMPDEST DUP3 DUP2 DUP4 MCOPY PUSH0 DUP4 DUP4 ADD MSTORE POP POP POP JUMP JUMPDEST PUSH0 PUSH1 0x1F NOT PUSH1 0x1F DUP4 ADD AND SWAP1 POP SWAP2 SWAP1 POP JUMP JUMPDEST PUSH0 PUSH2 0xADA DUP3 PUSH2 0xA98 JUMP JUMPDEST PUSH2 0xAE4 DUP2 DUP6 PUSH2 0xAA2 JUMP JUMPDEST SWAP4 POP PUSH2 0xAF4 DUP2 DUP6 PUSH1 0x20 DUP7 ADD PUSH2 0xAB2 JUMP JUMPDEST PUSH2 0xAFD DUP2 PUSH2 0xAC0 JUMP JUMPDEST DUP5 ADD SWAP2 POP POP SWAP3 SWAP2 POP POP JUMP JUMPDEST PUSH0 PUSH20 0xFFFFFFFFFFFFFFFFFFFFFFFFFFFFFFFFFFFFFFFF DUP3 AND SWAP1 POP SWAP2 SWAP1 POP JUMP JUMPDEST PUSH0 PUSH2 0xB31 DUP3 PUSH2 0xB08 JUMP JUMPDEST SWAP1 POP SWAP2 SWAP1 POP JUMP JUMPDEST PUSH2 0xB41 DUP2 PUSH2 0xB27 JUMP JUMPDEST DUP3 MSTORE POP POP JUMP JUMPDEST PUSH0 DUP2 ISZERO ISZERO SWAP1 POP SWAP2 SWAP1 POP JUMP JUMPDEST PUSH2 0xB5B DUP2 PUSH2 0xB47 JUMP JUMPDEST DUP3 MSTORE POP POP JUMP JUMPDEST PUSH0 PUSH1 0x80 DUP3 ADD SWAP1 POP DUP2 DUP2 SUB PUSH0 DUP4 ADD MSTORE PUSH2 0xB79 DUP2 DUP8 PUSH2 0xAD0 JUMP JUMPDEST SWAP1 POP DUP2 DUP2 SUB PUSH1 0x20 DUP4 ADD MSTORE PUSH2 0xB8D DUP2 DUP7 PUSH2 0xAD0 JUMP JUMPDEST SWAP1 POP PUSH2 0xB9C PUSH1 0x40 DUP4 ADD DUP6 PUSH2 0xB38 JUMP JUMPDEST PUSH2 0xBA9 PUSH1 0x60 DUP4 ADD DUP5 PUSH2 0xB52 JUMP JUMPDEST SWAP6 SWAP5 POP POP POP POP POP JUMP JUMPDEST PUSH2 0xBBB DUP2 PUSH2 0xA3A JUMP JUMPDEST DUP3 MSTORE POP POP JUMP JUMPDEST PUSH0 PUSH1 0x20 DUP3 ADD SWAP1 POP PUSH2 0xBD4 PUSH0 DUP4 ADD DUP5 PUSH2 0xBB2 JUMP JUMPDEST SWAP3 SWAP2 POP POP JUMP JUMPDEST PUSH0 PUSH1 0x20 DUP3 ADD SWAP1 POP PUSH2 0xBED PUSH0 DUP4 ADD DUP5 PUSH2 0xB52 JUMP JUMPDEST SWAP3 SWAP2 POP POP JUMP JUMPDEST PUSH0 DUP2 MLOAD SWAP1 POP SWAP2 SWAP1 POP JUMP JUMPDEST PUSH0 DUP3 DUP3 MSTORE PUSH1 0x20 DUP3 ADD SWAP1 POP SWAP3 SWAP2 POP POP JUMP JUMPDEST PUSH0 DUP2 SWAP1 POP PUSH1 0x20 DUP3 ADD SWAP1 POP SWAP2 SWAP1 POP JUMP JUMPDEST PUSH2 0xC25 DUP2 PUSH2 0xA3A JUMP JUMPDEST DUP3 MSTORE POP POP JUMP JUMPDEST PUSH0 PUSH2 0xC36 DUP4 DUP4 PUSH2 0xC1C JUMP JUMPDEST PUSH1 0x20 DUP4 ADD SWAP1 POP SWAP3 SWAP2 POP POP JUMP JUMPDEST PUSH0 PUSH1 0x20 DUP3 ADD SWAP1 POP SWAP2 SWAP1 POP JUMP JUMPDEST PUSH0 PUSH2 0xC58 DUP3 PUSH2 0xBF3 JUMP JUMPDEST PUSH2 0xC62 DUP2 DUP6 PUSH2 0xBFD JUMP JUMPDEST SWAP4 POP PUSH2 0xC6D DUP4 PUSH2 0xC0D JUMP JUMPDEST DUP1 PUSH0 JUMPDEST DUP4 DUP2 LT ISZERO PUSH2 0xC9D JUMPI DUP2 MLOAD PUSH2 0xC84 DUP9 DUP3 PUSH2 0xC2B JUMP JUMPDEST SWAP8 POP PUSH2 0xC8F DUP4 PUSH2 0xC42 JUMP JUMPDEST SWAP3 POP POP PUSH1 0x1 DUP2 ADD SWAP1 POP PUSH2 0xC70 JUMP JUMPDEST POP DUP6 SWAP4 POP POP POP POP SWAP3 SWAP2 POP POP JUMP JUMPDEST PUSH0 PUSH1 0x20 DUP3 ADD SWAP1 POP DUP2 DUP2 SUB PUSH0 DUP4 ADD MSTORE PUSH2 0xCC2 DUP2 DUP5 PUSH2 0xC4E JUMP JUMPDEST SWAP1 POP SWAP3 SWAP2 POP POP JUMP JUMPDEST PUSH0 PUSH0 REVERT JUMPDEST PUSH0 PUSH0 REVERT JUMPDEST PUSH32 0x4E487B7100000000000000000000000000000000000000000000000000000000 PUSH0 MSTORE PUSH1 0x41 PUSH1 0x4 MSTORE PUSH1 0x24 PUSH0 REVERT JUMPDEST PUSH2 0xD08 DUP3 PUSH2 0xAC0 JUMP JUMPDEST DUP2 ADD DUP2 DUP2 LT PUSH8 0xFFFFFFFFFFFFFFFF DUP3 GT OR ISZERO PUSH2 0xD27 JUMPI PUSH2 0xD26 PUSH2 0xCD2 JUMP JUMPDEST JUMPDEST DUP1 PUSH1 0x40 MSTORE POP POP POP JUMP JUMPDEST PUSH0 PUSH2 0xD39 PUSH2 0xA29 JUMP JUMPDEST SWAP1 POP PUSH2 0xD45 DUP3 DUP3 PUSH2 0xCFF JUMP JUMPDEST SWAP2 SWAP1 POP JUMP JUMPDEST PUSH0 PUSH8 0xFFFFFFFFFFFFFFFF DUP3 GT ISZERO PUSH2 0xD64 JUMPI PUSH2 0xD63 PUSH2 0xCD2 JUMP JUMPDEST JUMPDEST PUSH2 0xD6D DUP3 PUSH2 0xAC0 JUMP JUMPDEST SWAP1 POP PUSH1 0x20 DUP2 ADD SWAP1 POP SWAP2 SWAP1 POP JUMP JUMPDEST DUP3 DUP2 DUP4 CALLDATACOPY PUSH0 DUP4 DUP4 ADD MSTORE POP POP POP JUMP JUMPDEST PUSH0 PUSH2 0xD9A PUSH2 0xD95 DUP5 PUSH2 0xD4A JUMP JUMPDEST PUSH2 0xD30 JUMP JUMPDEST SWAP1 POP DUP3 DUP2 MSTORE PUSH1 0x20 DUP2 ADD DUP5 DUP5 DUP5 ADD GT ISZERO PUSH2 0xDB6 JUMPI PUSH2 0xDB5 PUSH2 0xCCE JUMP JUMPDEST JUMPDEST PUSH2 0xDC1 DUP5 DUP3 DUP6 PUSH2 0xD7A JUMP JUMPDEST POP SWAP4 SWAP3 POP POP POP JUMP JUMPDEST PUSH0 DUP3 PUSH1 0x1F DUP4 ADD SLT PUSH2 0xDDD JUMPI PUSH2 0xDDC PUSH2 0xCCA JUMP JUMPDEST JUMPDEST DUP2 CALLDATALOAD PUSH2 0xDED DUP5 DUP3 PUSH1 0x20 DUP7 ADD PUSH2 0xD88 JUMP JUMPDEST SWAP2 POP POP SWAP3 SWAP2 POP POP JUMP JUMPDEST PUSH0 PUSH0 PUSH1 0x40 DUP4 DUP6 SUB SLT ISZERO PUSH2 0xE0C JUMPI PUSH2 0xE0B PUSH2 0xA32 JUMP JUMPDEST JUMPDEST PUSH0 DUP4 ADD CALLDATALOAD PUSH8 0xFFFFFFFFFFFFFFFF DUP2 GT ISZERO PUSH2 0xE29 JUMPI PUSH2 0xE28 PUSH2 0xA36 JUMP JUMPDEST JUMPDEST PUSH2 0xE35 DUP6 DUP3 DUP7 ADD PUSH2 0xDC9 JUMP JUMPDEST SWAP3 POP POP PUSH1 0x20 DUP4 ADD CALLDATALOAD PUSH8 0xFFFFFFFFFFFFFFFF DUP2 GT ISZERO PUSH2 0xE56 JUMPI PUSH2 0xE55 PUSH2 0xA36 JUMP JUMPDEST JUMPDEST PUSH2 0xE62 DUP6 DUP3 DUP7 ADD PUSH2 0xDC9 JUMP JUMPDEST SWAP2 POP POP SWAP3 POP SWAP3 SWAP1 POP JUMP JUMPDEST PUSH0 DUP3 DUP3 MSTORE PUSH1 0x20 DUP3 ADD SWAP1 POP SWAP3 SWAP2 POP POP JUMP JUMPDEST PUSH0 PUSH2 0xE86 DUP3 PUSH2 0xA98 JUMP JUMPDEST PUSH2 0xE90 DUP2 DUP6 PUSH2 0xE6C JUMP JUMPDEST SWAP4 POP PUSH2 0xEA0 DUP2 DUP6 PUSH1 0x20 DUP7 ADD PUSH2 0xAB2 JUMP JUMPDEST PUSH2 0xEA9 DUP2 PUSH2 0xAC0 JUMP JUMPDEST DUP5 ADD SWAP2 POP POP SWAP3 SWAP2 POP POP JUMP JUMPDEST PUSH2 0xEBD DUP2 PUSH2 0xB27 JUMP JUMPDEST DUP3 MSTORE POP POP JUMP JUMPDEST PUSH2 0xECC DUP2 PUSH2 0xB47 JUMP JUMPDEST DUP3 MSTORE POP POP JUMP JUMPDEST PUSH0 PUSH1 0x80 DUP4 ADD PUSH0 DUP4 ADD MLOAD DUP5 DUP3 SUB PUSH0 DUP7 ADD MSTORE PUSH2 0xEEC DUP3 DUP3 PUSH2 0xE7C JUMP JUMPDEST SWAP2 POP POP PUSH1 0x20 DUP4 ADD MLOAD DUP5 DUP3 SUB PUSH1 0x20 DUP7 ADD MSTORE PUSH2 0xF06 DUP3 DUP3 PUSH2 0xE7C JUMP JUMPDEST SWAP2 POP POP PUSH1 0x40 DUP4 ADD MLOAD PUSH2 0xF1B PUSH1 0x40 DUP7 ADD DUP3 PUSH2 0xEB4 JUMP JUMPDEST POP PUSH1 0x60 DUP4 ADD MLOAD PUSH2 0xF2E PUSH1 0x60 DUP7 ADD DUP3 PUSH2 0xEC3 JUMP JUMPDEST POP DUP1 SWAP2 POP POP SWAP3 SWAP2 POP POP JUMP JUMPDEST PUSH0 PUSH1 0x20 DUP3 ADD SWAP1 POP DUP2 DUP2 SUB PUSH0 DUP4 ADD MSTORE PUSH2 0xF51 DUP2 DUP5 PUSH2 0xED2 JUMP JUMPDEST SWAP1 POP SWAP3 SWAP2 POP POP JUMP JUMPDEST PUSH32 0x4E487B7100000000000000000000000000000000000000000000000000000000 PUSH0 MSTORE PUSH1 0x22 PUSH1 0x4 MSTORE PUSH1 0x24 PUSH0 REVERT JUMPDEST PUSH0 PUSH1 0x2 DUP3 DIV SWAP1 POP PUSH1 0x1 DUP3 AND DUP1 PUSH2 0xF9D JUMPI PUSH1 0x7F DUP3 AND SWAP2 POP JUMPDEST PUSH1 0x20 DUP3 LT DUP2 SUB PUSH2 0xFB0 JUMPI PUSH2 0xFAF PUSH2 0xF59 JUMP JUMPDEST JUMPDEST POP SWAP2 SWAP1 POP JUMP JUMPDEST PUSH32 0x546F6B656E20646F6573206E6F74206578697374000000000000000000000000 PUSH0 DUP3 ADD MSTORE POP JUMP JUMPDEST PUSH0 PUSH2 0xFEA PUSH1 0x14 DUP4 PUSH2 0xAA2 JUMP JUMPDEST SWAP2 POP PUSH2 0xFF5 DUP3 PUSH2 0xFB6 JUMP JUMPDEST PUSH1 0x20 DUP3 ADD SWAP1 POP SWAP2 SWAP1 POP JUMP JUMPDEST PUSH0 PUSH1 0x20 DUP3 ADD SWAP1 POP DUP2 DUP2 SUB PUSH0 DUP4 ADD MSTORE PUSH2 0x1017 DUP2 PUSH2 0xFDE JUMP JUMPDEST SWAP1 POP SWAP2 SWAP1 POP JUMP JUMPDEST PUSH32 0x546F6B656E206E616D652063616E6E6F7420626520656D707479000000000000 PUSH0 DUP3 ADD MSTORE POP JUMP JUMPDEST PUSH0 PUSH2 0x1052 PUSH1 0x1A DUP4 PUSH2 0xAA2 JUMP JUMPDEST SWAP2 POP PUSH2 0x105D DUP3 PUSH2 0x101E JUMP JUMPDEST PUSH1 0x20 DUP3 ADD SWAP1 POP SWAP2 SWAP1 POP JUMP JUMPDEST PUSH0 PUSH1 0x20 DUP3 ADD SWAP1 POP DUP2 DUP2 SUB PUSH0 DUP4 ADD MSTORE PUSH2 0x107F DUP2 PUSH2 0x1046 JUMP JUMPDEST SWAP1 POP SWAP2 SWAP1 POP JUMP JUMPDEST PUSH32 0x546F6B656E2073796D626F6C2063616E6E6F7420626520656D70747900000000 PUSH0 DUP3 ADD MSTORE POP JUMP JUMPDEST PUSH0 PUSH2 0x10BA PUSH1 0x1C DUP4 PUSH2 0xAA2 JUMP JUMPDEST SWAP2 POP PUSH2 0x10C5 DUP3 PUSH2 0x1086 JUMP JUMPDEST PUSH1 0x20 DUP3 ADD SWAP1 POP SWAP2 SWAP1 POP JUMP JUMPDEST PUSH0 PUSH1 0x20 DUP3 ADD SWAP1 POP DUP2 DUP2 SUB PUSH0 DUP4 ADD MSTORE PUSH2 0x10E7 DUP2 PUSH2 0x10AE JUMP JUMPDEST SWAP1 POP SWAP2 SWAP1 POP JUMP JUMPDEST PUSH0 DUP2 SWAP1 POP DUP2 PUSH0 MSTORE PUSH1 0x20 PUSH0 KECCAK256 SWAP1 POP SWAP2 SWAP1 POP JUMP JUMPDEST PUSH0 PUSH1 0x20 PUSH1 0x1F DUP4 ADD DIV SWAP1 POP SWAP2 SWAP1 POP JUMP JUMPDEST PUSH0 DUP3 DUP3 SHL SWAP1 POP SWAP3 SWAP2 POP POP JUMP JUMPDEST PUSH0 PUSH1 0x8 DUP4 MUL PUSH2 0x114A PUSH32 0xFFFFFFFFFFFFFFFFFFFFFFFFFFFFFFFFFFFFFFFFFFFFFFFFFFFFFFFFFFFFFFFF DUP3 PUSH2 0x110F JUMP JUMPDEST PUSH2 0x1154 DUP7 DUP4 PUSH2 0x110F JUMP JUMPDEST SWAP6 POP DUP1 NOT DUP5 AND SWAP4 POP DUP1 DUP7 AND DUP5 OR SWAP3 POP POP POP SWAP4 SWAP3 POP POP POP JUMP JUMPDEST PUSH0 DUP2 SWAP1 POP SWAP2 SWAP1 POP JUMP JUMPDEST PUSH0 PUSH2 0x118F PUSH2 0x118A PUSH2 0x1185 DUP5 PUSH2 0xA3A JUMP JUMPDEST PUSH2 0x116C JUMP JUMPDEST PUSH2 0xA3A JUMP JUMPDEST SWAP1 POP SWAP2 SWAP1 POP JUMP JUMPDEST PUSH0 DUP2 SWAP1 POP SWAP2 SWAP1 POP JUMP JUMPDEST PUSH2 0x11A8 DUP4 PUSH2 0x1175 JUMP JUMPDEST PUSH2 0x11BC PUSH2 0x11B4 DUP3 PUSH2 0x1196 JUMP JUMPDEST DUP5 DUP5 SLOAD PUSH2 0x111B JUMP JUMPDEST DUP3 SSTORE POP POP POP POP JUMP JUMPDEST PUSH0 PUSH0 SWAP1 POP SWAP1 JUMP JUMPDEST PUSH2 0x11D3 PUSH2 0x11C4 JUMP JUMPDEST PUSH2 0x11DE DUP2 DUP5 DUP5 PUSH2 0x119F JUMP JUMPDEST POP POP POP JUMP JUMPDEST PUSH0 JUMPDEST DUP3 DUP2 LT ISZERO PUSH2 0x1204 JUMPI PUSH2 0x11F9 PUSH0 DUP3 DUP5 ADD PUSH2 0x11CB JUMP JUMPDEST PUSH1 0x1 DUP2 ADD SWAP1 POP PUSH2 0x11E5 JUMP JUMPDEST POP POP POP JUMP JUMPDEST PUSH1 0x1F DUP3 GT ISZERO PUSH2 0x1257 JUMPI DUP3 DUP3 GT ISZERO PUSH2 0x1256 JUMPI PUSH2 0x1223 DUP2 PUSH2 0x10EE JUMP JUMPDEST PUSH2 0x122C DUP4 PUSH2 0x1100 JUMP JUMPDEST PUSH2 0x1235 DUP6 PUSH2 0x1100 JUMP JUMPDEST PUSH1 0x20 DUP7 LT ISZERO PUSH2 0x1242 JUMPI PUSH0 SWAP1 POP JUMPDEST DUP1 DUP4 ADD PUSH2 0x1251 DUP3 DUP5 SUB DUP3 PUSH2 0x11E3 JUMP JUMPDEST POP POP POP POP JUMPDEST JUMPDEST POP POP POP JUMP JUMPDEST PUSH0 DUP3 DUP3 SHR SWAP1 POP SWAP3 SWAP2 POP POP JUMP JUMPDEST PUSH0 PUSH2 0x1277 PUSH0 NOT DUP5 PUSH1 0x8 MUL PUSH2 0x125C JUMP JUMPDEST NOT DUP1 DUP4 AND SWAP2 POP POP SWAP3 SWAP2 POP POP JUMP JUMPDEST PUSH0 PUSH2 0x128F DUP4 DUP4 PUSH2 0x1268 JUMP JUMPDEST SWAP2 POP DUP3 PUSH1 0x2 MUL DUP3 OR SWAP1 POP SWAP3 SWAP2 POP POP JUMP JUMPDEST PUSH2 0x12A8 DUP3 PUSH2 0xA98 JUMP JUMPDEST PUSH8 0xFFFFFFFFFFFFFFFF DUP2 GT ISZERO PUSH2 0x12C1 JUMPI PUSH2 0x12C0 PUSH2 0xCD2 JUMP JUMPDEST JUMPDEST PUSH2 0x12CB DUP3 SLOAD PUSH2 0xF86 JUMP JUMPDEST PUSH2 0x12D6 DUP3 DUP3 DUP6 PUSH2 0x1209 JUMP JUMPDEST PUSH0 PUSH1 0x20 SWAP1 POP PUSH1 0x1F DUP4 GT PUSH1 0x1 DUP2 EQ PUSH2 0x1307 JUMPI PUSH0 DUP5 ISZERO PUSH2 0x12F5 JUMPI DUP3 DUP8 ADD MLOAD SWAP1 POP JUMPDEST PUSH2 0x12FF DUP6 DUP3 PUSH2 0x1284 JUMP JUMPDEST DUP7 SSTORE POP PUSH2 0x1366 JUMP JUMPDEST PUSH1 0x1F NOT DUP5 AND PUSH2 0x1315 DUP7 PUSH2 0x10EE JUMP JUMPDEST PUSH0 JUMPDEST DUP3 DUP2 LT ISZERO PUSH2 0x133C JUMPI DUP5 DUP10 ADD MLOAD DUP3 SSTORE PUSH1 0x1 DUP3 ADD SWAP2 POP PUSH1 0x20 DUP6 ADD SWAP5 POP PUSH1 0x20 DUP2 ADD SWAP1 POP PUSH2 0x1317 JUMP JUMPDEST DUP7 DUP4 LT ISZERO PUSH2 0x1359 JUMPI DUP5 DUP10 ADD MLOAD PUSH2 0x1355 PUSH1 0x1F DUP10 AND DUP3 PUSH2 0x1268 JUMP JUMPDEST DUP4 SSTORE POP JUMPDEST PUSH1 0x1 PUSH1 0x2 DUP9 MUL ADD DUP9 SSTORE POP POP POP JUMPDEST POP POP POP POP POP POP JUMP JUMPDEST PUSH0 PUSH1 0x40 DUP3 ADD SWAP1 POP DUP2 DUP2 SUB PUSH0 DUP4 ADD MSTORE PUSH2 0x1386 DUP2 DUP6 PUSH2 0xAD0 JUMP JUMPDEST SWAP1 POP DUP2 DUP2 SUB PUSH1 0x20 DUP4 ADD MSTORE PUSH2 0x139A DUP2 DUP5 PUSH2 0xAD0 JUMP JUMPDEST SWAP1 POP SWAP4 SWAP3 POP POP POP JUMP JUMPDEST PUSH32 0x4E487B7100000000000000000000000000000000000000000000000000000000 PUSH0 MSTORE PUSH1 0x11 PUSH1 0x4 MSTORE PUSH1 0x24 PUSH0 REVERT JUMPDEST PUSH0 PUSH2 0x13DA DUP3 PUSH2 0xA3A JUMP JUMPDEST SWAP2 POP PUSH32 0xFFFFFFFFFFFFFFFFFFFFFFFFFFFFFFFFFFFFFFFFFFFFFFFFFFFFFFFFFFFFFFFF DUP3 SUB PUSH2 0x140C JUMPI PUSH2 0x140B PUSH2 0x13A3 JUMP JUMPDEST JUMPDEST PUSH1 0x1 DUP3 ADD SWAP1 POP SWAP2 SWAP1 POP JUMP JUMPDEST PUSH32 0x4F6E6C7920746F6B656E206F776E65722063616E206465616374697661746500 PUSH0 DUP3 ADD MSTORE POP JUMP JUMPDEST PUSH0 PUSH2 0x144B PUSH1 0x1F DUP4 PUSH2 0xAA2 JUMP JUMPDEST SWAP2 POP PUSH2 0x1456 DUP3 PUSH2 0x1417 JUMP JUMPDEST PUSH1 0x20 DUP3 ADD SWAP1 POP SWAP2 SWAP1 POP JUMP JUMPDEST PUSH0 PUSH1 0x20 DUP3 ADD SWAP1 POP DUP2 DUP2 SUB PUSH0 DUP4 ADD MSTORE PUSH2 0x1478 DUP2 PUSH2 0x143F JUMP JUMPDEST SWAP1 POP SWAP2 SWAP1 POP JUMP JUMPDEST PUSH32 0x546F6B656E20697320616C726561647920696E61637469766500000000000000 PUSH0 DUP3 ADD MSTORE POP JUMP JUMPDEST PUSH0 PUSH2 0x14B3 PUSH1 0x19 DUP4 PUSH2 0xAA2 JUMP JUMPDEST SWAP2 POP PUSH2 0x14BE DUP3 PUSH2 0x147F JUMP JUMPDEST PUSH1 0x20 DUP3 ADD SWAP1 POP SWAP2 SWAP1 POP JUMP JUMPDEST PUSH0 PUSH1 0x20 DUP3 ADD SWAP1 POP DUP2 DUP2 SUB PUSH0 DUP4 ADD MSTORE PUSH2 0x14E0 DUP2 PUSH2 0x14A7 JUMP JUMPDEST SWAP1 POP SWAP2 SWAP1 POP JUMP INVALID LOG2 PUSH5 0x6970667358 0x22 SLT KECCAK256 RETURNDATACOPY JUMPF 0x5815 0x4F 0xAE BLOBBASEFEE 0xC5 0x2C DUP5 EXTCODEHASH PUSH7 0xEFED769D0B3F97 SHL 0xD RETURN SSTORE 0xF6 SGT REVERT PUSH30 0xF1F44595CD64736F6C634300082200330000000000000000000000000000 "
				},
				"gasEstimates": {
					"creation": {
						"codeDepositCost": "1081000",
						"executionCost": "23224",
						"totalCost": "1104224"
					},
					"external": {
						"deactivateToken(uint256)": "33099",
						"getAllTokenIds()": "infinite",
						"getToken(uint256)": "infinite",
						"getTokenCount()": "2463",
						"isTokenActive(uint256)": "5069",
						"registerToken(string,string)": "infinite",
						"tokenIds(uint256)": "infinite",
						"tokens(uint256)": "infinite"
					}
				},
				"methodIdentifiers": {
					"deactivateToken(uint256)": "ec991da9",
					"getAllTokenIds()": "bdbed722",
					"getToken(uint256)": "e4b50cb8",
					"getTokenCount()": "78a89567",
					"isTokenActive(uint256)": "9b0b92ef",
					"registerToken(string,string)": "ce20d4b3",
					"tokenIds(uint256)": "d58778d6",
					"tokens(uint256)": "4f64b2be"
				}
			},
			"storageLayout": {
				"storage": [
					{
						"astId": 15,
						"contract": "contracts/TokenRegistery.sol:TokenRegistry",
						"label": "tokens",
						"offset": 0,
						"slot": "0",
						"type": "t_mapping(t_uint256,t_struct(Token)10_storage)"
					},
					{
						"astId": 18,
						"contract": "contracts/TokenRegistery.sol:TokenRegistry",
						"label": "tokenIds",
						"offset": 0,
						"slot": "1",
						"type": "t_array(t_uint256)dyn_storage"
					},
					{
						"astId": 21,
						"contract": "contracts/TokenRegistery.sol:TokenRegistry",
						"label": "tokenIdCounter",
						"offset": 0,
						"slot": "2",
						"type": "t_uint256"
					}
				],
				"types": {
					"t_address": {
						"encoding": "inplace",
						"label": "address",
						"numberOfBytes": "20"
					},
					"t_array(t_uint256)dyn_storage": {
						"base": "t_uint256",
						"encoding": "dynamic_array",
						"label": "uint256[]",
						"numberOfBytes": "32"
					},
					"t_bool": {
						"encoding": "inplace",
						"label": "bool",
						"numberOfBytes": "1"
					},
					"t_mapping(t_uint256,t_struct(Token)10_storage)": {
						"encoding": "mapping",
						"key": "t_uint256",
						"label": "mapping(uint256 => struct TokenRegistry.Token)",
						"numberOfBytes": "32",
						"value": "t_struct(Token)10_storage"
					},
					"t_string_storage": {
						"encoding": "bytes",
						"label": "string",
						"numberOfBytes": "32"
					},
					"t_struct(Token)10_storage": {
						"encoding": "inplace",
						"label": "struct TokenRegistry.Token",
						"members": [
							{
								"astId": 3,
								"contract": "contracts/TokenRegistery.sol:TokenRegistry",
								"label": "name",
								"offset": 0,
								"slot": "0",
								"type": "t_string_storage"
							},
							{
								"astId": 5,
								"contract": "contracts/TokenRegistery.sol:TokenRegistry",
								"label": "symbol",
								"offset": 0,
								"slot": "1",
								"type": "t_string_storage"
							},
							{
								"astId": 7,
								"contract": "contracts/TokenRegistery.sol:TokenRegistry",
								"label": "owner",
								"offset": 0,
								"slot": "2",
								"type": "t_address"
							},
							{
								"astId": 9,
								"contract": "contracts/TokenRegistery.sol:TokenRegistry",
								"label": "isActive",
								"offset": 20,
								"slot": "2",
								"type": "t_bool"
							}
						],
						"numberOfBytes": "96"
					},
					"t_uint256": {
						"encoding": "inplace",
						"label": "uint256",
						"numberOfBytes": "32"
					}
				}
			},
			"userdoc": {
				"kind": "user",
				"methods": {},
				"version": 1
			}
		}
	}
}