{
	"contracts/simpleForLoop.sol": {
		"SimpleLoop": {
			"abi": [
				{
					"inputs": [],
					"name": "callPureInternally",
					"outputs": [],
					"stateMutability": "nonpayable",
					"type": "function"
				},
				{
					"inputs": [
						{
							"internalType": "uint256",
							"name": "n",
							"type": "uint256"
						}
					],
					"name": "expensivePure",
					"outputs": [
						{
							"internalType": "uint256",
							"name": "",
							"type": "uint256"
						}
					],
					"stateMutability": "pure",
					"type": "function"
				},
				{
					"inputs": [
						{
							"internalType": "uint256[]",
							"name": "arr",
							"type": "uint256[]"
						}
					],
					"name": "findFirstEven",
					"outputs": [
						{
							"internalType": "uint256",
							"name": "",
							"type": "uint256"
						}
					],
					"stateMutability": "pure",
					"type": "function"
				},
				{
					"inputs": [],
					"name": "result",
					"outputs": [
						{
							"internalType": "uint256",
							"name": "",
							"type": "uint256"
						}
					],
					"stateMutability": "view",
					"type": "function"
				}
			],
			"devdoc": {
				"kind": "dev",
				"methods": {},
				"version": 1
			},
			"evm": {
				"assembly": "    /* \"contracts/simpleForLoop.sol\":61:695  contract SimpleLoop{... */\n  mstore(0x40, 0x80)\n  callvalue\n  dup1\n  iszero\n  tag_1\n  jumpi\n  revert(0x00, 0x00)\ntag_1:\n  pop\n  dataSize(sub_0)\n  dup1\n  dataOffset(sub_0)\n  0x00\n  codecopy\n  0x00\n  return\nstop\n\nsub_0: assembly {\n        /* \"contracts/simpleForLoop.sol\":61:695  contract SimpleLoop{... */\n      mstore(0x40, 0x80)\n      callvalue\n      dup1\n      iszero\n      tag_1\n      jumpi\n      revert(0x00, 0x00)\n    tag_1:\n      pop\n      jumpi(tag_2, lt(calldatasize, 0x04))\n      shr(0xe0, calldataload(0x00))\n      dup1\n      0x5bda3c73\n      eq\n      tag_3\n      jumpi\n      dup1\n      0x65372147\n      eq\n      tag_4\n      jumpi\n      dup1\n      0x97b6b748\n      eq\n      tag_5\n      jumpi\n      dup1\n      0xb9d0f03b\n      eq\n      tag_6\n      jumpi\n    tag_2:\n      revert(0x00, 0x00)\n        /* \"contracts/simpleForLoop.sol\":320:400  function callPureInternally()public{... */\n    tag_3:\n      tag_7\n      tag_8\n      jump\t// in\n    tag_7:\n      stop\n        /* \"contracts/simpleForLoop.sol\":87:105  uint public result */\n    tag_4:\n      tag_9\n      tag_10\n      jump\t// in\n    tag_9:\n      mload(0x40)\n      tag_11\n      swap2\n      swap1\n      tag_12\n      jump\t// in\n    tag_11:\n      mload(0x40)\n      dup1\n      swap2\n      sub\n      swap1\n      return\n        /* \"contracts/simpleForLoop.sol\":112:314  function expensivePure(uint256 n) public pure returns(uint256){... */\n    tag_5:\n      tag_13\n      0x04\n      dup1\n      calldatasize\n      sub\n      dup2\n      add\n      swap1\n      tag_14\n      swap2\n      swap1\n      tag_15\n      jump\t// in\n    tag_14:\n      tag_16\n      jump\t// in\n    tag_13:\n      mload(0x40)\n      tag_17\n      swap2\n      swap1\n      tag_12\n      jump\t// in\n    tag_17:\n      mload(0x40)\n      dup1\n      swap2\n      sub\n      swap1\n      return\n        /* \"contracts/simpleForLoop.sol\":406:692  function findFirstEven(uint[] memory arr) public pure returns (uint) {... */\n    tag_6:\n      tag_18\n      0x04\n      dup1\n      calldatasize\n      sub\n      dup2\n      add\n      swap1\n      tag_19\n      swap2\n      swap1\n      tag_20\n      jump\t// in\n    tag_19:\n      tag_21\n      jump\t// in\n    tag_18:\n      mload(0x40)\n      tag_22\n      swap2\n      swap1\n      tag_12\n      jump\t// in\n    tag_22:\n      mload(0x40)\n      dup1\n      swap2\n      sub\n      swap1\n      return\n        /* \"contracts/simpleForLoop.sol\":320:400  function callPureInternally()public{... */\n    tag_8:\n        /* \"contracts/simpleForLoop.sol\":375:392  expensivePure(10) */\n      tag_24\n        /* \"contracts/simpleForLoop.sol\":389:391  10 */\n      0x0a\n        /* \"contracts/simpleForLoop.sol\":375:388  expensivePure */\n      tag_16\n        /* \"contracts/simpleForLoop.sol\":375:392  expensivePure(10) */\n      jump\t// in\n    tag_24:\n        /* \"contracts/simpleForLoop.sol\":366:372  result */\n      0x00\n        /* \"contracts/simpleForLoop.sol\":366:392  result = expensivePure(10) */\n      dup2\n      swap1\n      sstore\n      pop\n        /* \"contracts/simpleForLoop.sol\":320:400  function callPureInternally()public{... */\n      jump\t// out\n        /* \"contracts/simpleForLoop.sol\":87:105  uint public result */\n    tag_10:\n      sload(0x00)\n      dup2\n      jump\t// out\n        /* \"contracts/simpleForLoop.sol\":112:314  function expensivePure(uint256 n) public pure returns(uint256){... */\n    tag_16:\n        /* \"contracts/simpleForLoop.sol\":166:173  uint256 */\n      0x00\n        /* \"contracts/simpleForLoop.sol\":185:196  uint256 sum */\n      0x00\n        /* \"contracts/simpleForLoop.sol\":198:199  0 */\n      0x00\n        /* \"contracts/simpleForLoop.sol\":185:199  uint256 sum =0 */\n      swap1\n      pop\n        /* \"contracts/simpleForLoop.sol\":214:223  uint256 i */\n      0x00\n        /* \"contracts/simpleForLoop.sol\":226:227  0 */\n      0x00\n        /* \"contracts/simpleForLoop.sol\":214:227  uint256 i = 0 */\n      swap1\n      pop\n        /* \"contracts/simpleForLoop.sol\":210:286  for(uint256 i = 0; i <= n; i++)... */\n    tag_26:\n        /* \"contracts/simpleForLoop.sol\":234:235  n */\n      dup4\n        /* \"contracts/simpleForLoop.sol\":229:230  i */\n      dup2\n        /* \"contracts/simpleForLoop.sol\":229:235  i <= n */\n      gt\n        /* \"contracts/simpleForLoop.sol\":210:286  for(uint256 i = 0; i <= n; i++)... */\n      tag_27\n      jumpi\n        /* \"contracts/simpleForLoop.sol\":273:274  i */\n      dup1\n        /* \"contracts/simpleForLoop.sol\":266:274  sum += i */\n      dup3\n      tag_29\n      swap2\n      swap1\n      tag_30\n      jump\t// in\n    tag_29:\n      swap2\n      pop\n        /* \"contracts/simpleForLoop.sol\":237:240  i++ */\n      dup1\n      dup1\n      tag_31\n      swap1\n      tag_32\n      jump\t// in\n    tag_31:\n      swap2\n      pop\n      pop\n        /* \"contracts/simpleForLoop.sol\":210:286  for(uint256 i = 0; i <= n; i++)... */\n      jump(tag_26)\n    tag_27:\n      pop\n        /* \"contracts/simpleForLoop.sol\":303:306  sum */\n      dup1\n        /* \"contracts/simpleForLoop.sol\":296:306  return sum */\n      swap2\n      pop\n      pop\n        /* \"contracts/simpleForLoop.sol\":112:314  function expensivePure(uint256 n) public pure returns(uint256){... */\n      swap2\n      swap1\n      pop\n      jump\t// out\n        /* \"contracts/simpleForLoop.sol\":406:692  function findFirstEven(uint[] memory arr) public pure returns (uint) {... */\n    tag_21:\n        /* \"contracts/simpleForLoop.sol\":469:473  uint */\n      0x00\n        /* \"contracts/simpleForLoop.sol\":486:492  uint i */\n      0x00\n        /* \"contracts/simpleForLoop.sol\":495:496  0 */\n      0x00\n        /* \"contracts/simpleForLoop.sol\":486:496  uint i = 0 */\n      swap1\n      pop\n        /* \"contracts/simpleForLoop.sol\":507:657  while (i < arr.length) {... */\n    tag_34:\n        /* \"contracts/simpleForLoop.sol\":518:521  arr */\n      dup3\n        /* \"contracts/simpleForLoop.sol\":518:528  arr.length */\n      mload\n        /* \"contracts/simpleForLoop.sol\":514:515  i */\n      dup2\n        /* \"contracts/simpleForLoop.sol\":514:528  i < arr.length */\n      lt\n        /* \"contracts/simpleForLoop.sol\":507:657  while (i < arr.length) {... */\n      iszero\n      tag_35\n      jumpi\n        /* \"contracts/simpleForLoop.sol\":563:564  0 */\n      0x00\n        /* \"contracts/simpleForLoop.sol\":558:559  2 */\n      0x02\n        /* \"contracts/simpleForLoop.sol\":549:552  arr */\n      dup5\n        /* \"contracts/simpleForLoop.sol\":553:554  i */\n      dup4\n        /* \"contracts/simpleForLoop.sol\":549:555  arr[i] */\n      dup2\n      mload\n      dup2\n      lt\n      tag_36\n      jumpi\n      tag_37\n      tag_38\n      jump\t// in\n    tag_37:\n    tag_36:\n      0x20\n      mul\n      0x20\n      add\n      add\n      mload\n        /* \"contracts/simpleForLoop.sol\":549:559  arr[i] % 2 */\n      tag_39\n      swap2\n      swap1\n      tag_40\n      jump\t// in\n    tag_39:\n        /* \"contracts/simpleForLoop.sol\":549:564  arr[i] % 2 == 0 */\n      sub\n        /* \"contracts/simpleForLoop.sol\":545:628  if (arr[i] % 2 == 0) {... */\n      tag_41\n      jumpi\n        /* \"contracts/simpleForLoop.sol\":592:595  arr */\n      dup3\n        /* \"contracts/simpleForLoop.sol\":596:597  i */\n      dup2\n        /* \"contracts/simpleForLoop.sol\":592:598  arr[i] */\n      dup2\n      mload\n      dup2\n      lt\n      tag_42\n      jumpi\n      tag_43\n      tag_38\n      jump\t// in\n    tag_43:\n    tag_42:\n      0x20\n      mul\n      0x20\n      add\n      add\n      mload\n        /* \"contracts/simpleForLoop.sol\":585:598  return arr[i] */\n      swap2\n      pop\n      pop\n      jump(tag_33)\n        /* \"contracts/simpleForLoop.sol\":545:628  if (arr[i] % 2 == 0) {... */\n    tag_41:\n        /* \"contracts/simpleForLoop.sol\":642:645  i++ */\n      dup1\n      dup1\n      tag_44\n      swap1\n      tag_32\n      jump\t// in\n    tag_44:\n      swap2\n      pop\n      pop\n        /* \"contracts/simpleForLoop.sol\":507:657  while (i < arr.length) {... */\n      jump(tag_34)\n    tag_35:\n        /* \"contracts/simpleForLoop.sol\":674:675  0 */\n      0x00\n        /* \"contracts/simpleForLoop.sol\":667:675  return 0 */\n      swap2\n      pop\n      pop\n        /* \"contracts/simpleForLoop.sol\":406:692  function findFirstEven(uint[] memory arr) public pure returns (uint) {... */\n    tag_33:\n      swap2\n      swap1\n      pop\n      jump\t// out\n        /* \"#utility.yul\":7:84   */\n    tag_45:\n        /* \"#utility.yul\":44:51   */\n      0x00\n        /* \"#utility.yul\":73:78   */\n      dup2\n        /* \"#utility.yul\":62:78   */\n      swap1\n      pop\n        /* \"#utility.yul\":7:84   */\n      swap2\n      swap1\n      pop\n      jump\t// out\n        /* \"#utility.yul\":90:208   */\n    tag_46:\n        /* \"#utility.yul\":177:201   */\n      tag_66\n        /* \"#utility.yul\":195:200   */\n      dup2\n        /* \"#utility.yul\":177:201   */\n      tag_45\n      jump\t// in\n    tag_66:\n        /* \"#utility.yul\":172:175   */\n      dup3\n        /* \"#utility.yul\":165:202   */\n      mstore\n        /* \"#utility.yul\":90:208   */\n      pop\n      pop\n      jump\t// out\n        /* \"#utility.yul\":214:436   */\n    tag_12:\n        /* \"#utility.yul\":307:311   */\n      0x00\n        /* \"#utility.yul\":345:347   */\n      0x20\n        /* \"#utility.yul\":334:343   */\n      dup3\n        /* \"#utility.yul\":330:348   */\n      add\n        /* \"#utility.yul\":322:348   */\n      swap1\n      pop\n        /* \"#utility.yul\":358:429   */\n      tag_68\n        /* \"#utility.yul\":426:427   */\n      0x00\n        /* \"#utility.yul\":415:424   */\n      dup4\n        /* \"#utility.yul\":411:428   */\n      add\n        /* \"#utility.yul\":402:408   */\n      dup5\n        /* \"#utility.yul\":358:429   */\n      tag_46\n      jump\t// in\n    tag_68:\n        /* \"#utility.yul\":214:436   */\n      swap3\n      swap2\n      pop\n      pop\n      jump\t// out\n        /* \"#utility.yul\":442:517   */\n    tag_47:\n        /* \"#utility.yul\":475:481   */\n      0x00\n        /* \"#utility.yul\":508:510   */\n      0x40\n        /* \"#utility.yul\":502:511   */\n      mload\n        /* \"#utility.yul\":492:511   */\n      swap1\n      pop\n        /* \"#utility.yul\":442:517   */\n      swap1\n      jump\t// out\n        /* \"#utility.yul\":523:640   */\n    tag_48:\n        /* \"#utility.yul\":632:633   */\n      0x00\n        /* \"#utility.yul\":629:630   */\n      0x00\n        /* \"#utility.yul\":622:634   */\n      revert\n        /* \"#utility.yul\":646:763   */\n    tag_49:\n        /* \"#utility.yul\":755:756   */\n      0x00\n        /* \"#utility.yul\":752:753   */\n      0x00\n        /* \"#utility.yul\":745:757   */\n      revert\n        /* \"#utility.yul\":769:891   */\n    tag_50:\n        /* \"#utility.yul\":842:866   */\n      tag_73\n        /* \"#utility.yul\":860:865   */\n      dup2\n        /* \"#utility.yul\":842:866   */\n      tag_45\n      jump\t// in\n    tag_73:\n        /* \"#utility.yul\":835:840   */\n      dup2\n        /* \"#utility.yul\":832:867   */\n      eq\n        /* \"#utility.yul\":822:885   */\n      tag_74\n      jumpi\n        /* \"#utility.yul\":881:882   */\n      0x00\n        /* \"#utility.yul\":878:879   */\n      0x00\n        /* \"#utility.yul\":871:883   */\n      revert\n        /* \"#utility.yul\":822:885   */\n    tag_74:\n        /* \"#utility.yul\":769:891   */\n      pop\n      jump\t// out\n        /* \"#utility.yul\":897:1036   */\n    tag_51:\n        /* \"#utility.yul\":943:948   */\n      0x00\n        /* \"#utility.yul\":981:987   */\n      dup2\n        /* \"#utility.yul\":968:988   */\n      calldataload\n        /* \"#utility.yul\":959:988   */\n      swap1\n      pop\n        /* \"#utility.yul\":997:1030   */\n      tag_76\n        /* \"#utility.yul\":1024:1029   */\n      dup2\n        /* \"#utility.yul\":997:1030   */\n      tag_50\n      jump\t// in\n    tag_76:\n        /* \"#utility.yul\":897:1036   */\n      swap3\n      swap2\n      pop\n      pop\n      jump\t// out\n        /* \"#utility.yul\":1042:1371   */\n    tag_15:\n        /* \"#utility.yul\":1101:1107   */\n      0x00\n        /* \"#utility.yul\":1150:1152   */\n      0x20\n        /* \"#utility.yul\":1138:1147   */\n      dup3\n        /* \"#utility.yul\":1129:1136   */\n      dup5\n        /* \"#utility.yul\":1125:1148   */\n      sub\n        /* \"#utility.yul\":1121:1153   */\n      slt\n        /* \"#utility.yul\":1118:1237   */\n      iszero\n      tag_78\n      jumpi\n        /* \"#utility.yul\":1156:1235   */\n      tag_79\n      tag_48\n      jump\t// in\n    tag_79:\n        /* \"#utility.yul\":1118:1237   */\n    tag_78:\n        /* \"#utility.yul\":1276:1277   */\n      0x00\n        /* \"#utility.yul\":1301:1354   */\n      tag_80\n        /* \"#utility.yul\":1346:1353   */\n      dup5\n        /* \"#utility.yul\":1337:1343   */\n      dup3\n        /* \"#utility.yul\":1326:1335   */\n      dup6\n        /* \"#utility.yul\":1322:1344   */\n      add\n        /* \"#utility.yul\":1301:1354   */\n      tag_51\n      jump\t// in\n    tag_80:\n        /* \"#utility.yul\":1291:1354   */\n      swap2\n      pop\n        /* \"#utility.yul\":1247:1364   */\n      pop\n        /* \"#utility.yul\":1042:1371   */\n      swap3\n      swap2\n      pop\n      pop\n      jump\t// out\n        /* \"#utility.yul\":1377:1494   */\n    tag_52:\n        /* \"#utility.yul\":1486:1487   */\n      0x00\n        /* \"#utility.yul\":1483:1484   */\n      0x00\n        /* \"#utility.yul\":1476:1488   */\n      revert\n        /* \"#utility.yul\":1500:1602   */\n    tag_53:\n        /* \"#utility.yul\":1541:1547   */\n      0x00\n        /* \"#utility.yul\":1592:1594   */\n      0x1f\n        /* \"#utility.yul\":1588:1595   */\n      not\n        /* \"#utility.yul\":1583:1585   */\n      0x1f\n        /* \"#utility.yul\":1576:1581   */\n      dup4\n        /* \"#utility.yul\":1572:1586   */\n      add\n        /* \"#utility.yul\":1568:1596   */\n      and\n        /* \"#utility.yul\":1558:1596   */\n      swap1\n      pop\n        /* \"#utility.yul\":1500:1602   */\n      swap2\n      swap1\n      pop\n      jump\t// out\n        /* \"#utility.yul\":1608:1788   */\n    tag_54:\n        /* \"#utility.yul\":1656:1733   */\n      0x4e487b7100000000000000000000000000000000000000000000000000000000\n        /* \"#utility.yul\":1653:1654   */\n      0x00\n        /* \"#utility.yul\":1646:1734   */\n      mstore\n        /* \"#utility.yul\":1753:1757   */\n      0x41\n        /* \"#utility.yul\":1750:1751   */\n      0x04\n        /* \"#utility.yul\":1743:1758   */\n      mstore\n        /* \"#utility.yul\":1777:1781   */\n      0x24\n        /* \"#utility.yul\":1774:1775   */\n      0x00\n        /* \"#utility.yul\":1767:1782   */\n      revert\n        /* \"#utility.yul\":1794:2075   */\n    tag_55:\n        /* \"#utility.yul\":1877:1904   */\n      tag_85\n        /* \"#utility.yul\":1899:1903   */\n      dup3\n        /* \"#utility.yul\":1877:1904   */\n      tag_53\n      jump\t// in\n    tag_85:\n        /* \"#utility.yul\":1869:1875   */\n      dup2\n        /* \"#utility.yul\":1865:1905   */\n      add\n        /* \"#utility.yul\":2007:2013   */\n      dup2\n        /* \"#utility.yul\":1995:2005   */\n      dup2\n        /* \"#utility.yul\":1992:2014   */\n      lt\n        /* \"#utility.yul\":1971:1989   */\n      0xffffffffffffffff\n        /* \"#utility.yul\":1959:1969   */\n      dup3\n        /* \"#utility.yul\":1956:1990   */\n      gt\n        /* \"#utility.yul\":1953:2015   */\n      or\n        /* \"#utility.yul\":1950:2038   */\n      iszero\n      tag_86\n      jumpi\n        /* \"#utility.yul\":2018:2036   */\n      tag_87\n      tag_54\n      jump\t// in\n    tag_87:\n        /* \"#utility.yul\":1950:2038   */\n    tag_86:\n        /* \"#utility.yul\":2058:2068   */\n      dup1\n        /* \"#utility.yul\":2054:2056   */\n      0x40\n        /* \"#utility.yul\":2047:2069   */\n      mstore\n        /* \"#utility.yul\":1837:2075   */\n      pop\n        /* \"#utility.yul\":1794:2075   */\n      pop\n      pop\n      jump\t// out\n        /* \"#utility.yul\":2081:2210   */\n    tag_56:\n        /* \"#utility.yul\":2115:2121   */\n      0x00\n        /* \"#utility.yul\":2142:2162   */\n      tag_89\n      tag_47\n      jump\t// in\n    tag_89:\n        /* \"#utility.yul\":2132:2162   */\n      swap1\n      pop\n        /* \"#utility.yul\":2171:2204   */\n      tag_90\n        /* \"#utility.yul\":2199:2203   */\n      dup3\n        /* \"#utility.yul\":2191:2197   */\n      dup3\n        /* \"#utility.yul\":2171:2204   */\n      tag_55\n      jump\t// in\n    tag_90:\n        /* \"#utility.yul\":2081:2210   */\n      swap2\n      swap1\n      pop\n      jump\t// out\n        /* \"#utility.yul\":2216:2527   */\n    tag_57:\n        /* \"#utility.yul\":2293:2297   */\n      0x00\n        /* \"#utility.yul\":2383:2401   */\n      0xffffffffffffffff\n        /* \"#utility.yul\":2375:2381   */\n      dup3\n        /* \"#utility.yul\":2372:2402   */\n      gt\n        /* \"#utility.yul\":2369:2425   */\n      iszero\n      tag_92\n      jumpi\n        /* \"#utility.yul\":2405:2423   */\n      tag_93\n      tag_54\n      jump\t// in\n    tag_93:\n        /* \"#utility.yul\":2369:2425   */\n    tag_92:\n        /* \"#utility.yul\":2455:2459   */\n      0x20\n        /* \"#utility.yul\":2447:2453   */\n      dup3\n        /* \"#utility.yul\":2443:2460   */\n      mul\n        /* \"#utility.yul\":2435:2460   */\n      swap1\n      pop\n        /* \"#utility.yul\":2515:2519   */\n      0x20\n        /* \"#utility.yul\":2509:2513   */\n      dup2\n        /* \"#utility.yul\":2505:2520   */\n      add\n        /* \"#utility.yul\":2497:2520   */\n      swap1\n      pop\n        /* \"#utility.yul\":2216:2527   */\n      swap2\n      swap1\n      pop\n      jump\t// out\n        /* \"#utility.yul\":2533:2650   */\n    tag_58:\n        /* \"#utility.yul\":2642:2643   */\n      0x00\n        /* \"#utility.yul\":2639:2640   */\n      0x00\n        /* \"#utility.yul\":2632:2644   */\n      revert\n        /* \"#utility.yul\":2673:3383   */\n    tag_59:\n        /* \"#utility.yul\":2769:2774   */\n      0x00\n        /* \"#utility.yul\":2794:2875   */\n      tag_96\n        /* \"#utility.yul\":2810:2874   */\n      tag_97\n        /* \"#utility.yul\":2867:2873   */\n      dup5\n        /* \"#utility.yul\":2810:2874   */\n      tag_57\n      jump\t// in\n    tag_97:\n        /* \"#utility.yul\":2794:2875   */\n      tag_56\n      jump\t// in\n    tag_96:\n        /* \"#utility.yul\":2785:2875   */\n      swap1\n      pop\n        /* \"#utility.yul\":2895:2900   */\n      dup1\n        /* \"#utility.yul\":2924:2930   */\n      dup4\n        /* \"#utility.yul\":2917:2922   */\n      dup3\n        /* \"#utility.yul\":2910:2931   */\n      mstore\n        /* \"#utility.yul\":2958:2962   */\n      0x20\n        /* \"#utility.yul\":2951:2956   */\n      dup3\n        /* \"#utility.yul\":2947:2963   */\n      add\n        /* \"#utility.yul\":2940:2963   */\n      swap1\n      pop\n        /* \"#utility.yul\":3011:3015   */\n      0x20\n        /* \"#utility.yul\":3003:3009   */\n      dup5\n        /* \"#utility.yul\":2999:3016   */\n      mul\n        /* \"#utility.yul\":2991:2997   */\n      dup4\n        /* \"#utility.yul\":2987:3017   */\n      add\n        /* \"#utility.yul\":3040:3043   */\n      dup6\n        /* \"#utility.yul\":3032:3038   */\n      dup2\n        /* \"#utility.yul\":3029:3044   */\n      gt\n        /* \"#utility.yul\":3026:3148   */\n      iszero\n      tag_98\n      jumpi\n        /* \"#utility.yul\":3059:3138   */\n      tag_99\n      tag_58\n      jump\t// in\n    tag_99:\n        /* \"#utility.yul\":3026:3148   */\n    tag_98:\n        /* \"#utility.yul\":3174:3180   */\n      dup4\n        /* \"#utility.yul\":3157:3377   */\n    tag_100:\n        /* \"#utility.yul\":3191:3197   */\n      dup2\n        /* \"#utility.yul\":3186:3189   */\n      dup2\n        /* \"#utility.yul\":3183:3198   */\n      lt\n        /* \"#utility.yul\":3157:3377   */\n      iszero\n      tag_102\n      jumpi\n        /* \"#utility.yul\":3266:3269   */\n      dup1\n        /* \"#utility.yul\":3295:3332   */\n      tag_103\n        /* \"#utility.yul\":3328:3331   */\n      dup9\n        /* \"#utility.yul\":3316:3326   */\n      dup3\n        /* \"#utility.yul\":3295:3332   */\n      tag_51\n      jump\t// in\n    tag_103:\n        /* \"#utility.yul\":3290:3293   */\n      dup5\n        /* \"#utility.yul\":3283:3333   */\n      mstore\n        /* \"#utility.yul\":3362:3366   */\n      0x20\n        /* \"#utility.yul\":3357:3360   */\n      dup5\n        /* \"#utility.yul\":3353:3367   */\n      add\n        /* \"#utility.yul\":3346:3367   */\n      swap4\n      pop\n        /* \"#utility.yul\":3233:3377   */\n      pop\n        /* \"#utility.yul\":3217:3221   */\n      0x20\n        /* \"#utility.yul\":3212:3215   */\n      dup2\n        /* \"#utility.yul\":3208:3222   */\n      add\n        /* \"#utility.yul\":3201:3222   */\n      swap1\n      pop\n        /* \"#utility.yul\":3157:3377   */\n      jump(tag_100)\n    tag_102:\n        /* \"#utility.yul\":3161:3182   */\n      pop\n        /* \"#utility.yul\":2775:3383   */\n      pop\n      pop\n        /* \"#utility.yul\":2673:3383   */\n      swap4\n      swap3\n      pop\n      pop\n      pop\n      jump\t// out\n        /* \"#utility.yul\":3406:3776   */\n    tag_60:\n        /* \"#utility.yul\":3477:3482   */\n      0x00\n        /* \"#utility.yul\":3526:3529   */\n      dup3\n        /* \"#utility.yul\":3519:3523   */\n      0x1f\n        /* \"#utility.yul\":3511:3517   */\n      dup4\n        /* \"#utility.yul\":3507:3524   */\n      add\n        /* \"#utility.yul\":3503:3530   */\n      slt\n        /* \"#utility.yul\":3493:3615   */\n      tag_105\n      jumpi\n        /* \"#utility.yul\":3534:3613   */\n      tag_106\n      tag_52\n      jump\t// in\n    tag_106:\n        /* \"#utility.yul\":3493:3615   */\n    tag_105:\n        /* \"#utility.yul\":3651:3657   */\n      dup2\n        /* \"#utility.yul\":3638:3658   */\n      calldataload\n        /* \"#utility.yul\":3676:3770   */\n      tag_107\n        /* \"#utility.yul\":3766:3769   */\n      dup5\n        /* \"#utility.yul\":3758:3764   */\n      dup3\n        /* \"#utility.yul\":3751:3755   */\n      0x20\n        /* \"#utility.yul\":3743:3749   */\n      dup7\n        /* \"#utility.yul\":3739:3756   */\n      add\n        /* \"#utility.yul\":3676:3770   */\n      tag_59\n      jump\t// in\n    tag_107:\n        /* \"#utility.yul\":3667:3770   */\n      swap2\n      pop\n        /* \"#utility.yul\":3483:3776   */\n      pop\n        /* \"#utility.yul\":3406:3776   */\n      swap3\n      swap2\n      pop\n      pop\n      jump\t// out\n        /* \"#utility.yul\":3782:4321   */\n    tag_20:\n        /* \"#utility.yul\":3866:3872   */\n      0x00\n        /* \"#utility.yul\":3915:3917   */\n      0x20\n        /* \"#utility.yul\":3903:3912   */\n      dup3\n        /* \"#utility.yul\":3894:3901   */\n      dup5\n        /* \"#utility.yul\":3890:3913   */\n      sub\n        /* \"#utility.yul\":3886:3918   */\n      slt\n        /* \"#utility.yul\":3883:4002   */\n      iszero\n      tag_109\n      jumpi\n        /* \"#utility.yul\":3921:4000   */\n      tag_110\n      tag_48\n      jump\t// in\n    tag_110:\n        /* \"#utility.yul\":3883:4002   */\n    tag_109:\n        /* \"#utility.yul\":4069:4070   */\n      0x00\n        /* \"#utility.yul\":4058:4067   */\n      dup3\n        /* \"#utility.yul\":4054:4071   */\n      add\n        /* \"#utility.yul\":4041:4072   */\n      calldataload\n        /* \"#utility.yul\":4099:4117   */\n      0xffffffffffffffff\n        /* \"#utility.yul\":4091:4097   */\n      dup2\n        /* \"#utility.yul\":4088:4118   */\n      gt\n        /* \"#utility.yul\":4085:4202   */\n      iszero\n      tag_111\n      jumpi\n        /* \"#utility.yul\":4121:4200   */\n      tag_112\n      tag_49\n      jump\t// in\n    tag_112:\n        /* \"#utility.yul\":4085:4202   */\n    tag_111:\n        /* \"#utility.yul\":4226:4304   */\n      tag_113\n        /* \"#utility.yul\":4296:4303   */\n      dup5\n        /* \"#utility.yul\":4287:4293   */\n      dup3\n        /* \"#utility.yul\":4276:4285   */\n      dup6\n        /* \"#utility.yul\":4272:4294   */\n      add\n        /* \"#utility.yul\":4226:4304   */\n      tag_60\n      jump\t// in\n    tag_113:\n        /* \"#utility.yul\":4216:4304   */\n      swap2\n      pop\n        /* \"#utility.yul\":4012:4314   */\n      pop\n        /* \"#utility.yul\":3782:4321   */\n      swap3\n      swap2\n      pop\n      pop\n      jump\t// out\n        /* \"#utility.yul\":4327:4507   */\n    tag_61:\n        /* \"#utility.yul\":4375:4452   */\n      0x4e487b7100000000000000000000000000000000000000000000000000000000\n        /* \"#utility.yul\":4372:4373   */\n      0x00\n        /* \"#utility.yul\":4365:4453   */\n      mstore\n        /* \"#utility.yul\":4472:4476   */\n      0x11\n        /* \"#utility.yul\":4469:4470   */\n      0x04\n        /* \"#utility.yul\":4462:4477   */\n      mstore\n        /* \"#utility.yul\":4496:4500   */\n      0x24\n        /* \"#utility.yul\":4493:4494   */\n      0x00\n        /* \"#utility.yul\":4486:4501   */\n      revert\n        /* \"#utility.yul\":4513:4704   */\n    tag_30:\n        /* \"#utility.yul\":4553:4556   */\n      0x00\n        /* \"#utility.yul\":4572:4592   */\n      tag_116\n        /* \"#utility.yul\":4590:4591   */\n      dup3\n        /* \"#utility.yul\":4572:4592   */\n      tag_45\n      jump\t// in\n    tag_116:\n        /* \"#utility.yul\":4567:4592   */\n      swap2\n      pop\n        /* \"#utility.yul\":4606:4626   */\n      tag_117\n        /* \"#utility.yul\":4624:4625   */\n      dup4\n        /* \"#utility.yul\":4606:4626   */\n      tag_45\n      jump\t// in\n    tag_117:\n        /* \"#utility.yul\":4601:4626   */\n      swap3\n      pop\n        /* \"#utility.yul\":4649:4650   */\n      dup3\n        /* \"#utility.yul\":4646:4647   */\n      dup3\n        /* \"#utility.yul\":4642:4651   */\n      add\n        /* \"#utility.yul\":4635:4651   */\n      swap1\n      pop\n        /* \"#utility.yul\":4670:4673   */\n      dup1\n        /* \"#utility.yul\":4667:4668   */\n      dup3\n        /* \"#utility.yul\":4664:4674   */\n      gt\n        /* \"#utility.yul\":4661:4697   */\n      iszero\n      tag_118\n      jumpi\n        /* \"#utility.yul\":4677:4695   */\n      tag_119\n      tag_61\n      jump\t// in\n    tag_119:\n        /* \"#utility.yul\":4661:4697   */\n    tag_118:\n        /* \"#utility.yul\":4513:4704   */\n      swap3\n      swap2\n      pop\n      pop\n      jump\t// out\n        /* \"#utility.yul\":4710:4943   */\n    tag_32:\n        /* \"#utility.yul\":4749:4752   */\n      0x00\n        /* \"#utility.yul\":4772:4796   */\n      tag_121\n        /* \"#utility.yul\":4790:4795   */\n      dup3\n        /* \"#utility.yul\":4772:4796   */\n      tag_45\n      jump\t// in\n    tag_121:\n        /* \"#utility.yul\":4763:4796   */\n      swap2\n      pop\n        /* \"#utility.yul\":4818:4884   */\n      0xffffffffffffffffffffffffffffffffffffffffffffffffffffffffffffffff\n        /* \"#utility.yul\":4811:4816   */\n      dup3\n        /* \"#utility.yul\":4808:4885   */\n      sub\n        /* \"#utility.yul\":4805:4908   */\n      tag_122\n      jumpi\n        /* \"#utility.yul\":4888:4906   */\n      tag_123\n      tag_61\n      jump\t// in\n    tag_123:\n        /* \"#utility.yul\":4805:4908   */\n    tag_122:\n        /* \"#utility.yul\":4935:4936   */\n      0x01\n        /* \"#utility.yul\":4928:4933   */\n      dup3\n        /* \"#utility.yul\":4924:4937   */\n      add\n        /* \"#utility.yul\":4917:4937   */\n      swap1\n      pop\n        /* \"#utility.yul\":4710:4943   */\n      swap2\n      swap1\n      pop\n      jump\t// out\n        /* \"#utility.yul\":4949:5129   */\n    tag_38:\n        /* \"#utility.yul\":4997:5074   */\n      0x4e487b7100000000000000000000000000000000000000000000000000000000\n        /* \"#utility.yul\":4994:4995   */\n      0x00\n        /* \"#utility.yul\":4987:5075   */\n      mstore\n        /* \"#utility.yul\":5094:5098   */\n      0x32\n        /* \"#utility.yul\":5091:5092   */\n      0x04\n        /* \"#utility.yul\":5084:5099   */\n      mstore\n        /* \"#utility.yul\":5118:5122   */\n      0x24\n        /* \"#utility.yul\":5115:5116   */\n      0x00\n        /* \"#utility.yul\":5108:5123   */\n      revert\n        /* \"#utility.yul\":5135:5315   */\n    tag_62:\n        /* \"#utility.yul\":5183:5260   */\n      0x4e487b7100000000000000000000000000000000000000000000000000000000\n        /* \"#utility.yul\":5180:5181   */\n      0x00\n        /* \"#utility.yul\":5173:5261   */\n      mstore\n        /* \"#utility.yul\":5280:5284   */\n      0x12\n        /* \"#utility.yul\":5277:5278   */\n      0x04\n        /* \"#utility.yul\":5270:5285   */\n      mstore\n        /* \"#utility.yul\":5304:5308   */\n      0x24\n        /* \"#utility.yul\":5301:5302   */\n      0x00\n        /* \"#utility.yul\":5294:5309   */\n      revert\n        /* \"#utility.yul\":5321:5497   */\n    tag_40:\n        /* \"#utility.yul\":5353:5354   */\n      0x00\n        /* \"#utility.yul\":5370:5390   */\n      tag_127\n        /* \"#utility.yul\":5388:5389   */\n      dup3\n        /* \"#utility.yul\":5370:5390   */\n      tag_45\n      jump\t// in\n    tag_127:\n        /* \"#utility.yul\":5365:5390   */\n      swap2\n      pop\n        /* \"#utility.yul\":5404:5424   */\n      tag_128\n        /* \"#utility.yul\":5422:5423   */\n      dup4\n        /* \"#utility.yul\":5404:5424   */\n      tag_45\n      jump\t// in\n    tag_128:\n        /* \"#utility.yul\":5399:5424   */\n      swap3\n      pop\n        /* \"#utility.yul\":5443:5444   */\n      dup3\n        /* \"#utility.yul\":5433:5468   */\n      tag_129\n      jumpi\n        /* \"#utility.yul\":5448:5466   */\n      tag_130\n      tag_62\n      jump\t// in\n    tag_130:\n        /* \"#utility.yul\":5433:5468   */\n    tag_129:\n        /* \"#utility.yul\":5489:5490   */\n      dup3\n        /* \"#utility.yul\":5486:5487   */\n      dup3\n        /* \"#utility.yul\":5482:5491   */\n      mod\n        /* \"#utility.yul\":5477:5491   */\n      swap1\n      pop\n        /* \"#utility.yul\":5321:5497   */\n      swap3\n      swap2\n      pop\n      pop\n      jump\t// out\n\n    auxdata: 0xa264697066735822122038fcea687532fe9bb6f21b33e748d56eb3ed850428ad5663794d7fbc74dfbaa364736f6c63430008220033\n}\n",
				"bytecode": {
					"linkReferences": {},
					"object": "6080604052348015600e575f5ffd5b506105398061001c5f395ff3fe608060405234801561000f575f5ffd5b506004361061004a575f3560e01c80635bda3c731461004e578063653721471461005857806397b6b74814610076578063b9d0f03b146100a6575b5f5ffd5b6100566100d6565b005b6100606100e7565b60405161006d91906101bc565b60405180910390f35b610090600480360381019061008b9190610210565b6100ec565b60405161009d91906101bc565b60405180910390f35b6100c060048036038101906100bb919061038b565b610128565b6040516100cd91906101bc565b60405180910390f35b6100e0600a6100ec565b5f81905550565b5f5481565b5f5f5f90505f5f90505b83811161011e57808261010991906103ff565b9150808061011690610432565b9150506100f6565b5080915050919050565b5f5f5f90505b825181101561019a575f600284838151811061014d5761014c610479565b5b602002602001015161015f91906104d3565b036101875782818151811061017757610176610479565b5b602002602001015191505061019f565b808061019290610432565b91505061012e565b5f9150505b919050565b5f819050919050565b6101b6816101a4565b82525050565b5f6020820190506101cf5f8301846101ad565b92915050565b5f604051905090565b5f5ffd5b5f5ffd5b6101ef816101a4565b81146101f9575f5ffd5b50565b5f8135905061020a816101e6565b92915050565b5f60208284031215610225576102246101de565b5b5f610232848285016101fc565b91505092915050565b5f5ffd5b5f601f19601f8301169050919050565b7f4e487b71000000000000000000000000000000000000000000000000000000005f52604160045260245ffd5b6102858261023f565b810181811067ffffffffffffffff821117156102a4576102a361024f565b5b80604052505050565b5f6102b66101d5565b90506102c2828261027c565b919050565b5f67ffffffffffffffff8211156102e1576102e061024f565b5b602082029050602081019050919050565b5f5ffd5b5f610308610303846102c7565b6102ad565b9050808382526020820190506020840283018581111561032b5761032a6102f2565b5b835b81811015610354578061034088826101fc565b84526020840193505060208101905061032d565b5050509392505050565b5f82601f8301126103725761037161023b565b5b81356103828482602086016102f6565b91505092915050565b5f602082840312156103a05761039f6101de565b5b5f82013567ffffffffffffffff8111156103bd576103bc6101e2565b5b6103c98482850161035e565b91505092915050565b7f4e487b71000000000000000000000000000000000000000000000000000000005f52601160045260245ffd5b5f610409826101a4565b9150610414836101a4565b925082820190508082111561042c5761042b6103d2565b5b92915050565b5f61043c826101a4565b91507fffffffffffffffffffffffffffffffffffffffffffffffffffffffffffffffff820361046e5761046d6103d2565b5b600182019050919050565b7f4e487b71000000000000000000000000000000000000000000000000000000005f52603260045260245ffd5b7f4e487b71000000000000000000000000000000000000000000000000000000005f52601260045260245ffd5b5f6104dd826101a4565b91506104e8836101a4565b9250826104f8576104f76104a6565b5b82820690509291505056fea264697066735822122038fcea687532fe9bb6f21b33e748d56eb3ed850428ad5663794d7fbc74dfbaa364736f6c63430008220033",
					"opcodes": "PUSH1 0x80 PUSH1 0x40 MSTORE CALLVALUE DUP1 ISZERO PUSH1 0xE JUMPI PUSH0 PUSH0 REVERT JUMPDEST POP PUSH2 0x539 DUP1 PUSH2 0x1C PUSH0 CODECOPY PUSH0 RETURN INVALID PUSH1 0x80 PUSH1 0x40 MSTORE CALLVALUE DUP1 ISZERO PUSH2 0xF JUMPI PUSH0 PUSH0 REVERT JUMPDEST POP PUSH1 0x4 CALLDATASIZE LT PUSH2 0x4A JUMPI PUSH0 CALLDATALOAD PUSH1 0xE0 SHR DUP1 PUSH4 0x5BDA3C73 EQ PUSH2 0x4E JUMPI DUP1 PUSH4 0x65372147 EQ PUSH2 0x58 JUMPI DUP1 PUSH4 0x97B6B748 EQ PUSH2 0x76 JUMPI DUP1 PUSH4 0xB9D0F03B EQ PUSH2 0xA6 JUMPI JUMPDEST PUSH0 PUSH0 REVERT JUMPDEST PUSH2 0x56 PUSH2 0xD6 JUMP JUMPDEST STOP JUMPDEST PUSH2 0x60 PUSH2 0xE7 JUMP JUMPDEST PUSH1 0x40 MLOAD PUSH2 0x6D SWAP2 SWAP1 PUSH2 0x1BC JUMP JUMPDEST PUSH1 0x40 MLOAD DUP1 SWAP2 SUB SWAP1 RETURN JUMPDEST PUSH2 0x90 PUSH1 0x4 DUP1 CALLDATASIZE SUB DUP2 ADD SWAP1 PUSH2 0x8B SWAP2 SWAP1 PUSH2 0x210 JUMP JUMPDEST PUSH2 0xEC JUMP JUMPDEST PUSH1 0x40 MLOAD PUSH2 0x9D SWAP2 SWAP1 PUSH2 0x1BC JUMP JUMPDEST PUSH1 0x40 MLOAD DUP1 SWAP2 SUB SWAP1 RETURN JUMPDEST PUSH2 0xC0 PUSH1 0x4 DUP1 CALLDATASIZE SUB DUP2 ADD SWAP1 PUSH2 0xBB SWAP2 SWAP1 PUSH2 0x38B JUMP JUMPDEST PUSH2 0x128 JUMP JUMPDEST PUSH1 0x40 MLOAD PUSH2 0xCD SWAP2 SWAP1 PUSH2 0x1BC JUMP JUMPDEST PUSH1 0x40 MLOAD DUP1 SWAP2 SUB SWAP1 RETURN JUMPDEST PUSH2 0xE0 PUSH1 0xA PUSH2 0xEC JUMP JUMPDEST PUSH0 DUP2 SWAP1 SSTORE POP JUMP JUMPDEST PUSH0 SLOAD DUP2 JUMP JUMPDEST PUSH0 PUSH0 PUSH0 SWAP1 POP PUSH0 PUSH0 SWAP1 POP JUMPDEST DUP4 DUP2 GT PUSH2 0x11E JUMPI DUP1 DUP3 PUSH2 0x109 SWAP2 SWAP1 PUSH2 0x3FF JUMP JUMPDEST SWAP2 POP DUP1 DUP1 PUSH2 0x116 SWAP1 PUSH2 0x432 JUMP JUMPDEST SWAP2 POP POP PUSH2 0xF6 JUMP JUMPDEST POP DUP1 SWAP2 POP POP SWAP2 SWAP1 POP JUMP JUMPDEST PUSH0 PUSH0 PUSH0 SWAP1 POP JUMPDEST DUP3 MLOAD DUP2 LT ISZERO PUSH2 0x19A JUMPI PUSH0 PUSH1 0x2 DUP5 DUP4 DUP2 MLOAD DUP2 LT PUSH2 0x14D JUMPI PUSH2 0x14C PUSH2 0x479 JUMP JUMPDEST JUMPDEST PUSH1 0x20 MUL PUSH1 0x20 ADD ADD MLOAD PUSH2 0x15F SWAP2 SWAP1 PUSH2 0x4D3 JUMP JUMPDEST SUB PUSH2 0x187 JUMPI DUP3 DUP2 DUP2 MLOAD DUP2 LT PUSH2 0x177 JUMPI PUSH2 0x176 PUSH2 0x479 JUMP JUMPDEST JUMPDEST PUSH1 0x20 MUL PUSH1 0x20 ADD ADD MLOAD SWAP2 POP POP PUSH2 0x19F JUMP JUMPDEST DUP1 DUP1 PUSH2 0x192 SWAP1 PUSH2 0x432 JUMP JUMPDEST SWAP2 POP POP PUSH2 0x12E JUMP JUMPDEST PUSH0 SWAP2 POP POP JUMPDEST SWAP2 SWAP1 POP JUMP JUMPDEST PUSH0 DUP2 SWAP1 POP SWAP2 SWAP1 POP JUMP JUMPDEST PUSH2 0x1B6 DUP2 PUSH2 0x1A4 JUMP JUMPDEST DUP3 MSTORE POP POP JUMP JUMPDEST PUSH0 PUSH1 0x20 DUP3 ADD SWAP1 POP PUSH2 0x1CF PUSH0 DUP4 ADD DUP5 PUSH2 0x1AD JUMP JUMPDEST SWAP3 SWAP2 POP POP JUMP JUMPDEST PUSH0 PUSH1 0x40 MLOAD SWAP1 POP SWAP1 JUMP JUMPDEST PUSH0 PUSH0 REVERT JUMPDEST PUSH0 PUSH0 REVERT JUMPDEST PUSH2 0x1EF DUP2 PUSH2 0x1A4 JUMP JUMPDEST DUP2 EQ PUSH2 0x1F9 JUMPI PUSH0 PUSH0 REVERT JUMPDEST POP JUMP JUMPDEST PUSH0 DUP2 CALLDATALOAD SWAP1 POP PUSH2 0x20A DUP2 PUSH2 0x1E6 JUMP JUMPDEST SWAP3 SWAP2 POP POP JUMP JUMPDEST PUSH0 PUSH1 0x20 DUP3 DUP5 SUB SLT ISZERO PUSH2 0x225 JUMPI PUSH2 0x224 PUSH2 0x1DE JUMP JUMPDEST JUMPDEST PUSH0 PUSH2 0x232 DUP5 DUP3 DUP6 ADD PUSH2 0x1FC JUMP JUMPDEST SWAP2 POP POP SWAP3 SWAP2 POP POP JUMP JUMPDEST PUSH0 PUSH0 REVERT JUMPDEST PUSH0 PUSH1 0x1F NOT PUSH1 0x1F DUP4 ADD AND SWAP1 POP SWAP2 SWAP1 POP JUMP JUMPDEST PUSH32 0x4E487B7100000000000000000000000000000000000000000000000000000000 PUSH0 MSTORE PUSH1 0x41 PUSH1 0x4 MSTORE PUSH1 0x24 PUSH0 REVERT JUMPDEST PUSH2 0x285 DUP3 PUSH2 0x23F JUMP JUMPDEST DUP2 ADD DUP2 DUP2 LT PUSH8 0xFFFFFFFFFFFFFFFF DUP3 GT OR ISZERO PUSH2 0x2A4 JUMPI PUSH2 0x2A3 PUSH2 0x24F JUMP JUMPDEST JUMPDEST DUP1 PUSH1 0x40 MSTORE POP POP POP JUMP JUMPDEST PUSH0 PUSH2 0x2B6 PUSH2 0x1D5 JUMP JUMPDEST SWAP1 POP PUSH2 0x2C2 DUP3 DUP3 PUSH2 0x27C JUMP JUMPDEST SWAP2 SWAP1 POP JUMP JUMPDEST PUSH0 PUSH8 0xFFFFFFFFFFFFFFFF DUP3 GT ISZERO PUSH2 0x2E1 JUMPI PUSH2 0x2E0 PUSH2 0x24F JUMP JUMPDEST JUMPDEST PUSH1 0x20 DUP3 MUL SWAP1 POP PUSH1 0x20 DUP2 ADD SWAP1 POP SWAP2 SWAP1 POP JUMP JUMPDEST PUSH0 PUSH0 REVERT JUMPDEST PUSH0 PUSH2 0x308 PUSH2 0x303 DUP5 PUSH2 0x2C7 JUMP JUMPDEST PUSH2 0x2AD JUMP JUMPDEST SWAP1 POP DUP1 DUP4 DUP3 MSTORE PUSH1 0x20 DUP3 ADD SWAP1 POP PUSH1 0x20 DUP5 MUL DUP4 ADD DUP6 DUP2 GT ISZERO PUSH2 0x32B JUMPI PUSH2 0x32A PUSH2 0x2F2 JUMP JUMPDEST JUMPDEST DUP4 JUMPDEST DUP2 DUP2 LT ISZERO PUSH2 0x354 JUMPI DUP1 PUSH2 0x340 DUP9 DUP3 PUSH2 0x1FC JUMP JUMPDEST DUP5 MSTORE PUSH1 0x20 DUP5 ADD SWAP4 POP POP PUSH1 0x20 DUP2 ADD SWAP1 POP PUSH2 0x32D JUMP JUMPDEST POP POP POP SWAP4 SWAP3 POP POP POP JUMP JUMPDEST PUSH0 DUP3 PUSH1 0x1F DUP4 ADD SLT PUSH2 0x372 JUMPI PUSH2 0x371 PUSH2 0x23B JUMP JUMPDEST JUMPDEST DUP2 CALLDATALOAD PUSH2 0x382 DUP5 DUP3 PUSH1 0x20 DUP7 ADD PUSH2 0x2F6 JUMP JUMPDEST SWAP2 POP POP SWAP3 SWAP2 POP POP JUMP JUMPDEST PUSH0 PUSH1 0x20 DUP3 DUP5 SUB SLT ISZERO PUSH2 0x3A0 JUMPI PUSH2 0x39F PUSH2 0x1DE JUMP JUMPDEST JUMPDEST PUSH0 DUP3 ADD CALLDATALOAD PUSH8 0xFFFFFFFFFFFFFFFF DUP2 GT ISZERO PUSH2 0x3BD JUMPI PUSH2 0x3BC PUSH2 0x1E2 JUMP JUMPDEST JUMPDEST PUSH2 0x3C9 DUP5 DUP3 DUP6 ADD PUSH2 0x35E JUMP JUMPDEST SWAP2 POP POP SWAP3 SWAP2 POP POP JUMP JUMPDEST PUSH32 0x4E487B7100000000000000000000000000000000000000000000000000000000 PUSH0 MSTORE PUSH1 0x11 PUSH1 0x4 MSTORE PUSH1 0x24 PUSH0 REVERT JUMPDEST PUSH0 PUSH2 0x409 DUP3 PUSH2 0x1A4 JUMP JUMPDEST SWAP2 POP PUSH2 0x414 DUP4 PUSH2 0x1A4 JUMP JUMPDEST SWAP3 POP DUP3 DUP3 ADD SWAP1 POP DUP1 DUP3 GT ISZERO PUSH2 0x42C JUMPI PUSH2 0x42B PUSH2 0x3D2 JUMP JUMPDEST JUMPDEST SWAP3 SWAP2 POP POP JUMP JUMPDEST PUSH0 PUSH2 0x43C DUP3 PUSH2 0x1A4 JUMP JUMPDEST SWAP2 POP PUSH32 0xFFFFFFFFFFFFFFFFFFFFFFFFFFFFFFFFFFFFFFFFFFFFFFFFFFFFFFFFFFFFFFFF DUP3 SUB PUSH2 0x46E JUMPI PUSH2 0x46D PUSH2 0x3D2 JUMP JUMPDEST JUMPDEST PUSH1 0x1 DUP3 ADD SWAP1 POP SWAP2 SWAP1 POP JUMP JUMPDEST PUSH32 0x4E487B7100000000000000000000000000000000000000000000000000000000 PUSH0 MSTORE PUSH1 0x32 PUSH1 0x4 MSTORE PUSH1 0x24 PUSH0 REVERT JUMPDEST PUSH32 0x4E487B7100000000000000000000000000000000000000000000000000000000 PUSH0 MSTORE PUSH1 0x12 PUSH1 0x4 MSTORE PUSH1 0x24 PUSH0 REVERT JUMPDEST PUSH0 PUSH2 0x4DD DUP3 PUSH2 0x1A4 JUMP JUMPDEST SWAP2 POP PUSH2 0x4E8 DUP4 PUSH2 0x1A4 JUMP JUMPDEST SWAP3 POP DUP3 PUSH2 0x4F8 JUMPI PUSH2 0x4F7 PUSH2 0x4A6 JUMP JUMPDEST JUMPDEST DUP3 DUP3 MOD SWAP1 POP SWAP3 SWAP2 POP POP JUMP INVALID LOG2 PUSH5 0x6970667358 0x22 SLT KECCAK256 CODESIZE 0xFC 0xEA PUSH9 0x7532FE9BB6F21B33E7 BASEFEE 0xD5 PUSH15 0xB3ED850428AD5663794D7FBC74DFBA LOG3 PUSH5 0x736F6C6343 STOP ADDMOD 0x22 STOP CALLER "
				},
				"gasEstimates": {
					"creation": {
						"codeDepositCost": "267400",
						"executionCost": "304",
						"totalCost": "267704"
					},
					"external": {
						"callPureInternally()": "infinite",
						"expensivePure(uint256)": "infinite",
						"findFirstEven(uint256[])": "infinite",
						"result()": "2424"
					}
				},
				"methodIdentifiers": {
					"callPureInternally()": "5bda3c73",
					"expensivePure(uint256)": "97b6b748",
					"findFirstEven(uint256[])": "b9d0f03b",
					"result()": "65372147"
				}
			},
			"storageLayout": {
				"storage": [
					{
						"astId": 3,
						"contract": "contracts/simpleForLoop.sol:SimpleLoop",
						"label": "result",
						"offset": 0,
						"slot": "0",
						"type": "t_uint256"
					}
				],
				"types": {
					"t_uint256": {
						"encoding": "inplace",
						"label": "uint256",
						"numberOfBytes": "32"
					}
				}
			},
			"userdoc": {
				"kind": "user",
				"methods": {},
				"version": 1
			}
		}
	}
}