{"abi":[{"type":"function","name":"deposit","inputs":[],"outputs":[],"stateMutability":"payable"},{"type":"function","name":"getBalance","inputs":[{"name":"user","type":"address","internalType":"address"}],"outputs":[{"name":"","type":"uint256","internalType":"uint256"}],"stateMutability":"view"},{"type":"function","name":"withdraw","inputs":[{"name":"amount","type":"uint256","internalType":"uint256"}],"outputs":[],"stateMutability":"nonpayable"},{"type":"event","name":"Deposited","inputs":[{"name":"user","type":"address","indexed":true,"internalType":"address"},{"name":"amount","type":"uint256","indexed":false,"internalType":"uint256"}],"anonymous":false},{"type":"event","name":"Withdrawn","inputs":[{"name":"user","type":"address","indexed":true,"internalType":"address"},{"name":"amount","type":"uint256","indexed":false,"internalType":"uint256"}],"anonymous":false}],"bytecode":{"object":"0x6080604052348015600e575f5ffd5b506107f08061001c5f395ff3fe608060405260043610610033575f3560e01c80632e1a7d4d14610037578063d0e30db01461005f578063f8b2cb4f14610069575b5f5ffd5b348015610042575f5ffd5b5061005d60048036038101906100589190610412565b6100a5565b005b6100676102b2565b005b348015610074575f5ffd5b5061008f600480360381019061008a9190610497565b610396565b60405161009c91906104d1565b60405180910390f35b5f81116100e7576040517f08c379a00000000000000000000000000000000000000000000000000000000081526004016100de9061056a565b60405180910390fd5b805f5f3373ffffffffffffffffffffffffffffffffffffffff1673ffffffffffffffffffffffffffffffffffffffff1681526020019081526020015f20541015610166576040517f08c379a000000000000000000000000000000000000000000000000000000000815260040161015d906105d2565b60405180910390fd5b805f5f3373ffffffffffffffffffffffffffffffffffffffff1673ffffffffffffffffffffffffffffffffffffffff1681526020019081526020015f205f8282546101b1919061061d565b925050819055505f3373ffffffffffffffffffffffffffffffffffffffff16826040516101dd9061067d565b5f6040518083038185875af1925050503d805f8114610217576040519150601f19603f3d011682016040523d82523d5f602084013e61021c565b606091505b5050905080610260576040517f08c379a0000000000000000000000000000000000000000000000000000000008152600401610257906106db565b60405180910390fd5b3373ffffffffffffffffffffffffffffffffffffffff167f7084f5476618d8e60b11ef0d7d3f06914655adb8793e28ff7f018d4c76d505d5836040516102a691906104d1565b60405180910390a25050565b5f34116102f4576040517f08c379a00000000000000000000000000000000000000000000000000000000081526004016102eb90610769565b60405180910390fd5b345f5f3373ffffffffffffffffffffffffffffffffffffffff1673ffffffffffffffffffffffffffffffffffffffff1681526020019081526020015f205f82825461033f9190610787565b925050819055503373ffffffffffffffffffffffffffffffffffffffff167f2da466a7b24304f47e87fa2e1e5a81b9831ce54fec19055ce277ca2f39ba42c43460405161038c91906104d1565b60405180910390a2565b5f5f5f8373ffffffffffffffffffffffffffffffffffffffff1673ffffffffffffffffffffffffffffffffffffffff1681526020019081526020015f20549050919050565b5f5ffd5b5f819050919050565b6103f1816103df565b81146103fb575f5ffd5b50565b5f8135905061040c816103e8565b92915050565b5f60208284031215610427576104266103db565b5b5f610434848285016103fe565b91505092915050565b5f73ffffffffffffffffffffffffffffffffffffffff82169050919050565b5f6104668261043d565b9050919050565b6104768161045c565b8114610480575f5ffd5b50565b5f813590506104918161046d565b92915050565b5f602082840312156104ac576104ab6103db565b5b5f6104b984828501610483565b91505092915050565b6104cb816103df565b82525050565b5f6020820190506104e45f8301846104c2565b92915050565b5f82825260208201905092915050565b7f576974686472617720616d6f756e74206d7573742062652067726561746572205f8201527f7468616e20300000000000000000000000000000000000000000000000000000602082015250565b5f6105546026836104ea565b915061055f826104fa565b604082019050919050565b5f6020820190508181035f83015261058181610548565b9050919050565b7f496e73756666696369656e742062616c616e63650000000000000000000000005f82015250565b5f6105bc6014836104ea565b91506105c782610588565b602082019050919050565b5f6020820190508181035f8301526105e9816105b0565b9050919050565b7f4e487b71000000000000000000000000000000000000000000000000000000005f52601160045260245ffd5b5f610627826103df565b9150610632836103df565b925082820390508181111561064a576106496105f0565b5b92915050565b5f81905092915050565b50565b5f6106685f83610650565b91506106738261065a565b5f82019050919050565b5f6106878261065d565b9150819050919050565b7f4661696c656420746f2073656e642045746865720000000000000000000000005f82015250565b5f6106c56014836104ea565b91506106d082610691565b602082019050919050565b5f6020820190508181035f8301526106f2816106b9565b9050919050565b7f4465706f73697420616d6f756e74206d757374206265206772656174657220745f8201527f68616e2030000000000000000000000000000000000000000000000000000000602082015250565b5f6107536025836104ea565b915061075e826106f9565b604082019050919050565b5f6020820190508181035f83015261078081610747565b9050919050565b5f610791826103df565b915061079c836103df565b92508282019050808211156107b4576107b36105f0565b5b9291505056fea2646970667358221220d3ec385b9abe6bae019b991ec25a0f3509ca0972e101656fd55774359aa3f24864736f6c63430008210033","linkReferences":{}},"methodIdentifiers":{"deposit()":"d0e30db0","getBalance(address)":"f8b2cb4f","withdraw(uint256)":"2e1a7d4d"},"id":21}